:020000040800F2
:100000003806002001010008D9310008D13100086C
:10001000D531000875080008BD3300080000000055
:10002000000000000000000000000000E1310008B6
:100030008508000800000000DD310008E5310008F7
:100040001B0100081B0100081B0100081B01000820
:100050001B0100081B0100081B0100081B01000810
:100060001B0100081B0100081B0100081B01000800
:100070001B0100081B010008790800081B0100088B
:100080001B0100081B010008710700081B01000884
:100090001B0100081B0100081B0100081B010008D0
:1000A0001B0100081B0100081B0100081B010008C0
:1000B000ED3100081B010008000000001B010008D2
:1000C0001B01000800000000000000001B010008E8
:1000D00000000000B13300081B0100080000000010
:1000E000890800081B0100081B010008DFF80CD07C
:1000F00000F0D4FA00480047813800083806002094
:100100000648804706480047FEE7FEE7FEE7FEE7B1
:10011000FEE7FEE7FEE7FEE7FEE7FEE7E93100085F
:10012000ED0000080649074A0868504343F23902C7
:10013000104408604008704701490860704700009B
:10014000000000206D4EC641D2B201E000F8012B44
:10015000491EFBD270470022F6E710B513460A4647
:1001600004461946FFF7F0FF204610BD2DE9FE4F6B
:10017000804681EA0300C00F0C46009021F0004148
:1001800023F00045B8EB0200A94105D240462146C4
:1001900090461C460B46024623F00040104347D0D1
:1001A000270DC7F30A00C3F30A510290401A0190C9
:1001B00040286BDAC3F3130040F4801B009892468A
:1001C00020B10023D2EB030A63EB0B0B01985946D5
:1001D000C0F14002504600F0A4F906460D465046D4
:1001E0005946019A00F0BCF910EB08006141002467
:1001F00087EA115284EAE7731A4340D0009A62B347
:10020000019A012A4FEA075215DC001B61EB02013B
:100210004FF0004202EA0752CDE90042001C41F5CE
:10022000801132462B4600F0BCF903B0BDE8F08FD8
:1002300040462146F9E7001B61EB0201001C41F535
:10024000801300185B412018A2F5001747EB03014B
:1002500040EAD570B6196D4111E06D084FEA3606D7
:1002600045EAC0754FEA0752001B61EB0201001C12
:1002700041F5801149084FEA3000001951413246DA
:100280002B4603B0BDE8F04F00F07CB90098012286
:1002900040000023D0EB020263EBE073009821469C
:1002A0004FEAE074B8EB000061EB0401E9E783F08A
:1002B00000435BE781F0004158E72DE9FE4F81EAFA
:1002C000030404F0004421F0004100944FF0000BBF
:1002D00023F0004350EA01045ED052EA03045BD0ED
:1002E000C3F30A54C1F30A552C44A4F2F334019425
:1002F000A0FB0254C1F3130141F48011C3F31303B3
:1003000043F4801301FB024400FB034E840A970A66
:1003100044EA815447EA8357A4FB076802958D0A93
:1003200005FB07854FEA932C04FB0C542705029D1F
:100330004FEA065847EA1637B5EB08056EEB070C8F
:10034000870E920E47EA811742EA8312A7FB020149
:10035000B6EB0B0164EB00042B0D43EA0C335E1883
:1003600044EB1C50DA465146E7FB0201C5F3130487
:100370004FEA0B3343EA14534FEA0432019C43EA39
:100380000603A4F10C040294009CCDE900B400F033
:1003900008F903B0BDE8F08F00200146F9E72DE928
:1003A000F04D81EA030404F0004B21F000451446AF
:1003B0004FF0000A23F0004150EA050220D054EA31
:1003C00001021DD0C5F30A570246C5F31303C1F35A
:1003D0001300C1F30A5640F4801543F48013A7EBD1
:1003E0000608101BD64608F2FD3873EB050002D351
:1003F00008F1010801E092185B41B8F1000F03DA3F
:1004000000200146BDE8F08D00204FF48011064623
:1004100084460EE0171B73EB050705D3121B63EB35
:10042000050306434CEA010C49084FEA30009218D4
:100430005B4150EA0107EDD152EA030012D082EA93
:10044000040083EA0501084305D0101BAB4106D226
:100450000122002306E000224FF0004302E06FF08B
:10046000010253101AEB06004CEB085110EB0A0086
:1004700041EB0B01BDE8F04D00F084B80EB5C10FA3
:1004800080EAE0700844CA07002140F233438DE857
:100490000E000A460B4600F084F803B000BD0EB50E
:1004A00040F2334102910021CDE900110A460B468A
:1004B00000F077F803B000BD70B5C1F30A5201F047
:1004C00000450024C1F3130140F2FF3341F48011D1
:1004D0009A4201DA002070BD40F233439A42A2F200
:1004E000334203DC524200F02BF800E090402C43F2
:1004F000F1D0404270BD30B50B46014600202022AD
:10050000012409E021FA02F59D4205D303FA02F520
:10051000491B04FA02F52844151EA2F10102F1DC80
:1005200030BD202A04DB203A00FA02F10020704797
:100530009140C2F1200320FA03F319439040704721
:10054000202A04DB203A21FA02F00021704721FA28
:1005500002F3D040C2F1200291400843194670478F
:10056000202A06DBCB17203A41FA02F043EAE07377
:1005700006E041FA02F3D040C2F120029140084364
:100580001946704710B5141E73F1000408DA401CB8
:1005900041F1000192185B411A4301D120F00100A2
:1005A00010BD2DE9F04D92469B4611B1B1FA81F292
:1005B00002E0B0FA80F220329046FFF7B2FF044624
:1005C0000F4640EA0A0041EA0B0153465A460843E7
:1005D00013D0114653EA010019D0C8F14002504629
:1005E000FFF7AEFF05460E46504659464246FFF716
:1005F00098FF084305D0012004E020463946BDE8B5
:10060000F08D0020054346EAE0762C4337430A98F4
:100610006305E40AA0EB08000022FD0A44EA4754FF
:100620000A3002D500200146E9E7010510196941A9
:10063000DDE9084500196941BDE8F04DA2E770B554
:1006400021F0004303430CD0C1F30A550024D5EB3D
:10065000040564EB0403D617AD1AB34102DB002096
:10066000014670BD201841EB025170BD30B5041E2B
:1006700071F1000404DB4FF00044404264EB0101DF
:10068000141E73F1000405DB1C464FF00043524278
:1006900063EB0403994208BF904230BD1CB5094882
:1006A0000090094801900546009C06E0E06840F093
:1006B000010394E8070098471034AC42F6D3FFF7E3
:1006C00019FD0000C84B0008E84B00082DE9F04D6B
:1006D00000231A461B1A8A4103DB00200146BDE8AD
:1006E000F08DC1F30A52C1F3130141F480154FF0AC
:1006F000000BD10702D100186D41521E002704469D
:1007000040F2FF11384601EB620A3E46804602463F
:1007100000204FF48011FFF713FFC2197141BB187D
:1007200046EB0100B4EB030C75EB000C04D3E41AA8
:1007300065EB000517460E46241908F101006D41CE
:1007400080463428E3DDF91946EB0600091BA84171
:1007500003D24FF0FF32134601E0002213461BEB99
:10076000070046EB0A51BDE8F04DFFF70BBF000054
:1007700080B540F28000C2F2000000F0D7F940F2EC
:10078000B000C2F20000BDE8804000F0CFB9000028
:10079000B0B5044600688168C90709D0816821F0B6
:1007A0000101816000F0F8FF21688968C90701D163
:1007B0000020B0BD054603E020688068C007F7D080
:1007C00000F0EAFF401B0328F6D320688068C007CA
:1007D000F2D0A06A40F01000A062E06A40F0010090
:1007E000E0620120B0BD0000B0B582B00446002038
:1007F000019021688A68D2073AD1886840F00100E8
:10080000886040F20800C2F2000000684DF6836183
:10081000C4F21B31A0FB0101880C00BF01900198BC
:1008200010B101980138F9E700F0B6FF2168896836
:10083000C9071CD1054603E020688068C00716D1AF
:1008400000F0AAFF401B0328F6D320688068C00789
:10085000F2D1A06A40F01000A062E06A40F001000E
:10086000E062002084F82400012002B0B0BD002026
:1008700002B0B0BDFEE7000040F2E000C2F20000AE
:1008800000F0D0BC7047000080B54FF4806000F0ED
:1008900077FE4FF40060BDE8804000F071BE0000BC
:1008A000EFF3108072B600BFFEE7000070B582B0B3
:1008B00004460020019094F82400012801D102256B
:1008C00066E0012084F824002046FFF761FF2046FF
:1008D000FFF78AFF0546002857D1A06A41F20211AE
:1008E00088430230A06240F20800C2F200000668AD
:1008F000022001F00FF8B6FBF0F0400001900198E3
:1009000010B101980138F9E72068816841F00801C9
:10091000816000F041FF21688A6812070DD4886861
:1009200040F00400886000F037FF216889684907BB
:1009300014D401206FF0030123E0064604E000BF59
:10094000216888680007EAD500F026FF801B0B2885
:10095000F6D3206880680007F2D50EE0064603E073
:10096000206880684007E4D500F016FF801B0B2844
:10097000F6D3206880684007F2D5012510206FF07B
:100980001201A26A11400843A062002084F82400EA
:10099000284602B070BD000070470000B0B581B0BD
:1009A0000022009290F82420012A01D1022179E04E
:1009B0004A680123062A02EB820C80F8243005D80D
:1009C000026802F1340E6FF004020AE003680C2A98
:1009D00087BF03F12C0E6FF0400203F1300E6FF071
:1009E00022026244DEF800C01F230C6893402CEA08
:1009F000030304FA02F21A43CEF80020D1F800E013
:100A000002680EEB4E041023BEF1090F88BF1E3C96
:100A100088BF0C2352F803C007258968A5402CEA3B
:100A20000505A1402943D1502EF001014FF0000CE3
:100A300010294FF0000133D1016842F20042C4F2A4
:100A40000102914205D0816A41F0200181620121B9
:100A500026E09268120222D48A68BEF1100F42F496
:100A600000028A601BD140F20801C2F2000109684D
:100A70004DF68362C4F21B32A1FB0212910C01EB12
:100A8000810149000091009949B100BF00990139E5
:100A90000091009900294FF00001F7D100E00021FA
:100AA00080F824C0084601B0B0BD00002DE9F04137
:100AB00000F038F880B240F2C261F925884240F275
:100AC000555240F2600738BF5F259042C2F20007DE
:100AD00038BF3F25884238884FF6FF1640F25C0841
:100AE00038BF4FF223468542C2F2000805D1D8F83C
:100AF0000000864208BFBDE8F08140F26C14C2F2EB
:100B0000000420466560E66001F002FC204601F02A
:100B10001BFB204601F0ACFB3D80C8F80060BDE83F
:100B2000F08100000068C06C7047000070B504469A
:100B3000006805684668B10627D515F0020124D083
:100B4000A16AC90603D4A16A41F40071A162816857
:100B500001F46021B1F5602F10D1217B71B941689A
:100B600021F020014160A06A20F48070A062A06A98
:100B7000C00403D4A06A40F00100A0622046FFF741
:100B800095FF20686FF012010160300633D515F033
:100B9000040030D0A06AC00603D4A06A40F400501C
:100BA000A0622068816801F4E041B1F5E04F0FD107
:100BB000416821F080014160A06A20F48050A06269
:100BC000A06AC00510D4A06A40F00100A0620BE04A
:100BD0004168490508D4816801F46021B1F5602FAE
:100BE00002D1217B0029E3D02046FFF7D5FE206803
:100BF0006FF00C01016070060ED515F0010008BF02
:100C000070BDA06A40F48030A062204600F0B6F8C3
:100C100020686FF00101016070BD0000002804BF72
:100C200001207047B0B50446806A30B90020E06208
:100C300084F82400204600F0A3F820688168C907E2
:100C400009D0816821F00101816000F0A5FD2168D3
:100C50008968C90730D100200121A36AA26A31B393
:100C600013F0100123D141F2021122EA01010231F5
:100C7000A162E169D4E9013241EA030C531EB3FADF
:100C800083F35D091346B2F5807F18BF2B02217DE7
:100C9000257B01294CEA450E31D13DB3A56A45F0CB
:100CA0002005A562E56A45F00105E56227E042F00E
:100CB0001000A0620120B0BD054603E020688068F6
:100CC000C007C8D000F068FD401B0328F6D3206899
:100CD0008068C007F2D0A06A002140F01000A06236
:100CE000E06A40F00100E0620120B6E7D4F818C0E5
:100CF0004EF60005CFF6FF7505EB4C352B43256806
:100D0000B2F5807F696821F4694141EA03016960B5
:100D1000A9684FF2FD73CFF6E17301EA030141EADE
:100D20000E01A96001D0012A06D121690022CFF667
:100D3000F07202EB015200E00022E96A21F4700136
:100D40001143E962A96840F6FE62CFF61F721140B6
:100D5000714507D10021E162A16A012262F301011C
:100D6000A162B0BDA06A40F0100020F00200A062B5
:100D7000E06A40F00100E0620120B0BD7047000071
:100D800080B586B0006842F60001C4F201018842D5
:100D90004FF00001CDE90411CDE902111DD042F25E
:100DA0000041C4F20101884240D141F21800C4F26E
:100DB0000200016841F400710160016801F40071F2
:100DC00001910199016841F004010160006800F09F
:100DD000040001900198102016E041F21800C4F2BE
:100DE0000200016841F480610160016801F48061E2
:100DF00001910199016841F004010160006800F06F
:100E0000040001900198012002900320039040F615
:100E10000000C4F2010002A900F0BEFB1220002174
:100E2000002200F03BFD122000F028FD06B080BD3E
:100E30002DE9F04182B000260D460446019600F0EF
:100E4000ABFC21688A68D2053CD480464868C0055E
:100E500003D4C86A10F4700F3ED040F20800C2F20A
:100E600000000668022000F055FD216844F62413B6
:100E70000A69B6FBF0F0C2F292431A4206D1CA6880
:100E800044F62413C0F292031A423ED00A6942F299
:100E90009243C1F249231A4206D1CA6842F29243F0
:100EA000C0F249031A4242D00A6949F24923C0F20A
:100EB00024031A424FF0FC023AD1C968194208BF14
:100EC000542235E0A06A40F02000A06284F824603B
:100ED000012002B0BDE8F08120680068800743D49B
:100EE0006E1C07E02068006880075CD520680068F9
:100EF000800739D4002EF9D0002DF3D000F04CFC3F
:100F0000A0EB0800A842EDD8F0E70A6942F292434C
:100F1000C1F249231A424FF0290209D1C96842F2AD
:100F20009243C0F24903194208BF142200E0542240
:100F3000019902FB00F7B94216D26E1C09E000BF0E
:100F40000198B8422FD30198013001900198B8421E
:100F50000AD2002EF7D0002DF2D000F01DFCA0EB3D
:100F60000800A842ECD8EEE720686FF0120101609B
:100F7000A16A41F40071A162806800F46020B0F5BC
:100F8000602F0CD1207B50B9A06A20F48070A06241
:100F9000A06AC00403D4A06A40F00100A06200204F
:100FA00002B0BDE8F081A06A40F00400A062002019
:100FB00084F82400032002B0BDE8F081B0B50446F7
:100FC00090F82400012804BF0220B0BD012084F85D
:100FD00024002046FFF708FC18B1002184F82410F3
:100FE000B0BD42F2044C2168A26AC4F2010C40F682
:100FF00001739A430CF57F7502F58072A942A262D3
:1010000007D0A26A22F48012A2624A6852051AD45A
:101010001EE0DCF8002012F4702FF2D0A26A42F435
:10102000801E42F60002C4F201029142C4F828E098
:1010300005D042F20042C4F20102914208D1DCF82C
:101040000020520504D5A26A012363F30D32A26287
:10105000A26A4FF0000ED2044FF0000244BFE26AD1
:1010600022F00602E2626FF0020284F824E00A60D5
:101070004A6842F020024A608A6802F46022B2F5AF
:10108000602F0BD1A94204D08A6842F4A0028A6082
:10109000B0BDDCF8002012F4702FF5D08A6842F45D
:1010A00080128A60B0BD0000B0B5044690F82400FC
:1010B000012804BF0220B0BD0121206884F824105B
:1010C0008268D20702D1002069B912E0816821F05C
:1010D0000101816000F060FB21688968C9070CD1BB
:1010E0000020012129B1A16A41F20112914301318D
:1010F000A162002184F82410B0BD054604E000BFC1
:1011000020688068C007EBD000F046FB401B032836
:10111000F6D320688068C007F2D0A06A002140F0B2
:101120001000A062E06A40F00100E06201200029A6
:10113000D9D1DEE7014690F82100022813D10868D2
:10114000D1E90FC3026822F00E020260026822F0A9
:1011500001020260012000FA03F2CCF8042081F8B9
:101160002100002002E0042088630120002281F891
:101170002020704790F82110022923D102681168BD
:1011800021F00E0111602F211368C4F202018A427E
:1011900040F20401C4F2020123F00103136015DDE3
:1011A0003023C4F202039A421CD04423C4F2020347
:1011B0009A421AD05823C4F202039A421AD14FF429
:1011C00080331FE004218163012070470823C4F2AB
:1011D00002039A420CD01C23C4F202039A4209D1A2
:1011E00010230FE04FF480730CE04FF4805309E0BC
:1011F000012307E001F1680C4FF08073624508BFDE
:101200004FF480130B60012180F82110426B002104
:1012100080F8201022B180B590470021BDE88040C1
:101220000846704710B5D0E90FCE0168DCF80030F1
:101230000A6823FA0EF35C0724D512F0040421D0C7
:101240000A68920603D40A6822F004020A602F2278
:10125000C4F20202914240F20402C4F202024FDDE3
:101260003023C4F20203994262D04423C4F2020341
:10127000994260D05823C4F20203994260D14FF4DE
:10128000802365E09C0727D512F0020424D00A6869
:10129000920606D40A6822F00A020A60012280F847
:1012A00021202F22C4F20202914240F20402C4F231
:1012B000020231DD3023C4F2020399424ED04423AE
:1012C000C4F2020399424CD05823C4F2020399425B
:1012D0004CD14FF4003351E01B0756D512F00802F1
:1012E00008BF10BD0A6822F00E020A60012101FA4F
:1012F0000EF2CCF80420816380F82110016B3FE0EE
:101300000823C4F20203994218D01C23C4F202033A
:10131000994215D140231BE00823C4F202039942ED
:1013200022D01C23C4F2020399421FD1202325E0BE
:101330004FF480630CE04FF4804309E0042307E09E
:1013400002F168044FF08063A14208BF4FF48003AC
:101350001360C16AC9B1BDE8104008474FF400737B
:101360000CE04FF4005309E0022307E002F16804A7
:101370004FF00073A14208BF4FF400131360816A5D
:101380000022002980F82020E5D110BD0146002868
:101390004FF0010008BF70472DE9F0470A684FF68B
:1013A000F873CBF6FD7302EB030C4CF6CD43CCF691
:1013B000CC43ACFB033C6FF00307002607EA9C0715
:1013C000C4F2020601F10C0AC1E90F670227D1E954
:1013D000013E9AE83004D1E9069881F82170176837
:1013E00043F6F076B7433B4343EA0E0323432B43D4
:1013F00043EA0A0343EA090343EA080313600022AD
:101400008A6381F8210081F820200020BDE8F047A0
:101410007047000090F820C0BCF1010F04BF02200B
:101420007047F0B54FF0010E80F820E090F821C031
:10143000BCF1010F23D14FF0020C80F821C04FF016
:10144000000CC0F838C0D0E900C4C56AC66BDCF82F
:101450000070102C27F00107CCF80070006C0EFA19
:1014600000F070600846CCF8043004BF10460A460D
:10147000CCF80800CCF80C2035B10E200BE0002190
:1014800080F820100220F0BDDCF8000020F00400FD
:10149000CCF800000A20DCF800100843CCF800006B
:1014A000DCF8000040F00100CCF800000020F0BDA6
:1014B000B0B5044600F070F9054640F27000C2F283
:1014C00000000078611C18BF044400BF00F064F9FC
:1014D000401BA042FAD3B0BDB0F5806F2AD0B0F562
:1014E000006F4CD140F2FC11C2F200010A6840F2D8
:1014F0007801C2F2000140F27C0C0968C2F2000CD3
:10150000DCF800308A4208BF002B05D08A420ED09A
:101510006BB94FF0FF3200E0012240F20021C2F22D
:1015200000010B681A440A600121CCF80010B0F5E4
:10153000806F24D140F2FC10C2F20000016840F23A
:101540007800C2F20000036840F27C00C2F20000A2
:101550000268994208BF002A07D099420FD0002A9A
:1015600018BF70474FF0FF3100E0012140F2042224
:10157000C2F2000213681944116001210160704732
:1015800040F21441C4F201010A68024214BF08602B
:101590007047FFF7A1BF00002DE9F04F82B00E6841
:1015A000002E00F0EF8041F20002C4F2010203239A
:1015B00040F2004E904208BF02234FF6FF7CC4F277
:1015C000010E009300240123C1F2100C4FF0000B18
:1015D0004FF000094BE000BF40F60042C4F20102A8
:1015E000009F904208BF012704F00C030F229A408D
:1015F0002AEA020207FA03F34FEA9B051A4346F868
:1016000025204E6840F20C45F202DEF8082054BF57
:1016100022EA080242EA0802C4F20105CEF80820D4
:101620002A68B30254BF22EA080242EA08022A608A
:10163000B303DEF8042054BF22EA080242EA08029B
:10164000F303CEF80420DEF800204FF0010354BF6E
:1016500022EA080242EA0802CEF800200E680BF1E6
:10166000010B36FA0BF204F1040400F08B8003FA4C
:101670000BFA16EA0A08F1D04E68664510DC122E05
:1016800050D8DFE806F0330A41454F4F4F4F4F4FD8
:101690004F4F4F4F4F4F4F484C00D1F80C9041E007
:1016A0004FF6FF72C1F2210296420FDC0022C1F216
:1016B000110296421AD00022C1F21202964215D0AF
:1016C0000022C1F22102964210D02BE00022C1F28A
:1016D000220296420AD00022C1F23102964205D07F
:1016E0000022C1F2320296421CD100BF8A6842B188
:1016F000012A14BFC0F814A0C0F810A04FF00809C8
:1017000010E04FF004090DE0CA6802F1080909E091
:101710004FF0000906E0CA6802F1040902E0CA6855
:1017200002F10C0922460646B8F5807F24BF203A14
:10173000043637680F25954027EA050509FA02F2B5
:101740002A433260CA79D2067FF588AF41F2180386
:10175000C4F202031A68AEF57E7642F001021A6006
:101760001A6802F001020192019A2BF0030256F866
:1017700002A040F60002C4F2010290427FF42CAFB6
:10178000002731E702B0BDE8F08F0000002A08BF53
:10179000090401617047000040F23020C2F20000ED
:1017A0000068704740F2700040F23021C2F2000041
:1017B000C2F2000100780A68104408607047000017
:1017C00080B542F20000C4F20200016841F010014D
:1017D0000160032000F08EF80F2000F005F800F003
:1017E0002BF8002080BD0000B0B540F27002C2F2BC
:1017F000000240F208011278C2F200014FF47A733D
:101800000968B3FBF2F20446B1FBF2F1084600F0BE
:1018100025FC0F2C4FF001050CD858B94FF0FF30C4
:1018200021460022002500F039F840F27400C2F28F
:10183000000004602846B0BD82B041F21800C4F236
:1018400002000168022241F001010160016801F01B
:10185000010101910199416841F080514160406866
:1018600000F08050009000980420C4F2010001684C
:1018700062F31A61016002B070470000002848BF9F
:10188000704700F01F01012202FA01F14EF200122E
:101890004009CEF2000242F82010704710B54EF613
:1018A0000C5CCEF2000CDCF80030C3F3022E8EF09C
:1018B0000704042C28BF0424BEF103034FF0FF3EAD
:1018C0000EFA04F438BF0023A14399400EFA03F343
:1018D0009A43114300F1604200F00F03090102F541
:1018E0006442043B6344002848BF03F10C021170BA
:1018F00010BD00004EF60C51CEF200010A684FF602
:10190000FF031A4060F30A2242F0806040F0FD704D
:101910000860704701280ED0022837D0102808D15F
:1019200041F20401C4F202010A6851F8040CC0013A
:101930003ED40020704741F20400C4F20200C169A5
:1019400040F202320A40B2F5817F04BF4FF40040FA
:10195000704701F44071B1F5407F0FD0B1F5007FC1
:101960001CBF00207047026A920744BF49F64040FE
:101970007047B1F5407F1CBF0020704750F8040C41
:101980004FF22441800301EAE070704780B500F017
:10199000B1F941F20401C4F2020109680222C1F363
:1019A000813102EB4101B0FBF1F0BDE880407047AE
:1019B000C2F3834011A3185CD20305D440F6001291
:1019C000C0F23D0250430BE00A6810A3C2F340424C
:1019D0009A5C41F20023C0F27A03B3FBF2F2504367
:1019E0000968490248BF70474AF6AB214000CAF671
:1019F000AA21A0FB01014808704700BF02030405AB
:101A0000060708090A0B0C0D0E0F1010010200004A
:101A10002DE9F04182B00446007841F21C06C0076F
:101A2000C4F202064AD030685FEAC00808D43068C1
:101A300040F080503060306800F080500190019894
:101A400047F20007C4F200073868C00512D43868AE
:101A500040F480703860FFF79FFE05463868C00587
:101A600008D4FFF799FE401B6428F7D9032002B081
:101A7000BDE8F081706810F4407012D0616801F424
:101A8000407188420DD0706840F24042C4F2422258
:101A9000012320F4407113600023C00713607160BC
:101AA00025D17068616820F440700843B8F1000FD8
:101AB000706003D4306820F0805030602068810767
:101AC00007D556F8181CA26821F44041114346F886
:101AD000181CC00607D556F8180CE16820F48000E1
:101AE000084346F8180C002002B0BDE8F081FFF76B
:101AF00053FE054641F2883770688007D1D4FFF75E
:101B00004BFE401BB8424FF00300F5D9ECE7000054
:101B1000002804BF012070472DE9F04381B042F254
:101B20000008C4F202080446D8F800000D4600F090
:101B3000070088420CD2D8F8000020F007002843A4
:101B4000C8F80000D8F8000000F00700A8426BD1E8
:101B5000206841F204098107C4F2020917D5410740
:101B600005D5D9F8001041F4E061C9F8001001076B
:101B700005D5D9F8001041F46051C9F80010D9F822
:101B80000010A26821F0F0011143C9F80010C0074D
:101B900041D1D8F8000000F00700A8420CD9D8F8CD
:101BA000000020F007002843C8F80000D8F8000023
:101BB00000F00700A84237D12068410707D5D9F8BF
:101BC0000010E26821F4E0611143C9F80010000739
:101BD00008D5D9F80000216920F4605040EAC1001E
:101BE000C9F80000D9F8002002F00C00082841F2E2
:101BF0000020C0F27A004DD144F6B333C2F38341E2
:101C0000C0F60003595CD20338D440F60010C0F28D
:101C10003D0048433EE06068022809D0012828D1F1
:101C200059F8041C890307D4012001B0BDE8F083F2
:101C300059F8041C8901F7D5D9F8001021F00301E7
:101C40000843C9F80000FFF7A7FD064641F28837B0
:101C5000D9F80000616800F00C00B0EB810F98D05B
:101C6000FFF79AFD801BB842F2D9032001B0BDE80E
:101C7000F08359F8041C8907D6D5DDE7D9F8002090
:101C800044F6B133C2F34042C0F600039A5C4843C5
:101C9000B0FBF2F0D9F8001044F69932C1F3031109
:101CA000C0F60002515C40F2080220FA01F140F255
:101CB0007400C2F200000068C2F200021160FFF777
:101CC00093FD002001B0BDE8F083000040F2080061
:101CD00041F20401C2F20000C4F202010068096886
:101CE00044F6A932C1F30221C0F60002515CC8409B
:101CF0007047000040F2080041F20401C2F2000007
:101D0000C4F202010068096844F6A932C1F3C22195
:101D1000C0F60002515CC84070470000002804BFB4
:101D2000012070472DE9F04182B00446007841F26D
:101D30000006C007C4F2020649D0706800F00C002B
:101D4000042809D13068800341D5606800283ED15D
:101D5000012002B0BDE8F081706800F00C00082896
:101D600002D17068C003EDD465682DB1B5F5A02F20
:101D70000AD0B5F5803F0BD0306820F48030306059
:101D8000306820F4802006E0306840F48020306025
:101D9000306840F480303060FFF7FEFC002D0546CF
:101DA00012D000BF3068800311D4FFF7F5FC401B50
:101DB0006428F7D918E100BFFFF7EEFC401B642848
:101DC0004FF0030000F2D88030688003F4D420780C
:101DD000800719D5706810F00C0F07D0706800F0FC
:101DE0000C00082827D17068C00324D4306880070D
:101DF00003D52069012840F0A6803068616920F091
:101E0000F80040EAC1003060207800074ED5A06994
:101E100038B30020C4F242200121C0F88014FFF73B
:101E2000BBFC0546706A80072DD4FFF7B5FC401B4C
:101E30000228F7D9D8E02069002840F20000C4F257
:101E4000422000F0A88001210160FFF7A5FC0546B3
:101E500030688007D1D4FFF79FFC401B0228F7D9D8
:101E6000C2E00020C4F242200021C0F88014FFF735
:101E700093FC0546706A800718D5FFF78DFC401B60
:101E80000228F7D9B0E040F20800C2F20000006872
:101E900044F6D351C1F26201A0FB0101480A01904E
:101EA00000BF0198411E00280191F9D12078400718
:101EB00017D4E5698DB1706800F00C00082846D190
:101EC000012D40D07068216A00F480328A423AD1F4
:101ED000616A00F47010884235D1002002B0BDE87C
:101EE000F081F0695FEAC00808D4F06940F08050E2
:101EF000F061F06900F080500090009847F2000710
:101F0000C4F200073868C0050FD4386840F4807008
:101F10003860FFF741FC05463868C00505D4FFF777
:101F20003BFC401B6428F7D95EE0E5681DB1052D38
:101F300042D0012D44D0306A20F001003062306A76
:101F400020F004003FE0012002B0BDE8F08100274E
:101F5000C4F2422700203866FFF71EFC022D05461A
:101F60000ED100BF3068800155D5FFF715FC401B2E
:101F700002284FF00300F5D902B0BDE8F08100BFA0
:101F800030688001A9D5FFF707FC401B02284FF0FD
:101F90000300F5D9F0E700210160FFF7FDFB0546DE
:101FA000306880077FF530AFFFF7F6FB401B022853
:101FB0004FF00300F4D9DFE7306A40F004003062EC
:101FC000306A40F001003062FFF7E6FB002D054665
:101FD00041F2883713D000BF306A800712D4FFF770
:101FE000DBFB401BB842F7D9032002B0BDE8F0810B
:101FF000FFF7D2FB401BB8424FF00300BCD8306A59
:102000008007F5D4B8F1000F3FF553AFF06920F029
:102010008050F0614DE7206AB0F5803F05D17168CE
:10202000A26821F40031114371607168626A21F481
:10203000741111430843706001203866FFF7ACFB50
:10204000044600BF306880013FF547AFFFF7A4FBAF
:10205000001B02284FF00300F4D98DE7411E002039
:10206000B0EB116F1CBF012070474EF21002CEF290
:10207000000251604EF62351CEF20001F0230B70A6
:1020800007219060116070477047000070470000A2
:1020900090F83C20012A04BF02207047B0B501F13E
:1020A00008053CCDD1E900CE23F47C5322F47052D4
:1020B0001A432EF4F0431A432CF4E0431A4324F459
:1020C000C0431A432A43C96922F48042036811437A
:1020D0005964002180F83C10BDE8B04008467047C4
:1020E00090F83C20012A4FF002022BD010B50123BA
:1020F00080F83C3080F83D200268D2F804E0D2F845
:1021000008C00C682EF070032343B2F1804F536077
:102110000BD042F60043C4F201039A4205D040F2CC
:102120000043C4F200039A4204D149682CF08003B2
:10213000194391600121002280F83D1080F83C2075
:10214000BDE8104010467047002804BF01207047CA
:1021500010B5044690F83D0028B9002084F83C00F2
:10216000204600F051F8022084F83D00206842F635
:10217000004C0268B0F1804FC4F2010C18BF6045FA
:1021800004D1A36822F070021A4305E040F2004334
:10219000C4F200039842F4D0B0F1804F18BF6045FC
:1021A00004D1236922F440721A4305E040F200434F
:1021B000C4F200039842F4D0A16922F08002D4F85E
:1021C00004E0E368114360450160C362C0F828E0A1
:1021D00002D16169CCF8301001214161002084F8FE
:1021E000461084F83E1084F83F1084F8401084F8BC
:1021F000411084F8421084F8431084F8441084F8A5
:10220000451084F83D1010BD80B582B00068B0F173
:10221000804F14D042F60041C4F2010188420CD133
:1022200041F21800C4F20200016841F4006101604B
:10223000006800F400600190019802B080BD41F296
:102240001800C4F202004168002241F0010141601F
:102250004068002100F00100009000981C20FFF76A
:102260001DFB1C2002B0BDE88040FFF707BB00004B
:1022700090F83D1001291CBF01207047022180F811
:102280003D100068B0F1804F0BD042F60041C4F21F
:102290000101884205D040F20041C4F200018842A9
:1022A00006D1816801F00701062904BF00207047AC
:1022B000016841F0010101600020704790F83D1075
:1022C00001291CBF01207047022180F83D100068E1
:1022D000C168B0F1804F41F00101C1600BD042F6FE
:1022E0000041C4F20101884205D040F20041C4F22D
:1022F0000001884206D1816801F00701062904BF68
:1023000000207047016841F0010101600020704722
:102310000146006841F21113026A1A4208D1026AAA
:1023200040F244431A4203D1026822F001020260E3
:102330000122002081F83D207047000090F83C20E9
:10234000012A4FF0020200F0C68080B5012380F818
:102350003C3080F83D20D0F800C04FF67772DCF8B2
:10236000083023EA0202CCF808200B684F2B28DC47
:102370001F2B44DD202B45D0302B43D0402B40F089
:10238000AC80D1F804E0C968DCF82030DCF820200B
:1023900022F00102CCF82020DCF8182022F0F00214
:1023A00042EA011123F00A0242EA0E02CCF81810A8
:1023B000CCF82020DCF8081041F0470121F0300172
:1023C0007EE06F2B26DDB3F5005F47D0B3F5805F6D
:1023D00078D0702B40F08180D1E901E3C968DCF846
:1023E000082043EA0E0322F47F4243EA012111430D
:1023F000CCF80810DCF8081041F0770160E00BB170
:10240000102B6AD1DCF8081021F07001194341F05B
:10241000070155E0502B34D0602B5ED1D1F804E099
:10242000C968DCF82030DCF8202022F01002CCF85B
:102430002020DCF8182022F4704242EA013123F017
:10244000A00242EA0E12CCF81810CCF82020DCF8DA
:10245000081041F0670121F0100131E0D1E901E3FA
:10246000C968DCF8082043EA0E0322F47F4243EAFD
:1024700001211143CCF80810DCF8081041F4804128
:102480001EE0D1F804E0C968DCF82030DCF8202038
:1024900022F00102CCF82020DCF8182022F0F00213
:1024A00042EA011123F00A0242EA0E02CCF81810A7
:1024B000CCF82020DCF8081041F0570121F0200171
:1024C000CCF808100022012180F83D10002180F88E
:1024D0003C10BDE88040104670470122F3E7000041
:1024E0007047000010B5044600680169890744BFC1
:1024F000C1685FEA81713FD420680169490744BF20
:10250000C1685FEA417143D420680169090744BF8B
:10251000C1685FEA017148D420680169C90644BFF7
:10252000C1685FEAC1614CD420680169C9071CBF5A
:10253000C1685FEAC17151D120680169090644BFD1
:10254000C1685FEA016150D420680169490644BF4F
:10255000C1685FEA41614FD421680869800646BFBF
:10256000C8685FEA806010BD6FF0200220460A61F3
:10257000BDE81040FFF78ABD6FF002010161012143
:102580002177806980073ED02046FFF7A9FF40E011
:102590006FF00401016102212177806910F4407F0E
:1025A0003AD02046FFF79CFF3CE06FF00801016144
:1025B00004212177C069800737D02046FFF790FFBC
:1025C00039E06FF01001016108212177C06910F432
:1025D000407F33D02046FFF783FF35E06FF00101E5
:1025E0000161204600F020FAA6E76FF0800101614A
:1025F0002046FFF749FDA7E76FF040010161204643
:1026000000F096FAA8E7204600F04EF8204600F0C9
:10261000AFF9002020776FE7204600F045F820460C
:1026200000F0A6F9002020776EE7204600F03CF885
:10263000204600F09DF9002020776DE7204600F04D
:1026400033F8204600F094F9002020776CE7000072
:1026500080B586B0014640F60000C4F2010009686A
:1026600000F5105291424FF00001CDE90411CDE97F
:10267000021101D006B080BD41F21801C4F202017E
:102680000A6842F004020A60096801F0040101913D
:1026900001994FF40061029102210391059102A971
:1026A000FEF77AFF06B080BD7047000090F83C301E
:1026B000012B04BF022070474FEAB2020123032A14
:1026C00080F83C3000F2EC802DE9F041DFE802F0C8
:1026D000023B77B2036842F600451C6A1A6AC4F2EC
:1026E000010522F001021A621A46D3F804C052F81A
:1026F00018EF8E6824F00204AB4244EA060405D1C8
:10270000CE6824F00C0426F0040634430E68AB4275
:1027100006D1D1E905582CF440772F4347EA080C3D
:102720002EF073073743C3F804C09F614F680969EF
:102730005F631C629F6947F008079F619F6927F0EC
:1027400004079F61A6E0036842F600451C6A1A6A06
:10275000C4F2010522F010021A621A46D3F804C02E
:1027600052F818EF8E6824F02004AB4244EA0614B5
:1027700007D1CE686FF0400724F0C00407EA0616C0
:1027800034430E68AB4206D1D1E905572CF4406CB6
:102790003D434CEA850C2EF4E64747EA0627C3F88A
:1027A00004C09F614F6809699F631C629F6947F479
:1027B00000679F619F6927F480679F6169E00368F4
:1027C00042F600451C6A1A6AC4F2010522F48072BE
:1027D0001A621A46D3F804C052F81CEF8E6824F42B
:1027E0000074AB4244EA062407D1CE6840F2FF47AA
:1027F000360224F44064BE4334430E68AB4206D133
:10280000D1E905572CF4405C3D434CEA051C2EF001
:1028100073073743C3F804C0DF614F680969DF639A
:102820001C62DF6947F00807DF61DF6927F00407F2
:10283000DF612FE0036842F60047D3F820C01A6A30
:10284000C4F2010722F480521A621A465C6852F8F8
:102850001C5FD1F800E08E68BB4204D14F6924F4BC
:10286000804444EA87142CF4005747EA063725F4DD
:10287000E64646EA0E265C60DE614E6809691E6423
:102880001F62DF6947F40067DF61DF6927F4806753
:10289000DF6109021368194300231160BDE8F041AC
:1028A000002180F83C10184670470000002804BF43
:1028B0000120704710B5044690F83D0028B900206B
:1028C00084F83C00204600F051F8022084F83D00D6
:1028D000206842F6004C0268B0F1804FC4F2010C4F
:1028E00018BF604504D1A36822F070021A4305E0C6
:1028F00040F20043C4F200039842F4D0B0F1804F9C
:1029000018BF604504D1236922F440721A4305E0E0
:1029100040F20043C4F200039842F4D0A16922F0CF
:102920008002D4F804E0E368114360450160C362AB
:10293000C0F828E002D16169CCF830100121416172
:10294000002084F8461084F83E1084F83F1084F884
:10295000401084F8411084F8421084F8431084F841
:10296000441084F8451084F83D1010BD70470000F5
:102970007047000041B1082909D0042914BF00F1B3
:10298000410200F13F0204E000F13E0201E000F1EB
:1029900040021278012A1CBF01207047022241B177
:1029A000082909D0042914BF80F8412080F83F206D
:1029B00004E080F83E2001E080F84020006801F04B
:1029C0001F010122036A8A4023EA02010162036AAD
:1029D00042F64441C4F201011A43A1F14403984272
:1029E000026203D0B0F1804F07D112E00A6842F4CE
:1029F00000420A60B0F1804F0BD042F60041C4F2B1
:102A00000101884205D040F20041C4F20001884231
:102A100004D1816801F00701062903D0016841F063
:102A20000101016000207047F0B581B0044640F21A
:102A3000B41040F20C01C2F20000C2F200010D22FB
:102A400000F084FB2068B0F1804F01D001B0F0BDF0
:102A500040F27C0040F26C06C2F200000021C2F29B
:102A600000060160306840F6004440F26205C4F29E
:102A70000104411CC2F2000505D035F810102046B3
:102A80000022FEF783FEFDF74DFBC11700EB9171AD
:102A900021F00301471AFDF745FBC11700EB9171C7
:102AA00021F0030235F81710851A20460122FEF79F
:102AB0006DFE40F27800C2F20000056040F2FC10AA
:102AC000C2F20000076040F21900C2F2000000EB01
:102AD00005120120012100F0B9FE40F20020C2F2EF
:102AE000000040F2082444F6C3350268C2F2000434
:102AF000C0F600052046294601F078F902200121A0
:102B0000224600F0A3FE40F20420C2F2000040F290
:102B10001C240268C2F200042046294601F066F92E
:102B200002200521224600F091FE376001B0F0BD81
:102B3000704700007047000070470000B0B582B0D9
:102B4000044600680168C368426901F02F05202D22
:102B500003F0200506D12DB1204602B0BDE8B040FB
:102B600000F0C6BB5FEA017C1EBF02F0010E03F459
:102B7000907212EB0E0240D1226BCD0618D5012ABD
:102B800016D113F0100213D00021019101680191B8
:102B90004168019101994069400636D4A08DE18DCC
:102BA000E28D002A18BF884240F00C8102B0B0BD0F
:102BB0000A0670D513F080026DD094F841102129D7
:102BC000F4D1A168B1F5805F03D12169002900F03B
:102BD0002E81216A4A1C226209784160E18C013908
:102BE0000A04E184E2D1C16821F08001C160C168BA
:102BF00041F04001C16002B0B0BDC80718BF13F476
:102C000080705CD1480760D466E0E06B0168496879
:102C10008AB2002ACAD0A38D9A42C7D2E1858069C0
:102C2000202830D0206850E8030F216820F48070FD
:102C300041E80302002AF5D1206850E8050F216819
:102C400020F0010041E80502002AF5D1206850E893
:102C5000050F216820F0400041E80502002AF5D167
:102C6000202084F842000020206300BF206850E844
:102C7000030F216820F0100041E80302002AF5D17B
:102C8000E06BFEF757FA02206063A08DE18D401AD9
:102C900081B22046C0E049067FF588AF13F04001BD
:102CA0003FF484AFC16821F04001C160202120467B
:102CB00084F8411002B0BDE8B04000F085BA606C05
:102CC00040F001006064480706D5BEF1000F03D054
:102CD000606C40F002006064880706D5BEF1000F0A
:102CE00003D0606C40F004006064BCF1000F06D5B6
:102CF0005EEA050003D0606C40F008006064606C20
:102D000000283FF453AF880603D515B1204600F0E4
:102D1000EFFA20684069616C00F0400001F00801A2
:102D2000401848D0206850E8030F216820F49070C4
:102D300041E80302002AF5D1206850E8050F216818
:102D400020F0010041E80502002AF5D1206B01289E
:102D50000AD100BF206850E8030F216820F010005E
:102D600041E80302002AF5D1202084F84200002027
:102D7000206320684069400653D500BF206850E8B2
:102D8000050F216820F0400041E80502002AF5D136
:102D9000E06B002845D043F2F911C0F60001416311
:102DA000FEF7E8F900283FF401AFE06B416B02B099
:102DB000BDE8B04008472046FFF7BEFE0020606433
:102DC00002B0B0BD401A00BF216851E8031F22685D
:102DD00021F4907142E80313002BF5D1216851E8EA
:102DE000051F226821F0010142E80513002BF5D1EF
:102DF000202184F842100021216300BF216851E89E
:102E0000031F226821F0100142E80313002BF5D1C3
:102E1000022281B22046626302B0BDE8B040FFF7F3
:102E200089BE204602B0BDE8B040FFF785BE216AEA
:102E300031F8022B6FF35F2242602162CEE6000080
:102E4000002804BF0120704710B5044690F84100E7
:102E500028B9002084F84000204600F061F82420C2
:102E600084F841002068D4E90212C36823F40053B7
:102E7000C360036923F440531A430261D4E9042375
:102E80001143C268194341F20C639A431143C16074
:102E90004169A26921F44071114343F60002C4F272
:102EA00001029042416102D0FEF710FF01E0FEF7FF
:102EB00021FFD4E90023192148439900B0FBF1F028
:102EC00048F21F5CC5F2EB1CA0FB0C314FF69C7363
:102ED0004909C0F6FF7301FB0300322303EB001026
:102EE000A0FB0C03F02000EA531000EB0110C3F329
:102EF0004311084490601069202120F49040106133
:102F0000506920F02A005061D06840F40050D06031
:102F10000020606484F8411084F84210606310BDA2
:102F2000F0B585B040F600050446C4F2010500681E
:102F300005F54051002788420497CDE902770197B3
:102F400001D005B0F0BD41F21800C4F202000168E2
:102F500001AE41F480410160016801F480410091BB
:102F60000099016841F0040101600068314600F0F9
:102F70000400009000984FF400700190022002902D
:102F8000032004902846FEF707FB4FF48060CDE94C
:102F90000107284631460397FEF7FEFA40F2E005A6
:102FA0004420C2F20005C4F202001021802285E80C
:102FB00083002846C5E90327C5E90577EF61FEF7D9
:102FC000E5F9002818BFFDF76BFC25200021002241
:102FD000A5636C62FEF762FC2520FEF74FFC05B08E
:102FE000F0BD0000704700002DE9F04381B00446B9
:102FF00090F8410020281DD10D4600294FF0010016
:1030000000F0A1801646002A00F09D800020606438
:103010002120984684F84100FEF7BEFBA684E68492
:10302000A1688146B1F5805F01D1206930B12F469A
:10303000002504E0022001B0BDE8F0830027E08C09
:10304000002842D008F101060AE000BF97B117F846
:10305000010B21684860E08C0138E084E08CA0B36B
:10306000206800680006F1D4BEB1B8F1000F0ED19F
:1030700016E000BF35F8020B21686FF35F2048604F
:103080000027E8E701680906E0D4002EFAD0FEF731
:1030900083FBA0EB0900404502D82068F2E700BF9F
:1030A000206850E8030F216820F4D07041E8030243
:1030B000002AF5D1206850E8050F216820F00100B2
:1030C00041E80502002AF5D10AE0206800684006C0
:1030D00035D4B8F1000F1DD018F101050CD012E065
:1030E000202084F8410084F84200002084F8400049
:1030F000032001B0BDE8F083206800BF01684906E5
:103100001DD4002DFAD0FEF747FBA0EB0900404587
:10311000F2D900BF206850E8030F216820F4D07076
:1031200041E80302002AF5D1206850E8050F216824
:1031300020F0010041E80502002AF5D1D0E7202067
:1031400084F84100002001B0BDE8F08370B504466A
:1031500090F8410020281CBF022070BD4FF00100F4
:1031600089B3002A134608BF70BD4FF0000C212020
:103170002162A384E384C4F844C084F84100226837
:10318000A06B43F2A92E43F2E92543F20526C0F6CF
:10319000000EC0F60005C0F600060432C0E90AE5DC
:1031A000C0E90C6CFEF736F920686FF04001016051
:1031B000206850E8050F216840F0800041E80502D2
:1031C000002AF5D1002070BD704700007047000054
:1031D000FEE70000FEE70000FEE700007047000089
:1031E00070470000FEF7DEBA7047000040F26C1036
:1031F000C2F20000FFF776B9406A0021C185C184A0
:10320000FFF79ABC406A0168496990F84120212A79
:1032100011D111F080010ED00021C184016851E864
:10322000031F026821F0C00142E80313002BF5D10F
:10323000202180F841100168496990F84220222A33
:103240002BD111F0400128D00021C185016851E83F
:10325000031F026821F4907142E80313002BF5D19B
:10326000016851E8051F026821F0010142E80513D9
:10327000002BF5D1016B01290AD100BF016851E88B
:10328000031F026821F0100142E80313002BF5D15F
:10329000202180F8421000210163416C41F01001AF
:1032A0004164FFF749BC00000168406A096889066B
:1032B00048BFFFF789BF0021C18400BF016851E802
:1032C000051F026821F0800142E80513002BF5D1AB
:1032D000016851E8031F026841F0400142E803130E
:1032E000002BF5D170470000406AFFF76FBF000068
:1032F00090F84210222918BF70478268B2F5805FAB
:1033000001D1016991B1816AB2F5805F07D00AB934
:10331000026922B10268526802F07F0201E002688D
:1033200052680A70816A0131816207E00168826A2D
:1033300049686FF35F2122F8021B8262C18D013957
:103340000A04C18500D070470168CA6822F02002D3
:10335000CA60CA6822F48072CA604A6922F0010217
:103360004A61202180F8421000214163026B012A4A
:1033700018BFFFF737BE81B0016300BF016851E895
:10338000031F026821F0100142E80313002BF5D15E
:1033900001680A68D20606D5002200920A680092E7
:1033A000496800910099818D01B0FFF7C3BB00000F
:1033B00040F2B410C2F20000FFF7C0BBFEE700000D
:1033C00070B540F61401C4F2010151F8082C40F622
:1033D000144342F0040241F8082C02224FF0400C42
:1033E0004FF0800EC4F2010301240A60C1F800C04E
:1033F000C1F800E01C601A6051F8085C46B245F064
:10340000020541F8085CC5064FF0400558BF4FF46F
:10341000800541F8045C85064FF0800558BF4FF4E5
:10342000000541F8045C45064FF0010558BF4FF414
:10343000803543F8045C0225B6F1FF3FC8BF4FF466
:10344000003543F8045C0A60C1F800C0C1F800E030
:103450001C601A6051F8085C45F0020541F8085CF0
:10346000C5074FF0400508BF4FF4800541F8045CE4
:1034700085074FF0800558BF4FF4000541F8045C04
:1034800045074FF0010558BF4FF4803500074FF056
:10349000020043F8045C58BF4FF4003043F8040CBA
:1034A0000A60C1F800C0C1F800E01C601A6070BD7D
:1034B00070B540F61401C4F20101042240F6144331
:1034C0000A6002224FF0400C4FF0800EC4F201035C
:1034D00001240A60C1F800C0C1F800E01C601A6055
:1034E00051F8085C46B245F0020541F8085CC50693
:1034F0004FF0400558BF4FF4800541F8045C850645
:103500004FF0800558BF4FF4000541F8045C4506B4
:103510004FF0010558BF4FF4803543F8045C022595
:10352000B6F1FF3FC8BF4FF4003543F8045C0A60B2
:10353000C1F800C0C1F800E01C601A6051F8085CD6
:1035400045F0020541F8085CC5074FF0400508BF8B
:103550004FF4800541F8045C85074FF0800558BFA3
:103560004FF4000541F8045C45074FF0010558BFD2
:103570004FF4803500074FF0020043F8045C58BF59
:103580004FF4003043F8040C0A60C1F800C0C1F8E1
:1035900000E01C601A6070BD2DE9F04F83B08246D8
:1035A000FA20CDE90112FDF783FF40F6140440F63E
:1035B0001445C4F20104042002274FF0400B80267A
:1035C000C4F201054FF0010820602760C4F800B084
:1035D0002660C5F800802F6054F8080C4FF480096D
:1035E00040F0020044F8080C4FF4000044F8049C3A
:1035F00044F8040C4FF4803045F8040C4FF40030CC
:1036000045F8040C2760C4F800B02660C5F80080B7
:103610002F6054F8080C4FF4803240F002004FF451
:10362000003144F8080C322044F8049C44F8046C3F
:1036300045F8042C45F8041C2760C4F800B0266047
:10364000C5F800802F60FDF733FF0198029940EA2A
:103650000A00084340F02000FFF72AFF3220FDF760
:1036600027FF4FF0040AC4F800A02760C4F800B098
:103670002660C5F800802F6054F8080C4FF4003124
:1036800040F0020044F8080C4FF4000044F8049C99
:1036900044F8040C4FF4803045F8040C45F8041C41
:1036A0002760C4F800B02660C5F800802F6054F889
:1036B000080C40F0020044F8080C322044F8049C46
:1036C00044F8046C45F8048C45F8041C2760C4F8E1
:1036D00000B02660C5F800802F60FDF7E9FEC4F851
:1036E00000A02760C4F800B02660C5F800802F60F5
:1036F00054F8080C4FF4803A40F0020044F8080CEB
:103700004FF4000044F8049C44F8040C4FF480305B
:1037100045F8040C4FF4003045F8040C2760C4F859
:1037200000B02660C5F800802F6054F8080C40F007
:10373000020044F8080C322044F8049C44F8046C5D
:1037400045F8048C45F8047C2760C4F800B0266076
:10375000C5F800802F60FDF7ABFE042020602760D5
:10376000C4F800B02660C5F800802F6054F8080C3B
:103770004FF4000140F0020044F8080C4FF4003010
:1037800044F8049C44F8041C45F804AC45F8040CC7
:103790002760C4F800B02660C5F800802F6054F898
:1037A000080C4FF4000A40F0020044F8080C3220E4
:1037B00044F8049C44F8041C45F8048C45F8047C47
:1037C0002760C4F800B02660C5F800802F60FDF7C0
:1037D0006FFE042020602760C4F800B02660C5F8A2
:1037E00000802F6054F8080C4FF4803140F0020044
:1037F0004FF4003244F8080C44F8049C44F804AC3C
:1038000045F8041C45F8042C2760C4F800B0266075
:10381000C5F800802F6054F8080C40F0020044F80E
:10382000080C44F804BC44F804AC45F8041C45F802
:10383000042C2760C4F800B02660C5F8008064201E
:103840002F6003B0BDE8F04FFDF732BE10B514464F
:10385000012803D0022806D1BF2000E07F200844C1
:10386000C0B2FFF725FE2078002808BF10BD013C3C
:10387000C0B2FFF7A5FDA07801340028F8D110BD33
:103880009AB0FDF79DFF02AC20462821FCF763FCAF
:10389000022002900120069010200025079020466B
:1038A0001095CDE90E55CDE90C55CDE91855CDE96A
:1038B00016550995FEF732FA18B1EFF3108072B67B
:1038C000FEE70F20CDE90C050CA80021CDE90E552F
:1038D0001095FEF71DF920B1EFF3108072B600BF0E
:1038E000FEE74FF00209002716A8CDF85890189768
:1038F000FEF78EF818B1EFF3108072B6FEE741F2D2
:103900001804CDE90477CDE90277C4F202042068F7
:1039100040F6004840F0200020602068C4F2010812
:1039200000F020000C900C982068A8F5806540F00D
:10393000040020602068C62100F004000C900C9860
:103940002068002240F0080020602068C62600F0B1
:1039500008000C900C982846FDF718FF40464FF2DF
:10396000030100224FF2030AFDF710FF029602AE98
:103970004FF0010B28463146CDE903B7CDF814903E
:10398000FDF70AFE40463146CDE902ABCDE90479A8
:10399000FDF702FE4FF4406002900020C1F21100DA
:1039A000CDE9030740463146FDF7F6FD282000210A
:1039B0000022FDF773FF2820FDF760FF54F8040C88
:1039C000002140F0010044F8040C54F8040C0022DB
:1039D00000F00100029002980E20FDF75FFF0E201C
:1039E000FDF74CFF40F26C10C2F200004FF0804136
:1039F0007C224FF6FF1380E886008021CDE9047712
:103A0000CDE90277CDE90C77C0E903378161FEF794
:103A10009BFB20B1EFF3108072B600BFFEE74FF4BE
:103A20008050029040F26C10C2F2000002A9FEF732
:103A300085FC20B1EFF3108072B600BFFEE71020C6
:103A40000C9040F26C100024C2F200000CA90D94FE
:103A5000FEF746FB18B1EFF3108072B6FEE740F2B6
:103A6000800008F5C057C2F200000494CDE902447A
:103A7000047304754FF46021C0E90074846001246C
:103A8000C1610461FDF7CAF818B1EFF3108072B696
:103A9000FEE740F280060420C2F20006CDE90204EF
:103AA000002402A930460494FCF778FF18B1EFF324
:103AB000108072B6FEE740F2B00008F5E051C2F2A5
:103AC00000004FF4602201250494CDE90244047300
:103AD0000475C261C0E9001484600561FDF79EF8B9
:103AE00018B1EFF3108072B6FEE740F2B000002488
:103AF000C2F2000002A9CDE902450494FCF74EFF92
:103B000018B1EFF3108072B6FEE740F2241008F50A
:103B10000051C2F200004FF6FF73CDE91844CDE921
:103B20001644CDE914441294CDE91044CDE90E4475
:103B3000CDE90C44CDE90844CDE90644CDE904447F
:103B4000CDE90244152280E81600C0E90334C0E93B
:103B50000544FEF7F9FA18B1EFF3108072B6FEE7EC
:103B60004FF48050169040F22410C2F2000016A9C3
:103B7000FEF7E4FB18B1EFF3108072B6FEE740F2F7
:103B80002410C2F20000FEF791FE18B1EFF310808E
:103B900072B6FEE740F224100024C2F2000014A91D
:103BA000CDE91444FEF79CFA18B1EFF3108072B619
:103BB000FEE760200C903220CDE90D0440F2241085
:103BC000C2F200000CA90C22CDE910441294FEF7B9
:103BD0006DFD18B1EFF3108072B6FEE74FF40050A0
:103BE000079040F224100024C2F2000002A90694BB
:103BF000CDE90444CDE902440994FEF749FA18B12D
:103C0000EFF3108072B6FEE740F22410C2F200001B
:103C1000FEF71EFD40F2B41008F53051C2F200006C
:103C20000C234FF4165280E81600C0E90344C0E9A3
:103C30000534C461FFF704F918B1EFF3108072B6D0
:103C4000FEE740F26C10C2F20000FEF737FB0024E2
:103C50004FF46020F061C6E90074012730460494F7
:103C6000CDE9024434733475B4603761FCF7D6FF94
:103C700018B1EFF3108072B6FEE70420CDE9020719
:103C800040F28000C2F2000002A90494FCF786FE14
:103C900018B1EFF3108072B6FEE740F28004C2F272
:103CA00000042046FDF78AF9002000210822FFF7D2
:103CB00073FC40F2B410C2F2000041A12922282373
:103CC000FFF792F940F22410C2F200000C21FEF737
:103CD00051FE2046FCF7EAFD44F68030C0F60000B5
:103CE00042F6882700250138C4F29117CBF6F0750B
:103CF00001900EE06420FDF7DBFB40F28000C2F291
:103D00000000FDF7D1F940F28000C2F20000FDF79B
:103D1000CBF940F28000C2F200004FF47A71FDF757
:103D200087F80028EFD140F28000C2F20000FCF7D3
:103D3000F9FEDDF804A040F224164FF01909C2F292
:103D400000061AF9010FFCF799FB02460B4647F2F1
:103D500031404FF28F31C9F2D920C3F6F07100F033
:103D6000A9F948F200030022C4F27B03FCF7A5FA8C
:103D700002460B4600203946FCF711FB0446D6E903
:103D800000B088460130FCF78AFB02460B4620460D
:103D9000414640F22416C2F20006FCF700FB002266
:103DA0002B46FCF7E3F9FCF787FBCBF82C00F0601F
:103DB0004008B9F10109CBF84000C2D19AE700BF31
:103DC0004D6572686162616C61722C207369636118
:103DD0006B6C696B2062696C67696C6572692067DE
:103DE000656C69796F72200D0A0000000FB4084BF2
:103DF00010B504A902AA039800F0ACF8044602A981
:103E0000002000F051F9204610BC5DF814FB0000C2
:103E1000A9400008490050EAC12018BF04204A0DFB
:103E200018BF40F0010040F2FF72B2EB515F08BFD3
:103E300040F00200012808BF052070472DE9F0413D
:103E40004F1E00EBC7010446D1E9000115461E468E
:103E500037F006020DD02A463346FCF72EFA7F1EB5
:103E600004EBC703D3E90023FCF780F937F006021F
:103E7000F1D1022F25D0042F13D0062F18BFBDE893
:103E8000F0812A463346FCF718FAD4E90A23FCF7F6
:103E90006DF92A463346FCF710FAD4E90823FCF7FB
:103EA00065F92A463346FCF708FAD4E90623FCF7FD
:103EB0005DF92A463346FCF700FAD4E90423FCF7FF
:103EC00055F92A463346FCF7F8F9D4E90223FCF702
:103ED0004DF92A463346FCF7F0F9D4E90023BDE852
:103EE000F041FCF743B90000002213461046014997
:103EF000FCF755BA0000F03FFCF738B90022134632
:103F000010461146FCF74BBA40F2013200204FF048
:103F1000E041FCF794BB0000024A00201107FCF7C7
:103F20008EBB000001FDFFFF02E008C8121F08C1A0
:103F3000002AFAD170477047002001E001C1121F2A
:103F4000002AFBD17047000001490860704700005B
:103F5000040000202DE9FF4F89B09B460446002550
:103F600006E025280BD05A460B999047641C6D1C1F
:103F700020780028F5D10DB02846BDE8F08F002745
:103F8000B8460122474900E0074314F8013F203BAF
:103F900002FA03F00842F7D120782E2819D114F83C
:103FA000010F47F004072A280ED06FF02F02207867
:103FB000A0F1300109290CD808EB880102EB41017E
:103FC00000EB0108641CF2E70A98641C50F8048BAB
:103FD0000A9020780028CED0642808D0692806D01E
:103FE00075281ED05A460B9990476D1C58E00A99C7
:103FF0004FF00A0901C90A91002802DA40422D2136
:1040000002E0390504D52B218DF82010012103E0B1
:10401000F90704D02021F7E78A4608AE0DE0002119
:10402000FAE70A994FF00A0901C90A91F7E74946E8
:10403000FCF761FA303106F8011D0028F7D1ADEB2D
:10404000060000F12009780701D44FF00108C845A7
:1040500002DDA8EB090000E000208046002706E012
:1040600008A85A46C05D0B9990476D1C7F1C5745A8
:10407000F6DB04E030205A460B9990476D1CB8F1EE
:104080000001A8F10108F5DC05E016F8010B5A461D
:104090000B9990476D1CB9F10001A9F10109F4DCFD
:1040A000641C65E7092801000A68531C0B60107046
:1040B000704700002DE9F04D1D460C4694B01746A0
:1040C00021F0004123F00043002814BF4FF0010C01
:1040D0004FF0000C0CEB440CFB4A0CEB02064FEAD1
:1040E000620C66452BD33E0018BF012606EB450641
:1040F0001644F64A964222D3F54A53EA070C02D0F8
:10410000944205D148B914B000201146BDE8F08DA5
:10411000002808BF4FF0000C01D04FF0010C0CEB51
:10412000440212F5001F0AD8002F14BF4FF0010CF3
:104130004FF0000C0CEB450212F5001F07D914B02C
:104140003A462B462146BDE8F04DFFF7D5BE00228A
:10415000DFF880A3002CB8BF534526DADFF878C318
:104160006345A8BF022220DADFF864C39C451CDC4B
:10417000DFF868C30CEB235CBCF1140F08DDCCF155
:10418000340627FA06FC0CFA06F6BE420DD108E00A
:104190005FB9CCF1140623FA06FC0CFA06F69E422F
:1041A00003D10CF00102C2F1020251EA000C19D154
:1041B000002D17DA002C18BF022A01D0012A07D0DF
:1041C0000220FFF7C1FE14B0BDE8F04DFFF78CBE32
:1041D0000220FFF7B9FEFFF787FE14B081F000411F
:1041E000BDE8F08DB7F1000C6CD1534525D104F139
:1041F000804212F5801201BF00280020B44914B09B
:1042000008BFBDE8F08DB248884207DC002DA1BF91
:104210006046294614B0BDE8F08D07E0002DBFBF11
:10422000604685F0004114B0BDE8F08DAC4979449A
:10423000D1E9000114B0BDE8F08DDFF894C2634508
:1042400025D1002D1FDA19B1514512D1D8B909E095
:10425000002840F0F6829F4A214614B062F31E0106
:10426000BDE8F08D0020214614B060F31E01BDE8CA
:10427000F08D08DA14B02346BDE8F04D0246002068
:104280006146FCF78CB814B02146BDE8F08D51456D
:1042900018DAB5F1804F0DD0A5F1005CBCF1FF5CE0
:1042A00010D1B4F1000C0DDB14B06146BDE8F04D47
:1042B00000F0F6BB234614B00246BDE8F04D1946A7
:1042C000FBF7FBBF060024F0004C3BD1D9B15145B0
:1042D00033D1002C06DD002DA1BF0020514614B0C3
:1042E000BDE8F08D002C01DD002D1BDB002C13DA66
:1042F000002D11DB012A4FF0000014BF75497949E8
:1043000014B0BDE8F08D022A18BF002C0AD0012A93
:1043100008D1002C06DA0AE0002CB8BF002D11DA13
:10432000012A04D0002014B00146BDE8F08D14B07D
:1043300000204FF00041BDE8F08DA1F14050B0F1F8
:104340007F601AD0012000EBE47050EA020421D013
:104350005F4C521E4FF0000B104304BF4FF0000B98
:10436000614C624883427DDD614A6248934229DDA7
:10437000884217DB002D2FDB41E0002C00DA4AB128
:10438000022A0CBF01204FF0FF3014B0BDE8F04D01
:10439000FCF774B80120FFF7D7FD14B0BDE8F04D6D
:1043A000FFF7ACBD4A4A8A420CDC002D14DC022027
:1043B000FFF7CAFDFFF7B0FD61F31E0414B02146FC
:1043C000BDE8F08D814202DA002D18DA04E0404B9E
:1043D000994220DD002D12DD0220FFF7B5FDFFF729
:1043E00093FD05460E460022534658462146FBF7EC
:1043F00064FF14B066F31E012846BDE8F08D02206C
:10440000FFF7A2FDFFF788FD0A46214614B062F3CC
:104410001E01BDE8F08D002230466146FBF747FFE4
:10442000064688466FF00102FCF709F94FF0553255
:10443000314BFBF73FFF32464346FBF73EFF00227E
:104440002E4BFBF737FF8A46324643460290104612
:104450001946FBF732FF5346029AFBF72EFF8246BE
:10446000324600E054E0059143464FF0C0402449F5
:10447000FBF723FFCDE90C01224A214B5046059959
:10448000FBF71BFF824601911F4A204B30464146F5
:10449000FBF713FF5246019BFBF709FF82460B46D1
:1044A00002460991DDE90C01FBF760FEDDE90C2312
:1044B000002688463046FBF7FAFE5246099BFBF77A
:1044C000F9FE024600F07EB9FFFF1F00FFFF0F005C
:1044D0000000F03F0000F07F0000404301FCFFFFC0
:1044E000460900000000F0FF0000F0BF0000E041BE
:1044F0000000F043FFFFEF3F5555D53F0000E03F80
:104500004715F73FFE822B6544DF5DF80BAE543E46
:104510000020B1F5801F07DA352230466146FCF7EE
:104520008EF806466FF0340000EB2150A0F2FF3009
:104530000190C1F3130040F07F6141F040510291BE
:10454000FE498842D8BF002004DDFD498142C8BF32
:10455000012001DD0F9008E000200F900198401C21
:1045600001900298A0F5801002900299F5487844D5
:1045700005910F9900EBC1001290D0E9002330465D
:104580000599FBF794FECDE90C011298D0E90023C0
:1045900030460599FBF7EAFD02460B460020EA4942
:1045A000FBF7FDFE0B46CDE908010246DDE90C01F3
:1045B000FBF783FE0A90E5488A464FF000087844EE
:1045C0000299006810904FF0005040EA61010F9886
:1045D00001EB804000F5002112981191D0E90023F1
:1045E0001098FBF764FE3246059BFBF763FE4246DC
:1045F0005346FBF762FEDDE9102306460391404671
:104600005146FBF75AFEDDE90C23FBF753FE324619
:10461000039BFBF74CFEDDE90823FBF74EFE0391FD
:104620000A9A1290534610461946FBF746FE064674
:104630000246C7480B46029106217844FFF7FEFB6D
:10464000029B32460591089010461946FBF735FE4D
:10465000059B089AFBF731FE0646099153464046F2
:1046600019460A9AFBF782FD039B129AFBF725FE77
:104670003246099BFBF77AFDCDE9080142465346D5
:1046800010461946FBF719FE02460B4602910490AC
:104690000020B049FBF76AFDDDE90823FBF766FD62
:1046A0000E464246AB4B4046FBF701FE029B049A86
:1046B000FBF7FDFDDDE90823FBF7FCFD4246049115
:1046C0000290334610465146FBF7F7FDCDE90C0149
:1046D00053460A9A04990298FBF7EFFD824600912F
:1046E0003346424603991298FBF7E7FD5246009B7A
:1046F000FBF73CFD82460B4602460991DDE90C01C1
:10470000FBF734FDDDE90C23002688463046FBF735
:10471000CEFD5246099BFBF7CDFDCDE9080143468E
:1047200032464FF060408C49FBF7C7FD824604914A
:10473000DDE90801894A884BFBF7BFFD0291009033
:104740004346324686488749FBF7B7FD029B009AED
:10475000FBF70CFD844B7B440F9A03EBC203D3E9B8
:104760000023FBF703FD009002910198FBF786FE02
:104770000E9003915046029B009A0499FBF7F6FCB9
:104780007A4A7A440F9B02EBC3030993D3E90023CF
:10479000FBF7ECFC039B0E9AFBF7E8FC88463046DF
:1047A000039B0E9AFBF783FD099BD3E90023FBF7DC
:1047B0007EFD5246049BFBF77AFD029B009AFBF7B5
:1047C00079FD024600200B46029038462946FBF749
:1047D00074FD824603912B4638461946029AFBF730
:1047E00066FD32464346FBF768FD5246039BFBF7E6
:1047F000BDFC07468A463246434629460298FBF7E7
:104800005CFD05460E463A465346FBF7AFFC584A58
:104810008846914221DBA8EB020353EA000210D143
:104820002A463346FBF743FDCDE90310514A524B6C
:1048300038465146FBF79AFCDDE90332FBF716FFD9
:1048400021D20220FFF780FBFFF75EFB0A462146DC
:1048500014B062F31E01BDE8F08D484B28F0004211
:104860009A4210D3464A08EB020353EA00027FF44F
:10487000C6AD2A463346FBF71AFD3A465346FBF7C8
:10488000F5FE7FF6BCAD0022019228F000403D49C4
:104890003D4A01EB2051824223DA481C4FF480113B
:1048A00021FA00F04044394AC0F30A517A44384BA7
:1048B000A1F2FF31CB4020EA0303C0F3130040F420
:1048C0008010C1F11401C84012680190B8F1000FC6
:1048D000BCBF4042019028463146FBF7E8FC054644
:1048E0000E462A46334638465146FBF73FFC4FF00A
:1048F00000084246274B40460391FBF7DEFCCDE91A
:104900000C01254A254B40460399FBF7D6FC029142
:1049100000902A46334640460399FBF7C8FC3A46C6
:104920005346FBF7C7FC1E4A1E4BFBF7C6FC029B17
:10493000009AFBF71BFC0746884635E08E9803007B
:104940007AB60B007E0500000000F03FB6050000BF
:10495000E20400000000084009C7EE3FFD033ADC16
:10496000F5015B14E02F3EBEB60300007A030000A1
:1049700000009040FE822B654715973C00CC90408C
:1049800000346F3F01FCFFFF0000E03FC802000061
:10499000FFFF0F00432EE63F396CA80C615C20BE80
:1049A000EF39FAFE422EE63F02460B46DDE90C01E6
:1049B000FBF7DCFBDDE90C2305460E46FBF777FC35
:1049C0003A464346FBF776FC07462A4633460591AE
:1049D00010461946FBF771FC824602462E4888466F
:1049E0000B4605217844FFF729FA52464346FBF768
:1049F00064FC2A463346FBF75DFC80468A463A460D
:104A000028463146059BFBF758FC3A46059BFBF7C9
:104A1000ADFB0591009000224FF080434046514687
:104A2000FBF745FC0746039142465346284631466C
:104A3000FBF743FC3A46039BFBF7B1FC059B009A4E
:104A4000FBF735FC2A463346FBF731FC0022134BBB
:104A5000FBF730FC054601980E4601EB00510815A6
:104A6000002810DC28463146019AFBF7E8FDFFF7E5
:104A7000D1F9042808BFFFF74FFA28463146019ABA
:104A8000FBF7DDFD05460B4614B02A465846214685
:104A9000BDE8F04DFBF711BC680100000000F03FDD
:104AA0002DE9F04106460F46FBF710FE041E0D46A9
:104AB00018BF0120284320F00040C0F17F6000F1C2
:104AC000E040C00F0ED0301C18BF0120384320F04A
:104AD0000040C0F17F6000F1E040C00F04BF012042
:104AE000FFF732FA20462946BDE8F08100000000B9
:104AF000000000000000F03F000000000000F83F50
:104B000000000000000000000000004003B8E23F89
:104B1000000000000000000006D0CF43EBFD4C3E3B
:104B2000033333333333E33FFFAB6FDBB66DDB3F30
:104B30004D268F515555D53F01411DA96074D13F78
:104B400065DBC9934A86CD3FEF4E454A287ECA3F72
:104B50003E5555555555C53F93BDBE166CC166BFF4
:104B60002CDE25AF6A56113FF16BD2C541BDBBBEED
:104B7000D0A4BE726937663E00000000000000004D
:104B800000000200050400000200070500000C09F7
:104B90000504020A0A0905070500000000000000DC
:104BA00000010203040607080900000000010203D7
:104BB00004010202030405060708090A0B0C0D0E86
:104BC0000F10102564000000E84B000800000020D2
:104BD00078000000283F0008604C000878000020A2
:104BE000C0050000383F0008000000000000000081
:104BF0000024F40048656C6C6F20576F726C640A77
:104C00000D5265642020200000000000000000001C
:104C100000507572706C650000000000000000001C
:104C200000477265656E2000000000000000000073
:104C300000426C75652020000000000000000000AC
:104C400000000000FFFFFFFFFFFF001000200040FA
:104C500000800000FFFFFFFF0100000010000000C7
:04000005080000ED02
:00000001FF
