:020000040800F2
:100000006009002099020008C14B0008CD47000894
:10001000BD4B0008BD150008F555000800000000A4
:10002000000000000000000000000000714C00080B
:10003000D115000800000000314C0008C94C000830
:10004000B3020008B3020008B3020008B3020008BC
:10005000B3020008B3020008B3020008B3020008AC
:10006000B3020008B3020008B3020008B30200089C
:10007000B3020008B3020008C1150008B30200086B
:10008000B3020008B302000861140008B3020008BC
:10009000B3020008B3020008B3020008B30200086C
:1000A000B3020008B3020008B3020008B30200085C
:1000B000514D0008B302000800000000B302000820
:1000C000B30200080000000000000000B3020008B6
:1000D00000000000E5550008B30200080000000021
:1000E000F1150008B3020008B302000800F002F89E
:1000F00000F0A8F814A696E8000CB244B344DA4520
:1001000001D100F09FF8BAE80F000FA696E8300082
:10011000A5EB040504EB0607AAEB0704A7F101070A
:100120004FEA15154FEA3414A4F10104AC4201D38F
:1001300000F088F813F0010F18BFFB1A43F0010319
:1001400000F001F8DBE718477464000094640000D5
:10015000103A24BF78C878C1FAD8520724BF30C8F3
:1001600030C144BF04680C60704700007047000055
:100170000023002400250026103A28BF78C1FBD8B0
:10018000520728BF30C148BF0B6070476E2900F08E
:100190009F81702900F0E182662906F0758165294A
:1001A00006F07281672906F06F81612906F06E8181
:1001B00003681B0A28BF41F08001692900F04C81C7
:1001C000642900F04981752900F046816F2900F00B
:1001D0006F82782900F0AD82E92900F00982E429D4
:1001E00000F00682F52900F00382EF2900F06C820E
:1001F000F82900F0AC820368DB0928BF41F08001D8
:10020000632900F0AD87732900F0B287E32900F07D
:10021000BD87F32900F0C287002070471FB500F0AA
:1002200086F801F011F804000020002106F016F90C
:10023000401C60600020002106F0FAF8E0601FBD5D
:1002400010B510BD00F0D2FF1146FFF7E7FF05F033
:10025000DFFC01F0AFF803B4FFF7F2FF03BC01F0DD
:10026000F9F800000B49D1F800C04A685CF8043B7B
:100270001068184442F8040B8C4528BFA1F1DC0C2F
:100280008A4228BFA1F1DC02C1F800C04A6020F018
:10029000004070473C01002009488047094800475A
:1002A000FEE7FEE7FEE7FEE7FEE7FEE7FEE7FEE726
:1002B000FEE7FEE704480549054A064B7047000083
:1002C0004D4D0008ED00000860030020600900208B
:1002D00060050020600500200FB41CB5084B06AA7D
:1002E0007B4469460090059800F00BF90446002015
:1002F000694600F019F920461CBC5DF814FB0000AB
:10030000450200000B4910B5A1F17C020A4CC2E97C
:100310003712372106E000EB104342F82130074B3B
:1003200000FB03400B1EA1F10101F4DC10BD012014
:10033000E8E70000DC000020E119D666CD0D0100E1
:100340004FF0000200B5134694469646203922BF6E
:10035000A0E80C50A0E80C50B1F12001BFF4F7AFB9
:10036000090728BFA0E80C5048BF0CC05DF804EB9B
:10037000890028BF40F8042B08BF704748BF20F809
:10038000022B11F0804F18BF00F8012B7047704707
:100390007047704770B5044685690068C10601D58D
:1003A000302600E02026C00707D070BDD4E9012127
:1003B00030469047206A401C20626D1EF6D570BD05
:1003C00070B5044685690078C00707D170BDD4E9CF
:1003D000012120209047206A401C20626D1EF6D526
:1003E00070BD09684A0501D540B27047C905FCD502
:1003F00000B2704709684A0501D5C0B27047C90507
:10040000FCD580B2704770B50C460546012A05D070
:100410002878800600D5EA69002302E0012305E080
:100420005B1C934202D2E05C0028F9D1A869E6186F
:10043000C01AA861286A184428622846FFF7AAFF54
:1004400004E0D5E9012114F8010B9047B442F8D338
:100450002846FFF7B5FF70BD2DE9F04106460024A0
:1004600010687529314616A510D0FFF7BAFF00288D
:1004700002DA404213A507E031688A0701D512A5C8
:1004800002E0490704D511A5012401E0FFF7B2FFFE
:1004900000210A2206F1240709E0B0FBF2FCB0FBC0
:1004A000F2F302FB1C00303078541846491C002837
:1004B000F3D123462A463046BDE8F04100F061BA48
:1004C000000000002D0000002B00000020000000B4
:1004D00011680268006A530501D508700AE0D30567
:1004E00001D5088006E0130603D5C217C1E9000252
:1004F00000E008600120704701694A1C0261087829
:10050000704700B58FB0CDE9013100210591054953
:100510007944CDE903101146684600F029F90FB07F
:1005200000BD0000E5FFFFFF0A6802F8010B0A604A
:10053000704700002DE9FF5F15468A460446DFF844
:10054000AC80F8440027D8E900103E46CDE9001001
:1005500010E03AF816106A4602A800F023FE411C8B
:1005600007D02178890603D5E269391891420DD860
:100570000744761C2078800602D5E069B84205DD84
:10058000AE42E6DB3AF816000028E2D1A069C01BB3
:10059000A0612046FFF7FEFED8E90010CDE900106B
:1005A000002017E03AF818106A4602A800F0FAFD99
:1005B000B0F1FF3F81460BD000250DF1080B05E09F
:1005C000D4E901211BF8050090476D1C4D45F7D378
:1005D00008F10100B0428046E4DB206A3844206222
:1005E0002046FFF7EDFEBDE8FF9F00004A5F0000D8
:1005F0002DE9F0418046D21D22F007020025D2E904
:100600000002F52915A614D0011E72F1000106DAC8
:100610000023D0EB030063EB020211A608E0D8F838
:1006200000108B0701D50FA602E0490701D50EA6E1
:1006300001251146002408F1240704E000F05CF9CC
:1006400030323A55641C50EA0102F7D12B4632464B
:1006500021464046BDE8F04100F093B9000000009B
:100660002D0000002B0000002000000030B400210D
:1006700000F1240408E002F00705D208303542EA10
:100680004372DB086554491C52EA0305F3D1046840
:10069000002310A2250708D504F020040C4304D041
:1006A000C46901230CA2641EC46130BC00F069B9A6
:1006B00010B5044621461068FFF79CFE024620460E
:1006C000BDE810400023D1E7D21D22F00701D1E997
:1006D0000023CBE70000000030000000F0B40D461E
:1006E0000188090502D5214C7C4402E01F4C7C4462
:1006F0000E34002100F1240608E002F00F07120971
:10070000E75D42EA03721B097754491C52EA03076A
:10071000F3D102780023120704D5702D06D009B159
:10072000022311342246F0BC00F02BB9012310340F
:10073000F8E770B504460D4621461068FFF75AFEEB
:10074000024629462046BDE870400023C6E7D21D78
:1007500022F00703D3E90023C0E70368126843F0DF
:10076000200303600823C3610023B7E7AC5D0000EA
:100770002DE9F05F894604464FF0000ADFF874B1B6
:10078000FB44C0F820A02046E1688847002874D0C8
:10079000252806D0D4E901219047206A401C206218
:1007A000F1E700265F462046E16888472028054695
:1007B00007DB312D05D2781910F8200C08B106435B
:1007C000F1E7B00701D526F00406C4F81CA0002705
:1007D000C4F818A02A2D09D0284605F021FE38B308
:1007E00004EB8708303DC8F8185019E059F8041B8D
:1007F000204604EB87029161E1688847012F054696
:1008000018D1E069002820DA26F020061DE0D8F88B
:10081000180000EB800005EB40003038C8F81800E5
:100820002046E1688847054605F0FAFD0028EED12C
:10083000012F0AD02E2D08D12046E16888477F1C61
:100840000546022F46F02006C4DBA069002803DA23
:10085000404246F00106A061F00701D026F01006E4
:100860006C2D0BD0682D09D04C2D39D06A2D35D088
:10087000742D35D07A2D33D016E038E0E1682F465C
:1008800020468847B842054609D16C2F26D04FF440
:100890008060E168064320468847054604E06C2FE7
:1008A0001AD04FF4807006430DB3A5F1410019280A
:1008B00002D8203546F400664A462946204626607E
:1008C0004E46FFF763FC80B101280BD0F61D26F0E1
:1008D000070000F1080956E74020E4E78020D8E748
:1008E0000020D6E706F104094DE7284652E7206AC2
:1008F000BDE8F09F3C5D000030B5B0F10A0271F137
:1009000000034FEA900E4EEA817EB0EB0E0061EBE1
:1009100091014FEA101E4EEA017E10EB0E0041EBF2
:1009200011114FEA102E4EEA016E10EB0E0041EB52
:1009300011214FEA104E4EEA014E10EB0E0041EB32
:100940001141401841F100014FEAD00040EA4170E6
:100950004FEAD1014FEA810444EA907410EB80051C
:1009600044EB01046D1944EB0404521BA3414FF006
:10097000000348BF0A3200D530BD401C41F10001E0
:1009800030BD2DE9F0470D4699469246044600F1E8
:1009900024080168880604D5E06921F0100121606F
:1009A00000E00120A84201DD471B00E00027A1690B
:1009B0007A1902EB0900081AA0612078C00602D457
:1009C0002046FFF7E7FC002608E0D4E901211AF8E9
:1009D00006009047206A401C761C20624E45F4DBDE
:1009E0002078C0060AD52046FFF7D4FC06E0D4E9FB
:1009F000012130209047206A401C2062381EA7F158
:100A00000107F4DC07E0D4E9012118F8050090475C
:100A1000206A401C2062281EA5F10105F3DC204657
:100A2000FFF7CEFC2078000602D50220BDE8F08753
:100A30000120FBE72DE9FF4F0C461E464FF0FF3724
:100A40008BB0D2E90001DDF860800A908A46C1F3DC
:100A50000A5505B93D46002108464FF00000BAF19D
:100A6000000F00F4400005DA00EB80004FF4400175
:100A700001EA50004FEA9059B9F1010F00DDB94683
:100A80000A9850EA4A000ED044F61050A5F2FF35FD
:100A900045432F14B8F1000F1ED07542291E1EDDEC
:100AA000C9F100021CE0B8F1010F4FF0000001D0C5
:100AB000302103E0F24305E02154401CB042FBDB4F
:100AC00030460022002121540B99C1F80880C1E969
:100AD00000200FB0BDE8F08FBD1B6D1CDEE74A465D
:100AE00000DA694206A800F0F3FB06AB93E80700C2
:100AF00003AB83E8070050460A9905F0B5F88DE886
:100B00000700A0F500501F3800900398002D0ADD63
:100B100042F21F014A460844002303A90390684695
:100B200005F01EFB09E0A0F500504A461F380023DF
:100B300003A90390684605F028FB8DE80700000430
:100B4000000C03D04FF0FF30410800E01046B8F130
:100B5000000F03D00022009215461EE0751E05D43A
:100B6000FFF7CAFE303262556D1EF9D5B346012239
:100B7000084302D000227F1C04E02078302801D1F5
:100B800000227F1E002A099784D01DE0112D07DA6C
:100B9000FFF7B2FE303262556D1C50EA0102F5D10A
:100BA000084302D00098C8B10EE00021681E05E09D
:100BB000235C625C63542254401E491C8142F7DB73
:100BC000AB46A81B401E0990002004F80B000B98B0
:100BD000099AC0F80880C0E9002B7AE711264FF087
:100BE000000857E72DE9F04F88460446D21D22F051
:100BF000070191B0D1E90001CDE90A0105F0FCFB44
:100C000002460B98C00F01D02D2007E02068810715
:100C100001D52B2002E0202101EAC000032A09901F
:100C200001D0072A05DB03464146204600F010FBB1
:100C30000BE12078800601D5E06900E00620B8F1DC
:100C4000650F814606D0B8F1660F18D0B8F1670F6E
:100C500070D131E00020B9F1110F009001DB1123B8
:100C600001E009F101030AAA01A90CA8FFF7E2FEBD
:100C7000DDE90C70002609F10105834647E00120FB
:100C80004B4600904FF000470AAA01A90CA8FFF7B5
:100C9000D1FEDDE90DB00C995D46002610B909F1D1
:100CA00001000D18B9EB050003D4C0F1FF3609F1BE
:100CB0000105A5EB09002BE0B9F1010F01DA4FF0B6
:100CC00001090020B9F1110F0090484601DD112300
:100CD00000E003460AAA01A90CA8FFF7ABFEDDE974
:100CE0000C704D4600268346207800070AD4AB4599
:100CF00000DA5D4601A8012D04DD411911F8011C3F
:100D0000302907D04F4502DA17F1040F04DA012029
:100D100082460FE06D1EEEE7002F02DCED1B3E4425
:100D200003E0781CA84200DD7D1CB81B00F1010A1D
:100D30004FF000472078000703D4AA4501DB4FF0AD
:100D4000FF3A0021B7F1004F0DF143088DF8431031
:100D500024D002202B23002F01DA7F422D230A21E9
:100D6000021EA0F1010000DC5FB197FBF1FC97FBD4
:100D7000F1F201FB1C7C17460CF1300C08F801CD98
:100D8000EEE7A8F1010003702188090501D545218E
:100D900000E06521A0F1010800F8011C09980FA9E5
:100DA000A1EB0807FF1D00B10120411901EBEA701A
:100DB000A1693844081A401EA0612078C00602D4F8
:100DC0002046FFF7E7FA099828B1D4E901219047B6
:100DD000206A401C20622078C00622D52046FFF7FA
:100DE000D9FA1EE0002E04DBB34502DD01A8805DC8
:100DF00000E03020D4E901219047206A401C2062A5
:100E0000761CAAF101005FEA000A0AD100F01CFA80
:100E1000C0680168405CD4E901219047206A401C09
:100E20002062281EA5F10105DCDC07E0D4E90121E0
:100E300018F8010B9047206A401C2062381EA7F169
:100E40000107F3DC2046FFF7BBFA032011B041E6AF
:100E50002DE9F04F04460D46D21D22F0070089B05F
:100E6000D0E900974846394605F0C6FA0246F80F21
:100E700001D02D2307E02068810701D52B2302E054
:100E8000202101EAC0038DF820300BB1012000E0E1
:100E90000020032A824601D0072A04DB2946204687
:100EA00000F0D6F93FE12078800601D40D2500E05E
:100EB000E569C7F30A560D2D49DA00214FEA175BA1
:100EC00008464FF00000002F00F4400007DA00EB66
:100ED00080004FF4400100EBD07001EA6000811502
:100EE000012901DD4FF0FF3100224FEA850CBCF1F2
:100EF000180F06D31346ACF118004FF08052C240D1
:100F000003E04FF4801323FA0CF30CF10C0CBCF14A
:100F1000200F04D3ACF1200C09FA0CF001E007FA21
:100F20000CF000294FF0004801DD18B90FE00ED198
:100F300040450CD319EB02095F4121B9404502D16C
:100F40009F4329EA0209BBEB175F00D0761C20887B
:100F5000000502D57B48784402E07A487844193885
:100F600008AA302302F80A30037C0AF10101002E9E
:100F70000AF1020A53546A4602DC4FF0300101E0E4
:100F80004FF031014FF001088DF8001002D0A6F2A9
:100F9000FF3603E059EA470100D06B4E002D02DC1A
:100FA0002178090704D54FF002082E218DF8011091
:100FB000C44600210BE0C7F303433F01C35C491C57
:100FC0006D1E02F80830052908F1010801DA002D2C
:100FD000F1DC00210CE000EB1973491C1B786D1E3D
:100FE000082902F808304FEA091908F1010801DA66
:100FF000002DF0DC21688B0602D516E0A8F101086F
:10100000E04505DD02EB080313F8013C302BF5D079
:10101000B8F1000F09DD02EB080313F8013C2E2B99
:1010200003D1090701D4A8F10108002D05DD3E21F7
:1010300002F808106D1E08F10108407C002E02F82D
:10104000080008F1010804DA2D20764202F80800B1
:1010500002E02B2002F808000A214FF47A70864241
:1010600008F101080BDB96FBF0F3303302F808308F
:1010700096FBF0F308F1010800FB136601E0642E13
:101080000CDB642096FBF0F3303302F8083096FB5B
:10109000F0F308F1010800FB136601E00A2E06DBFD
:1010A00096FBF1F0303002F8080008F1010896FBD9
:1010B000F1F001FB1060303002F80800A16908F17E
:1010C000010808EB050202EB0A00081AA06120786B
:1010D000C00602D42046FFF75DF9216A08AE01EB95
:1010E0000A00206204E0D4E9012116F8010B9047C0
:1010F000BAF1010AF7D22078C00602D52046FFF7E0
:1011000049F96E4609E016F8010B3E280FD0D4E9E4
:1011100001219047206A401C2062B8F10108F2D2F8
:101120002046FFF74DF909B00320BDE8F08F206A93
:101130002844206203E0D4E90121302090476D1E4D
:10114000EBD3F8E78A55000002FCFFFF10B54369B6
:1011500013B1AFF3008001E0FFF755F9012010BD96
:10116000127800F124010A7000224A700122EDE792
:1011700011684FF0FF32E9E710B5436913B1AFF3DF
:10118000008001E0FFF7D6F9012010BD128800F1C0
:10119000240182840022C2840122EDE711684FF00D
:1011A000FF32E9E72DE9F04116460C46054600F00E
:1011B00043F8036893F80101012807D0FF2C12D8E7
:1011C000185D80B101202C70BDE8F081D3F80701D3
:1011D0003246214603F20713C7182846BC46BDE82D
:1011E000F041002360474FF0FF30EDE7754600F017
:1011F000EBF8AE4605006946534620F007008546E9
:1012000018B020B5FFF756F8BDE820404FF00006B3
:101210004FF000074FF000084FF0000BAC46ACE871
:10122000C009ACE8C009ACE8C009ACE8C00921F0CD
:1012300007018D467047000010B500F005F8001D4D
:1012400010BD00BF19520000004870476401002023
:101250002DE9F0411F46044603260168072A01F4E0
:10126000006004DB08B116A505E016A503E008B18F
:1012700015A500E015A521F010002060A069C01E92
:10128000A0610FB1401EA0612046FFF783F84FB167
:10129000D4E9012138469047206A401C2062C01CD6
:1012A000206206E0206AFAE7D4E9012115F8010B73
:1012B0009047761EF8D22046FFF782F8BDE8F0810D
:1012C0004E414E006E616E00494E4600696E6600EA
:1012D0002DE9F047814616468AB0354878440DC856
:1012E0008DE80D0032487844801C03AC0DC884E8BA
:1012F0000D0041F69B300844372190FBF1F290FB42
:10130000F1F5A5F1800501FB12041B3C02D56442F6
:10131000012000E00020DFF898A080460027FA4472
:10132000AAF1BE0A0EE0E0070AD03246684607EB93
:10133000470101230AEB810104F027FF8DE8070034
:1013400064107F1C002CEED1194F7F44AE3F19E092
:10135000E80715D007EB04100DF1180A90E80E000D
:101360008AE80E00C068F04201D198190890324610
:10137000012306A903A804F008FF03AB83E80700D4
:101380006D10641C002DE3D14FF001033246694615
:10139000B8F1000F03A802D004F0E2FE01E004F06F
:1013A000F4FEC9E90001C9F808200AB0BDE8F087D9
:1013B0009452000010B50446AFF300802046BDE80B
:1013C0001040FEF748BF000000487047440100206D
:1013D0004FF0013C50F8042B51F8043B9A4221D1C4
:1013E000A2EB0C03934313EACC1317D150F8042B50
:1013F00051F8043B9A4215D1A2EB0C03934313EA34
:10140000CC130BD150F8042B51F8043B9A4209D16C
:10141000A2EB0C03934313EACC13DBD04FF0000094
:10142000704700BFD01A01BAB1FA81F101F018017A
:1014300022FA01F0CB40DBB2C0B2C01AC1F12001E8
:101440002CFA01F3D11A914311EAC311E6D1704786
:101450007047000001491820ABBEFEE726000200DD
:1014600080B540F2AC10C2F2000000F02DFA40F25C
:10147000DC10C2F2000000F027FA80BD80B584B015
:10148000029000200190029800688068C00770B345
:10149000FFE702980168886820F00100886001F089
:1014A0002BFA0190FFE7029800688068C007E8B156
:1014B000FFE701F021FA0199401A032815D3FFE74D
:1014C000029800688068C00770B1FFE70299886AD7
:1014D00040F0100088620299C86A40F00100C862BA
:1014E00001208DF80F0006E0FFE7DCE7FFE70020B2
:1014F0008DF80F00FFE79DF80F0004B080BD0000DD
:1015000080B584B00290002001900090029800689D
:101510008068C007002849D1FFE702980168886801
:1015200040F00100886040F20000C2F20000006854
:101530004DF68361C4F21B31A0FB0110800C0090BA
:10154000FFE7009820B1FFE7009801380090F8E726
:1015500001F0D2F90190FFE7029800688068C007A7
:1015600018BBFFE701F0C8F90199401A03281BD303
:10157000FFE7029800688068C007A0B9FFE70299FA
:10158000886A40F0100088620299C86A40F0010041
:10159000C862FFE70299002081F82400FFE70120DC
:1015A0008DF80F0006E0FFE7D6E7FFE700208DF893
:1015B0000F00FFE79DF80F0004B080BDFFE7FEE7D6
:1015C00080B540F20C20C2F2000000F083FD80BD27
:1015D0007047000081B00090FFE7009828B1FFE756
:1015E000FFE7009801380090F7E701B0704700006E
:1015F00080B54FF4806000F0C9FF4FF4006000F048
:10160000C5FF80BD81B0EFF3108072B60090FFE798
:10161000FEE7000081B0009001B0704785B00390F4
:10162000029100208DF807000090FFE7039890F8E2
:101630002400012804D1FFE702208DF81300C3E045
:101640000399012081F82400FFE7FFE70298406832
:10165000062812D8FFE703980068406B029A1168C9
:10166000526802EB8202053A1F239340984391404F
:10167000084303990968486329E0029840680C28E8
:1016800012D8FFE703980068006B029A116852684D
:1016900002EB8202233A1F23934098439140084370
:1016A00003990968086311E003980068C06A029A08
:1016B0001168526802EB8202413A1F23934098431B
:1016C0009140084303990968C862FFE7FFE7029861
:1016D00000680A2812D3FFE703980068C0680299DF
:1016E0000A68896802EB42021E3A07239340984336
:1016F0009140084303990968C86010E003980068A6
:10170000006902990A68896802EB42020723934044
:10171000984391400843039909680861FFE70298DC
:101720000068102805D0FFE702980068112840D112
:10173000FFE70398006842F20041C4F201018842C9
:101740002DD1FFE70398006880680002002825D4A7
:10175000FFE703980168886840F4000088600298F9
:101760000068102819D1FFE740F20000C2F2000023
:1017700000684DF68361C4F21B31A0FB0110800CA0
:1017800000EB800040000090FFE7009820B1FFE7E9
:10179000009801380090F8E7FFE7FFE708E00399B9
:1017A000886A40F02000886201208DF80700FFE77A
:1017B000FFE7FFE70399002081F82400FFE79DF889
:1017C00007008DF81300FFE79DF8130005B0704780
:1017D00080B584B003900020ADF80A00039800F0B3
:1017E0006BF8ADF80A00BDF80A0040F25451884287
:1017F00007DCFFE73F20ADF808004FF223400190DF
:1018000015E0BDF80A0040F2C161884207DCFFE73D
:101810005F20ADF808004FF22340019006E0F92068
:10182000ADF808004FF6FF100190FFE7FFE7BDF8A5
:10183000080040F24801C2F200010988884209D13B
:10184000FFE7019840F24401C2F2000109688842B2
:1018500029D0FFE7BDF8081040F29820C2F200003E
:10186000009041600199C16002F0D0F8009801F049
:10187000A7FF08B1FFE7FFE740F29820C2F200009F
:1018800002F02AF808B1FFE7FFE7BDF8080040F2D0
:101890004801C2F200010880019840F24401C2F2FE
:1018A00000010860FFE7BDF80A0040F25801C2F2EB
:1018B0000001088004B080BD81B0009000980068ED
:1018C000C06C01B07047000080B584B003900398ED
:1018D00000680068029003980068406801909DF8D5
:1018E00004008006002841D5FFE79DF80800800726
:1018F00000283AD5FFE70398806AC006002806D47E
:10190000FFE70399886A40F400708862FFE7039854
:101910000068806800F46020B0F5602F1CD1FFE7FC
:101920000398007BC0B9FFE703980168486820F07E
:10193000200048600399886A20F4807088620398C8
:10194000806AC004002806D4FFE70399886A40F043
:1019500001008862FFE7FFE70398FFF739FF03986C
:1019600001686FF012000860FFE7FFE79DF80400D0
:101970000006002851D5FFE79DF808004007002821
:101980004AD5FFE70398806AC006002806D4FFE71F
:101990000399886A40F400508862FFE70398006862
:1019A000806800F4E040B0F5E04F14D0FFE7039802
:1019B000006840684005002825D4FFE703980068C8
:1019C000806800F46020B0F5602F1CD1FFE7039819
:1019D000007BC0B9FFE703980168486820F08000E9
:1019E00048600399886A20F4805088620398806A6E
:1019F000C005002806D4FFE70399886A40F001007B
:101A00008862FFE7FFE70398FFF704FE0398016889
:101A10006FF00C000860FFE7FFE79DF80400400648
:101A2000002814D5FFE79DF80800C00770B1FFE754
:101A30000399886A40F480308862039800F014F9B2
:101A4000039801686FF001000860FFE7FFE704B04A
:101A500080BD000080B588B0069000208DF817008A
:101A6000049003900290069820B9FFE701208DF8BA
:101A70001F00F4E00698806830B1FFE70698007D0B
:101A800008B1FFE7FFE7FFE70698806A50B9FFE774
:101A900006990020C862069981F82400069800F093
:101AA000E7F8FFE70698FFF7E9FC8DF817000698BE
:101AB000806AC006002800F1C480FFE79DF8170087
:101AC000002840F0BE80FFE70698806A40F00200E0
:101AD00020F488500699886206994868CA691043BC
:101AE000097B40EA41010398084303900698816806
:101AF0000120B1F5807F019008D0FFE7069880684B
:101B00000138B0FA80F040090190FFE7019904988C
:101B1000CA0740F48071002A18BF0846049006984E
:101B2000007D01281ED1FFE70698007B70B9FFE712
:101B3000069881694EF20000CFF6FF7000EB41304D
:101B40000499084340F4006004900AE00699886A0A
:101B500040F0200088620699C86A40F00100C8621F
:101B6000FFE7FFE706980068406820F469400499A1
:101B700008430699096848600698006880684FF233
:101B8000FD71CFF6E1710840039908430699096891
:101B90008860069881680120B1F5807F009008D0A8
:101BA000FFE7069880680138B0FA80F0400900909D
:101BB000FFE7009800F00100002818BF4FF4807084
:101BC000B0F5807F09D1FFE7069801690020CFF6C4
:101BD000F07000EB01500290FFE706980068C06AC1
:101BE00020F470000299084306990968C8620698B3
:101BF0000068806840F6FE61CFF61F7108400399C7
:101C000088420CD1FFE706990020C8620698806AD6
:101C100040F0010020F002000699886210E006986A
:101C2000806A40F0100020F0020006998862069950
:101C3000C86A40F00100C86201208DF81700FFE774
:101C400008E00699886A40F01000886201208DF84B
:101C50001700FFE79DF817008DF81F00FFE79DF8BC
:101C60001F0008B080BD000081B0009001B0704737
:101C700080B58CB00B9000200A90099008900790D6
:101C80000B98006842F20041C4F20101884233D14E
:101C9000FFE7FFE741F21800C4F20200016841F4D7
:101CA00000710160006800F4007006900698FFE77C
:101CB000FFE741F21800C4F20200016841F004019C
:101CC0000160006800F0040005900598FFE710200F
:101CD00007900320089040F60000C4F2010007A915
:101CE00000F070FC122002900022114600F0A0FECD
:101CF000029800F093FE3CE00B98006842F6000169
:101D0000C4F20101884233D1FFE7FFE741F2180036
:101D1000C4F20200016841F480610160006800F4CF
:101D2000806004900498FFE7FFE741F21800C4F2D6
:101D30000200016841F004010160006800F0040045
:101D400003900398FFE7012007900320089040F6D6
:101D50000000C4F2010007A900F034FC1220019039
:101D60000022114600F064FE019800F057FEFFE7E4
:101D7000FFE70CB080BD000080B584B00290002069
:101D80008DF80700FFE7029890F82400012804D19D
:101D9000FFE702208DF80F00CBE00299012081F8C7
:101DA0002400FFE7FFE70298FFF7AAFB8DF8070082
:101DB0009DF80700002840F0B080FFE70298806A95
:101DC00040F4807040F6016188430299886202986D
:101DD000006842F60001C4F20101884209D1FFE720
:101DE00042F20440C4F20100006810F4702F03D0E6
:101DF00018E00020B0B9FFE70299886A20F480104B
:101E000088620298006840684005002809D5FFE70D
:101E10000298806A40F4805020F400500299886251
:101E2000FFE72CE00299886A40F4801088620298EB
:101E3000006842F20041C4F20101884209D0FFE784
:101E40000298006842F60001C4F20101884209D1FB
:101E5000FFE742F20440C4F2010000684005002898
:101E600003D40BE0012048B9FFE70298806A40F4F0
:101E7000805020F4005002998862FFE7FFE7029843
:101E8000806AC004002806D5FFE70299C86A20F0DE
:101E90000600C86203E002990020C862FFE7FFE77E
:101EA0000299002081F82400FFE7029801686FF092
:101EB0000200086002980168486840F0200048600D
:101EC00002980068806800F46020B0F5602F1CD193
:101ED000FFE70298006842F60001C4F2010188425F
:101EE00009D1FFE742F20440C4F20100006810F497
:101EF000702F03D009E0002038B9FFE7029801688D
:101F0000886840F4A000886006E00298016888684C
:101F100040F480108860FFE706E0FFE702990020A8
:101F200081F82400FFE7FFE79DF807008DF80F0018
:101F3000FFE79DF80F0004B080BD000083B0019062
:101F400000208DF80300019890F8210002280DD0A0
:101F5000FFE7019904208863FFE70199002081F8D9
:101F60002000FFE701208DF80B0021E001980168B7
:101F7000086820F00E00086001980168086820F0E9
:101F8000010008600198C16B026C0120904048601C
:101F9000FFE70199012081F82100FFE70199002066
:101FA00081F82000FFE79DF803008DF80B00FFE7A4
:101FB0009DF80B0003B0704780B588B007900020F3
:101FC0008DF81B00079890F82100022807D0FFE742
:101FD00007990420886301208DF81B0076E007989C
:101FE0000168086820F00E0008600798016808681A
:101FF00020F001000860079800680821C4F202017F
:10200000884203D1FFE70120059047E00798006868
:102010001C21C4F20201884203D1FFE71020049082
:1020200039E0079800683021C4F20201884204D1E7
:10203000FFE74FF4807003902AE00798006844217E
:10204000C4F20201884204D1FFE74FF480500290AD
:102050001BE0079800685821C4F20201884204D1AD
:10206000FFE74FF4803001900CE0079801686C2284
:10207000C4F202024FF08070914208BF4FF480100A
:102080000190FFE701980290FFE702980390FFE7B5
:1020900003980490FFE704980590FFE70598042152
:1020A000C4F2020108600799012081F82100FFE7CE
:1020B0000799002081F82000FFE70798406B20B1C6
:1020C000FFE70798416B8847FFE7FFE79DF81B0094
:1020D00008B080BD80B58EB00D900D98C06B0068C3
:1020E0000C900D98006800680B900C980D99096C85
:1020F000C8404007002875D5FFE79DF82C00400731
:1021000000286FD5FFE70D9800680068800600285A
:1021100007D4FFE70D980168086820F00400086004
:10212000FFE70D9800680821C4F20201884203D13C
:10213000FFE704200A9047E00D9800681C21C4F2D4
:102140000201884203D1FFE74020099039E00D9851
:1021500000683021C4F20201884204D1FFE74FF445
:10216000806008902AE00D9800684421C4F20201C2
:10217000884204D1FFE74FF4804007901BE00D98A0
:1021800000685821C4F20201884204D1FFE74FF4ED
:10219000802006900CE00D9801686C22C4F20202C7
:1021A0004FF08060914208BF4FF480000690FFE737
:1021B00006980790FFE707980890FFE708980990AE
:1021C000FFE709980A90FFE70A980421C4F2020188
:1021D00008600D98C06A20B1FFE70D98C16A884772
:1021E000FFE7B8E00C980D99096CC84080070028FB
:1021F00040F18080FFE79DF82C008007002879D50A
:10220000FFE70D9800680068800600280BD4FFE700
:102210000D980168086820F00A0008600D990120F7
:1022200081F82100FFE70D9800680821C4F202013F
:10223000884203D1FFE70220059047E00D9800682F
:102240001C21C4F20201884203D1FFE72020049040
:1022500039E00D9800683021C4F20201884204D1AF
:10226000FFE74FF4007003902AE00D9800684421C6
:10227000C4F20201884204D1FFE74FF400500290FB
:102280001BE00D9800685821C4F20201884204D175
:10229000FFE74FF4003001900CE00D9801686C22CC
:1022A000C4F202024FF00070914208BF4FF40010D8
:1022B0000190FFE701980290FFE702980390FFE783
:1022C00003980490FFE704980590FFE70598042120
:1022D000C4F202010860FFE70D99002081F8200098
:1022E000FFE70D98806A20B1FFE70D98816A884763
:1022F000FFE72FE00C980D99096CC84000070028F3
:1023000027D5FFE79DF82C000007002821D5FFE71F
:102310000D980168086820F00E0008600D98C26BE7
:10232000016C012000FA01F151600D9988630D994B
:1023300081F82100FFE70D99002081F82000FFE7D8
:102340000D98006B20B1FFE70D98016B8847FFE700
:10235000FFE7FFE7FFE70EB080BD000083B001900C
:1023600000200090019820B9FFE701208DF80B00B4
:1023700047E0019908684FF6F872CBF6FD721044F9
:102380004CF6CD42CCF6CC42A0FB02026FF003002B
:1023900000EA9200086401990020C4F20200C863B8
:1023A0000199022081F821000198006800680090DE
:1023B000009843F6F0718843009001994868D1F87D
:1023C00008C0CB680A6940EA0C00184310434A6908
:1023D00010438A691043C96901430098084300907B
:1023E0000098019909680860019900208863019AA2
:1023F000012182F82110019981F820008DF80B004D
:10240000FFE79DF80B0003B07047000080B584B073
:10241000039000F071FA0290039801900198013046
:1024200048B1FFE740F25A00C2F20000017801987B
:1024300008440190FFE7FFE700F05EFA0299401AB6
:102440000199884201D2FFE7F6E704B080BD0000A1
:1024500081B0ADF80200BDF80200B0F5006F46D1C2
:10246000FFE740F22830C2F20000006840F2A411F9
:10247000C2F200010968884215D1FFE740F2A810B6
:10248000C2F20000006870B9FFE740F22C31C2F2DE
:10249000000108680130086040F2A811C2F2000192
:1024A0000120086022E040F22830C2F200000068FB
:1024B00040F2A411C2F200010968884215D0FFE77A
:1024C00040F2A810C2F20000006870B9FFE740F2C5
:1024D0002C31C2F2000108680138086040F2A811EE
:1024E000C2F2000101200860FFE7FFE7FFE7BDF847
:1024F0000200B0F5806F46D1FFE740F22830C2F20B
:102500000000006840F2A411C2F20001096888428C
:1025100015D1FFE740F2A810C2F20000006870B9C0
:10252000FFE740F23031C2F2000108680130086074
:1025300040F2A811C2F200010120086022E040F23E
:102540002830C2F20000006840F2A411C2F200017B
:102550000968884215D0FFE740F2A810C2F20000D7
:10256000006870B9FFE740F23031C2F2000108683C
:102570000138086040F2A811C2F200010120086091
:10258000FFE7FFE7FFE701B07047000080B582B0CA
:10259000ADF8060040F21440C4F201000068BDF836
:1025A000061008420CD0FFE7BDF8060040F21441C7
:1025B000C4F201010860BDF80600FFF749FFFFE71C
:1025C00002B080BD8FB00E900D9100200C9008904D
:1025D000FFE70D9800680C99C840002800F0718151
:1025E000FFE70C99012088400B900D9800680B992B
:1025F00008400A900A980B99884240F05E81FFE7F4
:102600000D9840680490002851D0FFE704980128F5
:102610003AD0FFE7049802283FD0FFE70498032848
:102620005FD0FFE70498112832D0FFE70498122802
:1026300038D0FFE704980021C1F21101884236D05A
:10264000FFE704980021C1F2120188422FD0FFE772
:1026500004980021C1F22101884228D0FFE70498A4
:102660000021C1F22201884221D0FFE70498002115
:10267000C1F2310188421AD0FFE704980021C1F26B
:102680003201884213D02FE00D98C06808902CE0EA
:102690000D98C0680430089027E00D98C068083095
:1026A000089022E00D98C0680C3008901DE00D984D
:1026B000806818B9FFE70420089011E00D98806841
:1026C000012806D1FFE7082008900B980E990861B1
:1026D00005E0082008900B980E994861FFE7FFE796
:1026E00003E00020089000E0FFE70A98FF2803D8E5
:1026F000FFE70E98039003E00E9804300390FFE785
:10270000039807900A98FF2804D8FFE70C988000E8
:10271000029006E00C996FF01F0000EB8100029020
:10272000FFE70298069007980068069A0F219140EB
:102730008843089991400843079908600D98C0792B
:10274000C006002840F1B880FFE7FFE741F218001B
:10275000C4F20200016841F001010160006800F06C
:10276000010005900598FFE70C9820F00300082170
:10277000C4F20101405809900C9800F00300810058
:102780000F2000FA01F10998884309900E9840F64D
:102790000001C4F20101884203D1FFE7002001904B
:1027A00018E00E9840F60041C4F20101884203D1BE
:1027B000FFE7012000900AE00E9941F20002C4F206
:1027C00001020320914208BF02200090FFE7009819
:1027D0000190FFE701980C9901F00301890000FACC
:1027E00001F109980843099009980C9921F0030117
:1027F0000822C4F2010288500D988079C006002892
:1028000009D5FFE70A9A40F20841C4F201010868BD
:102810001043086008E00A9A40F20841C4F201013E
:10282000086890430860FFE70D98807980060028CB
:1028300009D5FFE70A9A40F20C41C4F20101086889
:102840001043086008E00A9A40F20C41C4F201010A
:10285000086890430860FFE70D988079800700289A
:1028600009D5FFE70A9A40F20441C4F20101086861
:102870001043086008E00A9A40F20441C4F20101E2
:10288000086890430860FFE70D988079C00748B159
:10289000FFE70A9A40F20041C4F2010108681043C0
:1028A000086008E00A9A40F20041C4F20101086899
:1028B00090430860FFE7FFE7FFE70C9801300C90BA
:1028C00087E60FB07047000082B00190ADF80210AB
:1028D0008DF801209DF8010028B1FFE7BDF8020046
:1028E0000199086105E0BDF8020000040199086142
:1028F000FFE702B07047000040F25C30C2F2000017
:102900000068704740F25A00C2F20000027840F2BC
:102910005C31C2F200010868104408607047000092
:1029200080B542F20001C4F20201086840F01000D4
:102930000860032000F096F80F2000F005F800F082
:102940003BF8002080BD000080B582B0009040F2CE
:102950000000C2F20000006840F25A01C2F2000119
:102960000A784FF47A71B1FBF2F1B0FBF1F000F0AC
:1029700057FE20B1FFE701208DF8070018E000980E
:102980000F280DD8FFE700994FF0FF30002200F02C
:102990004FF8009840F25C01C2F20001086003E0C9
:1029A00001208DF8070003E000208DF80700FFE705
:1029B0009DF8070002B080BD83B0FFE741F2180028
:1029C000C4F20200016841F001010160006800F0FA
:1029D000010002900298FFE7FFE741F21C00C4F2F9
:1029E0000200016841F080510160006800F08050F1
:1029F00001900198FFE7FFE70421C4F20101086894
:102A00000090009820F0E0600090009840F0007086
:102A1000009000980860FFE703B0704780B582B06F
:102A20008DF807009DF9070002F0E6FD02B080BDB9
:102A300080B586B08DF817000491039200200290B3
:102A400002F0F2FD02909DF917000190029804999E
:102A5000039A02F0B7F80146019802F0EDFD06B0C6
:102A600080BD000080B582B00190019802F006FEA2
:102A700002B080BD80B586B0049000200390029023
:102A800004980078C007002800F0AC80FFE7002021
:102A90008DF8070041F21C00C4F202000068C0007B
:102AA000002813D4FFE7FFE741F21C00C4F2020044
:102AB000016841F080510160006800F08050009092
:102AC0000098FFE701208DF80700FFE747F20000BC
:102AD000C4F200000068C005002822D4FFE747F2D6
:102AE0000001C4F20001086840F480700860FFF73C
:102AF00003FF0390FFE747F20000C4F20000006804
:102B0000C00500280CD4FFE7FFF7F6FE0399401A32
:102B1000652804D3FFE703208DF817008AE0EAE771
:102B2000FFE741F22000C4F20200006800F44070A8
:102B300002900298E0B3FFE702980499496801F413
:102B40004071884234D0FFE741F22001C4F2020113
:102B5000086820F44070029040F24042C4F24222E1
:102B60000120106000201060029808609DF80800A5
:102B7000C007E0B1FFE7FFF7BFFE0390FFE741F2B8
:102B80002000C4F202000068800700280ED4FFE78E
:102B9000FFF7B2FE0399401A41F28931884204D30B
:102BA000FFE703208DF8170044E0E8E7FFE7FFE7C1
:102BB00041F22001C4F20201086820F44070049A36
:102BC0005268104308609DF80700012809D1FFE70B
:102BD00041F21C01C4F20201086820F08050086034
:102BE000FFE7FFE704980078800700280CD5FFE78F
:102BF00041F20401C4F20201086820F44040049A42
:102C0000926810430860FFE704980078C006002827
:102C10000CD5FFE741F20401C4F20201086820F478
:102C20008000049AD26810430860FFE700208DF806
:102C30001700FFE79DF8170006B080BD80B584B08F
:102C400002900191029820B9FFE701208DF80F0052
:102C50001BE1019842F20001C4F20201096801F08F
:102C60000701884216D9FFE742F20000C4F20200D1
:102C7000016821F00701019A11430160006800F02A
:102C800007000199884204D0FFE701208DF80F006A
:102C9000FBE0FFE702980078800700282AD5FFE7CD
:102CA000029800784007002809D5FFE741F20401A7
:102CB000C4F20201086840F4E0600860FFE702988F
:102CC00000780007002809D5FFE741F20401C4F2AB
:102CD0000201086840F460500860FFE741F2040117
:102CE000C4F20201086820F0F000029A92681043D2
:102CF0000860FFE702980078C007002860D0FFE76F
:102D00000298406801280ED1FFE741F20000C4F2AA
:102D1000020000688003002804D4FFE701208DF83A
:102D20000F00B2E021E00298406802280ED1FFE7D0
:102D300041F20000C4F2020000688001002804D4BF
:102D4000FFE701208DF80F009FE00DE041F2000049
:102D5000C4F2020000688007002804D4FFE70120C5
:102D60008DF80F0091E0FFE7FFE741F20401C4F2A4
:102D70000201086820F00300029A526810430860BC
:102D8000FFF7BAFD0090FFE741F20400C4F2020031
:102D9000006800F00C0002994968B0EB810F0ED07A
:102DA000FFE7FFF7A9FD0099401A41F289318842F7
:102DB00004D3FFE703208DF80F0066E0E4E7FFE7A8
:102DC000019842F20001C4F20201096801F0070112
:102DD000884216D2FFE742F20000C4F20200016806
:102DE00021F00701019A11430160006800F007001B
:102DF0000199884204D0FFE701208DF80F0044E0DC
:102E0000FFE702980078400700280CD5FFE741F261
:102E10000401C4F20201086820F4E060029AD2685A
:102E200010430860FFE702980078000700280DD5DE
:102E3000FFE741F20401C4F20201086820F4605087
:102E4000029A126940EAC2000860FFE700F04CF8FD
:102E500041F20401C4F202010968C9B20A0946F24A
:102E60008C51C0F60001895CC84040F20001C2F2FA
:102E70000001086040F25C00C2F200000068FFF749
:102E800063FD00208DF80F00FFE79DF80F0004B0F0
:102E900080BD000040F20000C2F2000000687047F0
:102EA00080B5FFF7F7FF41F20401C4F2020109689F
:102EB000C1F3022246F29C51C0F60001895CC84071
:102EC00080BD000080B5FFF7E5FF41F20401C4F2C8
:102ED00002010968C1F3C22246F29C51C0F600010A
:102EE000895CC84080BD000086B000200590049039
:102EF00003900290019041F20400C4F202000068C5
:102F00000590059800F00C000146009100283FD084
:102F1000FFE70098042804D0FFE70098082806D0AF
:102F200037E041F20020C0F27A00019037E00598C6
:102F3000C0F3834146F2A450C0F60000405C02900A
:102F40009DF81600C007C0B1FFE741F20400C4F2CB
:102F500002000068C0F3404146F2B450C0F60000E1
:102F6000405C0490029841F20021C0F27A0148438B
:102F70000499B0FBF1F0039007E0029840F60011CD
:102F8000C0F23D0148430390FFE70398019006E03B
:102F9000FFE741F20020C0F27A000190FFE70198BC
:102FA00006B0704780B586B00490049820B9FFE75A
:102FB00001208DF817002EE304980078C007002840
:102FC00000F0AE80FFE741F20400C4F202000068A6
:102FD00000F00C00042813D0FFE741F20400C4F213
:102FE0000200006800F00C0008281BD1FFE741F246
:102FF0000400C4F202000068C003002812D5FFE7F5
:1030000041F20000C4F2020000688003002808D5E5
:10301000FFE70498406820B9FFE701208DF817000A
:10302000F9E27CE0FFE704984068B0F5803F09D101
:10303000FFE741F20001C4F20201086840F4803069
:10304000086032E00498406868B9FFE741F2000187
:10305000C4F20201086820F480300860086820F497
:103060008020086020E004984068B0F5A02F0DD1C2
:10307000FFE741F20001C4F20201086840F4802039
:103080000860086840F4803008600CE041F20001FC
:10309000C4F20201086820F480300860086820F457
:1030A00080200860FFE7FFE7FFE7FFE7049840683C
:1030B000D0B1FFE7FFF720FC0390FFE741F20000EB
:1030C000C4F202000068800300280CD4FFE7FFF779
:1030D00013FC0399401A652804D3FFE703208DF8F9
:1030E000170098E2EAE719E0FFF706FC0390FFE714
:1030F00041F20000C4F202000068800300280CD5F1
:10310000FFE7FFF7F9FB0399401A652804D3FFE7AF
:1031100003208DF817007EE2EAE7FFE7FFE7FFE70D
:10312000049800788007002840F18D80FFE741F285
:103130000400C4F20200006810F00C0F13D0FFE787
:1031400041F20400C4F20200006800F00C000828FC
:1031500029D1FFE741F20400C4F202000068C00375
:10316000002820D4FFE741F20000C4F2020000680A
:103170008007002809D5FFE704980069012804D0DA
:10318000FFE701208DF8170045E241F20001C4F28B
:103190000201086820F0F800049A526940EAC2006F
:1031A0000860FFE74EE00498006958B3FFE700218C
:1031B000C4F2422101200860FFF79EFB0390FFE765
:1031C00041F20000C4F202000068800700280CD41D
:1031D000FFE7FFF791FB0399401A032804D3FFE7A9
:1031E00003208DF8170016E2EAE741F20001C4F26D
:1031F0000201086820F0F800049A526940EAC2000F
:1032000008601EE00021C4F2422100200860FFF7A0
:1032100073FB0390FFE741F20000C4F20200006874
:10322000800700280CD5FFE7FFF766FB0399401ADB
:10323000032804D3FFE703208DF81700EBE1EAE74A
:10324000FFE7FFE7FFE7049800780007002848D56C
:10325000FFE70498806918B3FFE740F28041C4F2A9
:10326000422101200860FFF747FB0390FFE741F28E
:103270002400C4F202000068800700280CD4FFE795
:10328000FFF73AFB0399401A032804D3FFE7032012
:103290008DF81700BFE1EAE7012001F0CBFC1FE049
:1032A00040F28041C4F2422100200860FFF724FB75
:1032B0000390FFE741F22400C4F202000068800797
:1032C00000280CD5FFE7FFF717FB0399401A0328E6
:1032D00004D3FFE703208DF817009CE1EAE7FFE73E
:1032E000FFE7049800784007002840F1D880FFE706
:1032F00000208DF8070041F21C00C4F202000068B3
:10330000C000002813D4FFE7FFE741F21C00C4F21D
:103310000200016841F080510160006800F08050B7
:1033200000900098FFE701208DF80700FFE747F2C3
:103330000000C4F200000068C005002822D4FFE7A6
:1033400047F20001C4F20001086840F48070086090
:10335000FFF7D2FA0390FFE747F20000C4F2000043
:103360000068C00500280CD4FFE7FFF7C5FA0399F1
:10337000401A652804D3FFE703208DF817004AE1BF
:10338000EAE7FFE7FFE70498C068012809D1FFE7F3
:1033900041F22001C4F20201086840F00100086017
:1033A00031E00498C06868B9FFE741F22001C4F237
:1033B0000201086820F001000860086820F004009D
:1033C00008601FE00498C06805280DD1FFE741F2AE
:1033D0002001C4F20201086840F004000860086897
:1033E00040F0010008600CE041F22001C4F202014B
:1033F000086820F001000860086820F004000860F8
:10340000FFE7FFE7FFE7FFE70498C068E0B1FFE7E9
:10341000FFF772FA0390FFE741F22000C4F20200C6
:103420000068800700280ED4FFE7FFF765FA0399CC
:10343000401A41F28931884204D3FFE703208DF816
:103440001700E8E0E8E71BE0FFF756FA0390FFE714
:1034500041F22000C4F202000068800700280ED567
:10346000FFE7FFF749FA0399401A41F28931884290
:1034700004D3FFE703208DF81700CCE0E8E7FFE76F
:103480009DF80700012809D1FFE741F21C01C4F2B1
:103490000201086820F080500860FFE7FFE7049809
:1034A000C069002800F0B380FFE741F20400C4F2D5
:1034B0000200006800F00C00082800F08280FFE79E
:1034C0000498C06902285CD1FFE76021C4F2422160
:1034D00000200860FFF710FA0390FFE741F20000B8
:1034E000C4F202000068800100280CD5FFE7FFF756
:1034F00003FA0399401A032804D3FFE703208DF849
:10350000170088E0EAE70498006AB0F5803F0CD124
:10351000FFE741F20401C4F20201086820F4003020
:10352000049A926810430860FFE741F20401C4F274
:103530000201086820F47410049B1A6A5B6A1A433B
:10354000104308606021C4F2422101200860FFF7A7
:10355000D3F90390FFE741F20000C4F202000068D3
:10356000800100280CD4FFE7FFF7C6F90399401A41
:10357000032804D3FFE703208DF817004BE0EAE7A8
:103580001EE06021C4F2422100200860FFF7B4F978
:103590000390FFE741F20000C4F2020000688001DE
:1035A00000280CD5FFE7FFF7A7F90399401A032875
:1035B00004D3FFE703208DF817002CE0EAE7FFE7CC
:1035C00024E00498C069012804D1FFE701208DF8A8
:1035D000170020E041F20400C4F2020000680290EB
:1035E000029800F480300499096A884208D1FFE704
:1035F000029800F470100499496A884204D0FFE7E9
:1036000001208DF8170006E0FFE7FFE7FFE7002045
:103610008DF81700FFE79DF8170006B080BD000089
:1036200080B582B00190019801F024FB02B080BD0A
:1036300081B0009001B0704781B0009001B0704738
:1036400084B00290019100200090FFE7029890F86A
:103650003C00012804D1FFE702208DF80F0044E070
:103660000299012081F83C00FFE7FFE7009820F075
:10367000FF000199C96808430090009820F4407049
:103680000199896808430090009820F480600199AE
:10369000496808430090009820F400600199096887
:1036A00008430090009820F480500199096908436C
:1036B0000090009820F40050019949690843009057
:1036C000009820F480400199C9690843009000984F
:1036D000029909684864FFE70299002081F83C00DC
:1036E000FFE700208DF80F00FFE79DF80F0004B002
:1036F0007047000085B003900291FFE7039890F8AF
:103700003C00012804D1FFE702208DF8130052E0AD
:103710000399012081F83C00FFE7FFE703990220AD
:1037200081F83D00039800684068019003980068A4
:1037300080680090019820F0700001900298016864
:10374000019808430190019803990968486003981B
:10375000006842F60041C4F2010188420FD0FFE741
:1037600003980068B0F1804F09D0FFE70398006824
:1037700040F20041C4F2000188420ED1FFE70098F8
:1037800020F0800000900298416800980843009063
:103790000098039909688860FFE70399012081F880
:1037A0003D00FFE70399002081F83C00FFE700207F
:1037B0008DF81300FFE79DF8130005B07047000077
:1037C00080B582B00090009820B9FFE701208DF805
:1037D00007003FE0009890F83D0040B9FFE70099EE
:1037E000002081F83C00009800F038F8FFE70099CD
:1037F000022081F83D00009951F8040B01F0B0FA65
:103800000099012081F84600FFE70099012081F826
:103810003E00009981F83F00009981F8400000992E
:1038200081F84100FFE7FFE70099012081F842009D
:10383000009981F84300009981F84400009981F8CB
:103840004500FFE70099012081F83D0000208DF838
:103850000700FFE79DF8070002B080BD80B584B087
:1038600003900398006842F60041C4F201018842C7
:1038700010D1FFE7FFE741F21800C4F2020001682F
:1038800041F400610160006800F400600290029859
:10389000FFE71FE003980068B0F1804F19D1FFE700
:1038A000FFE741F21C00C4F20200016841F001018F
:1038B0000160006800F0010001900198FFE71C2002
:1038C000009000221146FFF7B3F80098FFF7A6F822
:1038D000FFE7FFE704B080BD83B00190019890F846
:1038E0003D00012804D0FFE701208DF80B0038E0EF
:1038F0000199022081F83D000198006842F60041DC
:10390000C4F2010188420FD0FFE701980068B0F1CE
:10391000804F09D0FFE70198006840F20041C4F2EF
:103920000001884212D1FFE701980068806800F02A
:10393000070000900098062807D0FFE7019801686B
:10394000086840F001000860FFE706E001980168A0
:10395000086840F001000860FFE700208DF80B00C8
:10396000FFE79DF80B0003B07047000083B00190A3
:10397000019890F83D00012804D0FFE701208DF860
:103980000B003EE00199022081F83D00019801689A
:10399000C86840F00100C8600198006842F6004124
:1039A000C4F2010188420FD0FFE701980068B0F12E
:1039B000804F09D0FFE70198006840F20041C4F24F
:1039C0000001884212D1FFE701980068806800F08A
:1039D000070000900098062807D0FFE701980168CB
:1039E000086840F001000860FFE706E00198016800
:1039F000086840F001000860FFE700208DF80B0028
:103A0000FFE79DF80B0003B07047000081B0009005
:103A1000FFE700980068006A41F21111084210D1D6
:103A2000FFE700980068006A40F24441084207D16D
:103A3000FFE700980168086820F001000860FFE7D0
:103A4000FFE7FFE70099012081F83D00002001B069
:103A50007047000080B586B00490039100208DF877
:103A60000B00FFE7049890F83C00012804D1FFE721
:103A700002208DF81700ABE00499012081F83C008A
:103A8000FFE7FFE70499022081F83D0004980068F1
:103A900080680190019820F077000190019820F44F
:103AA0007F40019001980499096888600398006834
:103AB0000090002872D0FFE7009810286ED0FFE732
:103AC000009820286AD0FFE70098302866D0FFE7EA
:103AD0000098402855D0FFE70098502837D0FFE7DE
:103AE0000098602840D0FFE7009870280BD0FFE7CF
:103AF0000098B0F5805F05D0FFE70098B0F5005F53
:103B000016D052E055E004980068039B5A68996803
:103B1000DB6801F08DF904980068806801900198D5
:103B200040F077000190019804990968886040E0AE
:103B300004980068039B5A689968DB6801F078F97B
:103B400004980168886840F48040886031E00498F7
:103B50000068039A5168D26801F026FB0498006857
:103B6000502101F07FF924E004980068039A51681D
:103B7000D26801F041FB04980068602101F072F9FD
:103B800017E004980068039A5168D26801F00CFBB2
:103B900004980068402101F065F90AE00498006883
:103BA0000399096801F05EF903E001208DF80B002C
:103BB000FFE70499012081F83D00FFE70499002008
:103BC00081F83C00FFE79DF80B008DF81700FFE738
:103BD0009DF8170006B080BD81B0009001B070471D
:103BE00080B582B0019001980068006900F0020180
:103BF0000020B0EB510F28D0FFE701980068C068A3
:103C000000F002010020B0EB510F1DD0FFE701983A
:103C100001686FF00200086101990120087701989E
:103C200000688069800720B1FFE70198FFF7D4FFA3
:103C300006E0019800F042F9019800F037FAFFE73A
:103C4000019900200877FFE7FFE701980068006905
:103C500000F004010020B0EB910F29D0FFE701989C
:103C60000068C06800F004010020B0EB910F1ED086
:103C7000FFE7019801686FF00400086101990220D4
:103C8000087701980068806910F4407F04D0FFE74E
:103C90000198FFF7A1FF06E0019800F00FF90198E5
:103CA00000F004FAFFE7019900200877FFE7FFE73B
:103CB00001980068006900F008010020B0EBD10F06
:103CC00028D0FFE701980068C06800F008010020D4
:103CD000B0EBD10F1DD0FFE7019801686FF008002D
:103CE000086101990420087701980068C06980077D
:103CF00020B1FFE70198FFF76FFF06E0019800F0A1
:103D0000DDF8019800F0D2F9FFE70199002008776B
:103D1000FFE7FFE701980068006900F0100100204C
:103D2000B0EB111F29D0FFE701980068C06800F0D0
:103D300010010020B0EB111F1ED0FFE701980168B1
:103D40006FF0100008610199082008770198006859
:103D5000C06910F4407F04D0FFE70198FFF73CFFF3
:103D600006E0019800F0AAF8019800F09FF9FFE73B
:103D7000019900200877FFE7FFE7019800680069D4
:103D8000C00780B1FFE701980068C068C00748B16C
:103D9000FFE7019801686FF001000861019800F0E9
:103DA00089F9FFE7FFE7019800680069C1B20020C8
:103DB000B0EBD11F13D0FFE701980068C068C1B213
:103DC0000020B0EBD11F09D0FFE7019801686FF028
:103DD000800008610198FFF72BFCFFE7FFE70198DF
:103DE0000068006900F040010020B0EB911F14D082
:103DF000FFE701980068C06800F040010020B0EBC8
:103E0000911F09D0FFE7019801686FF04000086139
:103E1000019800F0E5F9FFE7FFE701980068006905
:103E200000F020010020B0EB511F14D0FFE70198F3
:103E30000068C06800F020010020B0EB511F09D0DD
:103E4000FFE7019801686FF0200008610198FFF713
:103E5000F3FBFFE7FFE702B080BD000080B586B04E
:103E6000059000200490039002900190059800684E
:103E700042F60041C4F2010188421DD1FFE7FFE78D
:103E800041F21800C4F20200016841F0040101602F
:103E9000006800F0040000900098FFE74FF4006015
:103EA000019002200290049040F60000C4F201004C
:103EB00001A9FEF787FBFFE706B080BD81B0009047
:103EC00001B0704780B586B0049003910292002043
:103ED0008DF80700FFE7049890F83C00012804D112
:103EE000FFE702208DF8170089E00499012081F88E
:103EF0003C00FFE7FFE7029800900C2800F270807A
:103F00000099DFE801F0076D6D6D206D6D6D3A6D04
:103F10006D6D530004980068039900F0B9FF049890
:103F20000168886940F00800886104980168886920
:103F300020F0040088610398026904980168886988
:103F40001043886150E004980068039901F008F874
:103F500004980168886940F40060886104980168E9
:103F6000886920F480608861039802690498016878
:103F7000886940EA0220886136E004980068039965
:103F800001F05AF804980168C86940F00800C86157
:103F900004980168C86920F00400C86103980269A8
:103FA00004980168C8691043C8611DE0049800685E
:103FB000039901F0ADF804980168C86940F4006005
:103FC000C86104980168C86920F48060C8610398DA
:103FD000026904980168C86940EA0220C86103E0E8
:103FE00001208DF80700FFE7FFE70499002081F822
:103FF0003C00FFE79DF807008DF81700FFE79DF8EC
:10400000170006B080BD000080B582B00090009817
:1040100020B9FFE701208DF807003FE0009890F8F5
:104020003D0040B9FFE70099002081F83C0000986E
:1040300000F038F8FFE70099022081F83D00009970
:1040400051F8040B00F08CFE0099012081F8460025
:10405000FFE70099012081F83E00009981F83F00B8
:10406000009981F84000009981F84100FFE7FFE7DF
:104070000099012081F84200009981F843000099DD
:1040800081F84400009981F84500FFE7009901207C
:1040900081F83D0000208DF80700FFE79DF807003C
:1040A00002B080BD81B0009001B0704781B0009037
:1040B00001B0704780B588B0079007980068B0F1EC
:1040C000804F40F08A80FFE740F2A811C2F2000161
:1040D0000020086040F25400C2F200000068013085
:1040E00098B1FFE740F25400C2F20000016840F2CC
:1040F0004A00C2F2000030F8111040F60040C4F24D
:1041000001000022FEF7E0FBFFE7FCF7ABF8C11768
:1041100000EB917121F00301401A0690FCF7A2F820
:10412000C11700EB917121F00301401A0590069927
:1041300040F24A00C2F2000030F8111040F6004090
:10414000C4F2010001220092FEF7BEFB009905981F
:1041500040F2A412C2F200021060069840F2283227
:10416000C2F200021060059A40F20400C2F20000A0
:1041700000EB0212084601F039FD40F22C30C2F289
:104180000000026840F23430C2F20000019046F2B2
:10419000B651C0F600010291FCF79EF80099019A11
:1041A0000220049001F022FD029940F23030C2F268
:1041B0000000026840F24830C2F200000390FCF7B1
:1041C0008BF8039A0498052101F010FD069840F23F
:1041D0005401C2F200010860FFE708B080BD000092
:1041E00081B0009001B0704782B00190ADF802102C
:1041F00002B0704781B0009001B0704780B592B0B6
:104200001190119800680068109011980068C068BB
:104210000F901198006840690E9000200D900C904E
:10422000109800F00F000D900D9888B9FFE79DF8E9
:104230004000800600280AD5FFE79DF83C00800674
:10424000002804D5FFE7119801F06EF8E9E1FFE7D7
:104250000D98002800F0C280FFE79DF83800C007E5
:1042600038B9FFE7BDF83C0010F4907F00F0B6804D
:10427000FFE79DF84000C00758B1FFE79DF83D00FB
:10428000C00730B1FFE71199486C40F00100486465
:10429000FFE79DF84000400700280BD5FFE79DF899
:1042A0003800C00730B1FFE71199486C40F00200B8
:1042B0004864FFE79DF84000800700280BD5FFE722
:1042C0009DF83800C00730B1FFE71199486C40F005
:1042D00004004864FFE79DF840000007002811D55E
:1042E000FFE79DF83C008006002805D4FFE79DF815
:1042F0003800C00730B1FFE71199486C40F0080062
:104300004864FFE71198406C002866D0FFE79DF8ED
:104310004000800600280AD5FFE79DF83C00800693
:10432000002804D5FFE7119800F0FEFFFFE7119881
:1043300000684069C0F380100C901198406C000731
:10434000002804D4FFE70C9800283ED0FFE711981E
:1043500000F08CFF119800684069400600282FD5B6
:10436000FFE7FFE7FFE71198006850E8050F20F02E
:1043700040000B90FFE70B991198026842E8051086
:104380000028F0D1FFE7FFE71198C06B98B1FFE775
:104390001198C16B45F24D20C0F60000486311989A
:1043A000C06BFDF709FE28B1FFE71198C06B416BA8
:1043B0008847FFE703E01198FFF71CFFFFE703E0E2
:1043C0001198FFF717FFFFE706E01198FFF712FFBC
:1043D000119900204864FFE7FFE722E11198006B84
:1043E000012840F0FE80FFE79DF84000C00600284D
:1043F00040F1F780FFE79DF83C00C006002840F13F
:10440000F080FFE7FFE700200A901198006800683D
:104410000A901198006840680A900A98FFE711987E
:10442000006840694006002840F18180FFE711984C
:10443000C06B00684068ADF82600BDF82600002873
:1044400074D0FFE7BDF826001199898D88426DDA96
:10445000FFE7BDF826001199C8851198C06B8069E7
:10446000202858D0FFE7FFE7FFE71198006850E8E1
:10447000030F20F480700890FFE7089911980268F4
:1044800042E803100028F0D1FFE7FFE7FFE7FFE76E
:104490001198006850E8050F20F001000790FFE731
:1044A00007991198026842E805100028F0D1FFE74B
:1044B000FFE7FFE7FFE71198006850E8050F20F0DD
:1044C00040000690FFE706991198026842E805103F
:1044D0000028F0D1FFE7FFE71199202081F8420082
:1044E000119900200863FFE7FFE71198006850E882
:1044F000030F20F010000590FFE70599119802685E
:1045000042E803100028F0D1FFE7FFE71198C06BE5
:10451000FDF714FDFFE71199022048631198818D82
:10452000C28D891A89B2FFF75FFEFFE779E0119922
:10453000888DC98D401AADF812001198C08D0028E1
:104540004ED0FFE7BDF81200002849D0FFE7FFE793
:10455000FFE71198006850E8030F20F49070039073
:10456000FFE703991198026842E803100028F0D190
:10457000FFE7FFE7FFE7FFE71198006850E8050F46
:1045800020F001000290FFE702991198026842E8CA
:1045900005100028F0D1FFE7FFE71199202081F8EE
:1045A0004200119900200863FFE7FFE711980068B7
:1045B00050E8030F20F010000190FFE701991198D7
:1045C000026842E803100028F0D1FFE7FFE71199E5
:1045D000022048631198BDF81210FFF705FEFFE7AF
:1045E0001FE09DF84000000600280AD5FFE79DF86F
:1045F0003C000006002804D5FFE7119800F0A8FF52
:104600000FE09DF84000400600280AD5FFE79DF81E
:104610003C004006002804D5FFE7119800F070FE2A
:10462000FFE712B080BD000080B582B00090009816
:1046300020B9FFE701208DF8070040E0009880696D
:1046400008B1FFE700E0FFE7009890F8410040B9AB
:10465000FFE70099002081F84000009800F034F84E
:10466000FFE70099242081F8410000980168C8689C
:1046700020F40050C860009800F00CFF009801681A
:10468000086920F49040086100980168486920F0AA
:104690002A00486100980168C86840F40050C8606A
:1046A000009900204864009A202182F84110009A65
:1046B00082F84210009948638DF80700FFE79DF8E3
:1046C000070002B080BD000080B58CB00B900020C8
:1046D0000A900990089007900B98006843F6000133
:1046E000C4F20101884267D1FFE7FFE741F21800F9
:1046F000C4F20200016841F480410160006800F4E6
:10470000804006900698FFE7FFE741F21800C4F2E8
:104710000200016841F004010160006800F004003B
:1047200005900598FFE74FF400700790022008906D
:1047300003200A9040F60000C4F20100019007A98E
:104740000291FDF73FFF019802994FF480620792B2
:104750000022039208920992FDF734FF039940F278
:104760000C20C2F2000004904422C4F20202026053
:104770001022426081608022C260016141618161DA
:10478000C161FDF7EBFD18B1FFE7FCF73BFFFFE769
:10479000FFE70B9840F20C21C2F2000181630B98F5
:1047A0004862FFE72520009000221146FEF740F9FD
:1047B0000098FEF733F9FFE70CB080BD81B00090A0
:1047C00001B0704781B0009001B07047FFE7FEE78D
:1047D00080B584B0002103910291019140F2AC10A8
:1047E000C2F20000009042F20042C4F201020260F4
:1047F0008160017301754FF46022C2614160012143
:104800000161FDF727F918B1FFE7FCF7FBFEFFE7B1
:1048100004200190012002900020039040F2AC108F
:10482000C2F2000001A9FCF7F9FE18B1FFE7FCF79E
:10483000E9FEFFE704B080BD80B584B0002103919C
:104840000291019140F2DC10C2F20000009042F6A9
:104850000002C4F2010202608160017301754FF42D
:104860006022C261416001210161FDF7F3F818B1D6
:10487000FFE7FCF7C7FEFFE700200190012102914E
:10488000039040F2DC10C2F2000001A9FCF7C6FE62
:1048900018B1FFE7FCF7B6FEFFE704B080BD0000EB
:1048A00080B582B0FFE741F21400C4F20200016853
:1048B00041F001010160006800F0010001900198E1
:1048C000FFE70E20009000221146FEF7B1F8009895
:1048D000FEF7A4F802B080BD80B590B000200F9024
:1048E0000E900D900C90FFE741F21800C4F2020008
:1048F000016841F020010160006800F020000B9089
:104900000B98FFE7FFE741F21800C4F202000168CC
:1049100041F004010160006800F004000A900A9868
:10492000FFE7FFE741F21800C4F20200016841F01E
:1049300008010160006800F0080009900998FFE78D
:1049400040F60000C4F201000190C621009100224F
:104950000792FDF7B9FF079A40F60040C4F2010044
:1049600005904FF203010491FDF7AEFF009A019804
:1049700007990C92012202920D920E91022103914D
:104980000F910CA90691FDF71DFEDDF808C0039AF2
:1049900005980699079BDDF810E0CDF830E0CDF8DA
:1049A00034C00E930F92FDF70DFE05980699079AF5
:1049B0004FF440630C930023C1F211030D930E9248
:1049C000FDF700FE079A282008901146FEF730F800
:1049D0000898FEF723F810B080BD000080B598B0AD
:1049E0000021019117911691159114911391129133
:1049F000119110910F910E910D910C910B910A91C3
:104A0000099108910791069105910491039140F253
:104A10005020C2F20000029042F60042C4F20102AD
:104A20000260416081604FF6FF72C26001614161C6
:104A30008161FEF7C5FE18B1FFE7FCF7E3FDFFE774
:104A40004FF48050149040F25020C2F2000014A99C
:104A5000FFF700F818B1FFE7FCF7D4FDFFE740F2DD
:104A60005020C2F20000FFF7CFFA18B1FFE7FCF7C1
:104A7000C9FDFFE700201290139040F25020C2F2CF
:104A8000000012A9FEF736FE18B1FFE7FCF7BAFDE9
:104A9000FFE760200B9000200C900D900F9010907D
:104AA000119040F25020C2F200000BA90C22FFF737
:104AB00009FA18B1FFE7FCF7A5FDFFE70020039016
:104AC00004900590069007904FF4005108910A90C9
:104AD00040F25020C2F2000003A9FEF7B1FD18B168
:104AE000FFE7FCF78FFDFFE740F25020C2F2000025
:104AF000FFF7B4F918B080BD80B588B000210191EE
:104B000007910691059104910391029140F298203A
:104B1000C2F200004FF0804202607C22426081605D
:104B20004FF6FF12C260016180218161FEF748FEED
:104B300018B1FFE7FCF766FDFFE74FF480500490E3
:104B400040F29820C2F2000004A9FEF783FF18B1DA
:104B5000FFE7FCF757FDFFE71020029000200390CD
:104B600040F29820C2F2000002A9FEF7C3FD18B17E
:104B7000FFE7FCF747FDFFE708B080BD80B582B0D6
:104B800040F2E020C2F20000019043F60001C4F2BE
:104B9000010101604FF4E131416000218160C16099
:104BA00001610C2242618161C161FFF73DFD18B1D5
:104BB000FFE7FCF727FDFFE702B080BDFFE7FEE758
:104BC000FFE7FEE788B0079006910592079800F08E
:104BD000070004900498C0F10700052803D3FFE7FD
:104BE0000420019004E00498C0F107000190FFE761
:104BF0000198039004980430062803D8FFE70020AA
:104C0000009003E0049803380090FFE700980290BA
:104C100006980399012202FA01F101390840029B2A
:104C2000984005999A40013A1140084308B07047EE
:104C30007047000082B00190019840F20001C2F27A
:104C400000010968C90844F6D352C1F26202A1FB0F
:104C50000221890948430090FFE700BFFFE7009861
:104C6000411E00910028F8D1FFE702B07047000014
:104C70007047000080B582B0009000980138B0F114
:104C8000807F03D3FFE70120019019E000980138ED
:104C90004EF21401CEF2000108604FF0FF300F21F8
:104CA00000F0CAFC4EF21801CEF2000100200860AC
:104CB0004EF21002CEF20002072111600190FFE7D0
:104CC000019802B080BD000080B5FDF71BFE80BDDD
:104CD00080B596B00CA801902821FBF731FB019814
:104CE000002102910B910A91099108910791069177
:104CF00005910491039102220C920122109210223C
:104D000011921391FEF74EF918B1FFE7FCF77AFC08
:104D1000FFE70F2007900021089109910A910B915C
:104D200007A8FDF78BFF18B1FFE7FCF76BFCFFE767
:104D3000022003900020059003A8FDF79BFE18B108
:104D4000FFE7FCF75FFCFFE716B080BD704700008F
:104D500080B540F29820C2F20000FEF741FF80BD0E
:104D600083B002900191029800680090029842F688
:104D70000041C4F2010188420DD0FFE70298B0F172
:104D8000804F08D0FFE7029840F20041C4F20001D2
:104D900088420AD1FFE7009820F070000090019847
:104DA0004168009808430090FFE7029842F60041EE
:104DB000C4F2010188420DD0FFE70298B0F1804FA4
:104DC00008D0FFE7029840F20041C4F20001884297
:104DD0000AD1FFE7009820F4407000900198C16864
:104DE000009808430090FFE7009820F080000199A8
:104DF000496908430090009802990860019880680A
:104E00000299C8620198006802998862029842F685
:104E10000041C4F20101884205D1FFE70198006911
:104E200002990863FFE702990120486103B07047C7
:104E300085B00490039102920193049880680090D9
:104E4000009820F47F40009003980299019A41EA6B
:104E5000022101430098084300900098049988605B
:104E600005B0704783B0029001910298806800906D
:104E7000009820F07000009001980099084340F0DD
:104E80000700009000980299886003B07047000006
:104E900085B0049003910498006A01900499086A0F
:104EA00020F001000862049840680090049880692E
:104EB0000290029820F070000290029820F0030007
:104EC000029003980168029808430290019820F02C
:104ED00002000190039881680198084301900498AA
:104EE00042F60041C4F2010188420ED1FFE7019869
:104EF00020F0080001900398C168019808430190D0
:104F0000019820F004000190FFE7049842F6004168
:104F1000C4F20101884213D1FFE7009820F48070A9
:104F20000090009820F40070009003984169009868
:104F30000843009003988169009808430090FFE7B8
:104F40000098049948600298049988610398406821
:104F50000499486301980499086205B070470000FD
:104F600085B0049003910498006A01900499086A3E
:104F700020F010000862049840680090049880694E
:104F80000290029820F4E0400290029820F44070D1
:104F9000029003980168029840EA0120029001986B
:104FA00020F02000019003988168019840EA0110E8
:104FB0000190049842F60041C4F2010188420FD1E9
:104FC000FFE7019820F0800001900398C1680198E4
:104FD00040EA01100190019820F040000190FFE7A5
:104FE000049842F60041C4F20101884215D1FFE75E
:104FF000009820F480600090009820F400600090F9
:1050000003984169009840EA810000900398816903
:10501000009840EA81000090FFE7009804994860FA
:1050200002980499886103984068049988630198FC
:105030000499086205B0704785B004900391049804
:10504000006A01900499086A20F48070086204984C
:10505000406800900498C0690290029820F07000A7
:105060000290029820F003000290039801680298D1
:1050700008430290019820F4007001900398816821
:10508000019840EA01200190049842F60041C4F2E0
:10509000010188420FD1FFE7019820F400600190E0
:1050A0000398C168019840EA01200190019820F41A
:1050B00080600190FFE7049842F60041C4F20101CC
:1050C000884215D1FFE7009820F4805000900098A6
:1050D00020F40050009003984169009840EA0110C4
:1050E000009003988169009840EA01100090FFE762
:1050F00000980499486002980499C8610398406830
:105100000499C86301980499086205B070470000CB
:1051100085B0049003910498006A01900499086A8C
:1051200020F4805008620498406800900498C06998
:105130000290029820F4E0400290029820F440701F
:10514000029003980168029840EA012002900198B9
:1051500020F40050019003988168019840EA0130E2
:105160000190049842F60041C4F2010188420BD13B
:10517000FFE7009820F48040009003984169009870
:1051800040EA81100090FFE7009804994860029877
:105190000499C861039840680499086401980499C7
:1051A000086205B07047000085B004900391029238
:1051B0000498006A00900499086A20F001000862CF
:1051C000049880690190019820F0F0000190029904
:1051D000019840EA01100190009820F00A00009028
:1051E00003990098084300900198049988610098F9
:1051F0000499086205B0704785B00490039102924B
:105200000498006A00900499086A20F0100008626F
:10521000049880690190019820F4704001900299EF
:10522000019840EA01300190009820F0A000009021
:105230000399009840EA0110009001980499886150
:1052400000980499086205B07047000080B582B0EC
:1052500001900198406A009000990020C88500994B
:10526000C8840098FEF7C6FF02B080BD84B00390EA
:10527000FFE7FFE70398006850E8030F20F4907001
:105280000290FFE702990398026842E803100028A1
:10529000F0D1FFE7FFE7FFE7FFE70398006850E87A
:1052A000050F20F001000190FFE7019903980268C3
:1052B00042E805100028F0D1FFE7FFE70398006BF4
:1052C000012814D1FFE7FFE7FFE70398006850E8E3
:1052D000030F20F010000090FFE700990398026888
:1052E00042E803100028F0D1FFE7FFE7FFE703994A
:1052F000202081F8420003990020086304B0704721
:1053000080B582B0019001980168C86820F0400023
:10531000C8600199202081F841000198FFF752FAF6
:10532000002002B080BD000080B586B004900498D3
:1053300090F84200222840F0A480FFE7049880689B
:10534000B0F5805F15D1FFE70498006988B9FFE7E1
:10535000002003900498806A0290049800684068D6
:105360006FF35F20029908800499886A023088628E
:1053700025E00498806A03900020029004988068D9
:10538000B0F5805F08D0FFE70498806850B9FFE768
:105390000498006930B9FFE70498006840680399F1
:1053A000087007E004980068406800F07F000399E7
:1053B0000870FFE70499886A01308862FFE7049962
:1053C000C88D0138C8850004002856D1FFE704982D
:1053D0000168C86820F02000C86004980168C868A7
:1053E00020F48070C86004980168486920F00100CA
:1053F00048610499202081F8420004990020486304
:105400000498006B012830D1FFE70499002008635D
:10541000FFE7FFE70498006850E8030F20F0100052
:105420000190FFE701990498026842E80310002800
:10543000F0D1FFE7FFE7049800680068C006002885
:105440000ED5FFE7FFE70020009004980068006891
:10545000009004980068406800900098FFE7FFE71C
:105460000498818DFEF7C0FE03E00498FFF7A6F9CB
:10547000FFE700208DF8170007E000208DF81700E7
:1054800003E002208DF81700FFE79DF8170006B033
:1054900080BD000080B584B0039003980068006967
:1054A00020F44050039A1168D268104308610399B0
:1054B00088680A69496910430843029003980068A4
:1054C000C06841F20C618843029908430399096856
:1054D000C86003980068406920F44070039A11681E
:1054E0009269104348610398006843F60001C4F2D2
:1054F0000101884204D1FFE7FDF7E4FC019003E0DD
:10550000FDF7CEFC0190FFE7019819214843039A6B
:10551000116852689200B0FBF2FC48F21F52C5F2CB
:10552000EB12ACFB02304309642003FB10CC3220A9
:1055300000EB0C10A0FB0202F02000EA521000EB7E
:105540000310C2F343121044886004B080BD000011
:1055500083B00190019890F8410021283AD1FFE7EB
:1055600001988068B0F5805F13D1FFE7019800696A
:1055700078B9FFE70198006A0090009800886FF3FF
:105580005F200199096848600199086A0230086241
:1055900008E0019A106A411C1162007801990968BB
:1055A0004860FFE70199C88C0138C884000468B9D5
:1055B000FFE701980168C86820F08000C860019882
:1055C0000168C86840F04000C860FFE700208DF81F
:1055D0000B0003E002208DF80B00FFE79DF80B00A5
:1055E00003B0704780B540F2E020C2F20000FEF741
:1055F00005FE80BDFFE7FEE781B08DF803009DF951
:10560000030000280ED4FFE79DF9031001F01F02EC
:10561000012090404A094EF20011CEF2000141F8FB
:105620002200FFE701B070474EF60C50CEF20000AA
:105630000068C0F30220704782B08DF80700009127
:105640009DF9070000280AD4FFE7009800019DF9A2
:1056500007104EF20042CEF2000288540BE0009890
:1056600000019DF8071001F00F014EF61452CEF222
:1056700000028854FFE702B07047000083B0029038
:10568000029800F0070000904EF60C51CEF2000197
:105690000868019001984FF6FF02104001900198B0
:1056A000009A40EA02200022C0F2FA521043019010
:1056B0000198086003B0704780B582B08DF807008C
:1056C00040F60C01C4F201010091086840F00400AA
:1056D000086040F61402C4F201020220106040216A
:1056E00011608021116040F61441C4F201010122D1
:1056F0000A60086000F000FA0099086840F00200B3
:1057000008609DF8070000F010010020B0EB111FA9
:1057100007D0FFE740F61001C4F201014020086005
:1057200007E040F61001C4F201014FF48000086068
:10573000FFE79DF8070000F020010020B0EB511FAB
:1057400007D0FFE740F61001C4F201018020086095
:1057500007E040F61001C4F201014FF400000860B8
:10576000FFE79DF8070000F040010020B0EB911F1B
:1057700007D0FFE740F61041C4F2010101200860A4
:1057800007E040F61041C4F201014FF48030086098
:10579000FFE79DF807100020B0EBD11F07D0FFE70F
:1057A00040F61041C4F201010220086007E040F613
:1057B0001041C4F201014FF400300860FFE700F02F
:1057C0009BF940F61402C4F201020220106040214D
:1057D00011608021116040F61441C4F201010122E0
:1057E0000A60086000F088F940F60C01C4F201017B
:1057F000086840F0020008609DF80700C00738B153
:10580000FFE740F61001C4F201014020086007E004
:1058100040F61001C4F201014FF480000860FFE778
:105820009DF8070000F002010020B0EB510F07D0F7
:10583000FFE740F61001C4F201018020086007E094
:1058400040F61001C4F201014FF400000860FFE7C8
:105850009DF8070000F004010020B0EB910F07D085
:10586000FFE740F61041C4F201010120086007E0A3
:1058700040F61041C4F201014FF480300860FFE7A8
:105880009DF8070000F008010020B0EBD10F07D011
:10589000FFE740F61041C4F201010220086007E072
:1058A00040F61041C4F201014FF400300860FFE7F8
:1058B00000F022F940F61402C4F201020220106046
:1058C000402111608021116040F61441C4F20101B1
:1058D00001220A60086002B080BD000080B582B07D
:1058E0008DF8070040F61402C4F201020420106093
:1058F00002201060402111608021116040F61441A7
:10590000C4F2010101220A60086000F0F5F840F6D7
:105910000C01C4F20101086840F0020008609DF823
:10592000070000F010010020B0EB111F07D0FFE7C7
:1059300040F61001C4F201014020086007E040F683
:105940001001C4F201014FF480000860FFE79DF8E8
:10595000070000F020010020B0EB511F07D0FFE747
:1059600040F61001C4F201018020086007E040F613
:105970001001C4F201014FF400000860FFE79DF838
:10598000070000F040010020B0EB911F07D0FFE7B7
:1059900040F61041C4F201010120086007E040F622
:1059A0001041C4F201014FF480300860FFE79DF818
:1059B00007100020B0EBD11F07D0FFE740F61041E1
:1059C000C4F201010220086007E040F61041C4F271
:1059D00001014FF400300860FFE700F08DF840F659
:1059E0001402C4F2010202201060402111608021E3
:1059F000116040F61441C4F2010101220A600860FE
:105A000000F07AF840F60C01C4F20101086840F099
:105A1000020008609DF80700C00738B1FFE740F6B4
:105A20001001C4F201014020086007E040F61001B7
:105A3000C4F201014FF480000860FFE79DF8070001
:105A400000F002010020B0EB510F07D0FFE740F655
:105A50001001C4F201018020086007E040F6100147
:105A6000C4F201014FF400000860FFE79DF8070051
:105A700000F004010020B0EB910F07D0FFE740F6E3
:105A80001041C4F201010120086007E040F6104116
:105A9000C4F201014FF480300860FFE79DF8070071
:105AA00000F008010020B0EBD10F07D0FFE740F66F
:105AB0001041C4F201010220086007E040F61041E5
:105AC000C4F201014FF400300860FFE700F014F861
:105AD00040F61402C4F2010202201060402111605D
