:020000040800F2
:10000000E8080020ED010008C12F0008052C0008B9
:10001000BD2F00088D04000809370008000000000B
:100020000000000000000000000000007130000827
:10003000910400080000000031300008C9300008B9
:10004000070200080702000807020008070200086C
:10005000070200080702000807020008070200085C
:10006000070200080702000807020008070200084C
:10007000070200080702000807020008070200083C
:100080000702000807020008310300080702000801
:10009000070200080702000807020008070200081C
:1000A000070200080702000807020008070200080C
:1000B0005131000807020008000000000702000894
:1000C000070200080000000000000000070200080E
:1000D00000000000070200080702000800000000FE
:1000E000B1040008070200080702000800F002F847
:1000F00000F052F814A696E8000CB244B344DA4576
:1001000001D100F049F8BAE80F000FA696E83000D8
:10011000A5EB040504EB0607AAEB0704A7F101070A
:100120004FEA15154FEA3414A4F10104AC4201D38F
:1001300000F032F813F0010F18BFFB1A43F001036F
:1001400000F001F8DBE71847983C0000B83C0000DD
:10015000103A24BF78C878C1FAD8520724BF30C8F3
:1001600030C144BF04680C60704700007047000055
:100170000023002400250026103A28BF78C1FBD8B0
:10018000520728BF30C148BF0B6070471FB500F051
:1001900062F81FBD10B510BD00F090F81146FFF7D2
:1001A000F5FF03F0BFFD00F0AEF803B4FFF7F2FF78
:1001B00003BC00F0B7F800000B49D1F800C04A6852
:1001C0005CF8043B1068184442F8040B8C4528BFC7
:1001D000A1F1DC0C8A4228BFA1F1DC02C1F800C009
:1001E0004A6020F0004070473C01002009488047E9
:1001F00009480047FEE7FEE7FEE7FEE7FEE7FEE709
:10020000FEE7FEE7FEE7FEE704480549054A064B20
:10021000704700004D310008ED000008E8020020A2
:10022000E8080020E8040020E80400200B4910B58D
:10023000A1F17C020A4CC2E93712372106E000EB3B
:10024000104342F82130074B00FB03400B1EA1F185
:100250000101F4DC10BD0120E8E70000DC00002013
:10026000E119D666CD0D01004FF0000200B513462E
:1002700094469646203922BFA0E80C50A0E80C50C6
:10028000B1F12001BFF4F7AF090728BFA0E80C5077
:1002900048BF0CC05DF804EB890028BF40F8042B70
:1002A00008BF704748BF20F8022B11F0804F18BFDD
:1002B00000F8012B7047704770477047754600F093
:1002C0002BF8AE4605006946534620F007008546E8
:1002D00018B020B5FFF798FFBDE820404FF00006AA
:1002E0004FF000074FF000084FF0000BAC46ACE8B1
:1002F000C009ACE8C009ACE8C009ACE8C00921F00D
:1003000007018D46704710B50446AFF300802046C4
:10031000BDE81040FFF749BF004870474401002086
:100320007047000001491820ABBEFEE7260002001E
:1003300080B540F2A810C2F2000000F021FA40F2AD
:10034000D810C2F2000000F01BFA80BD80B584B066
:10035000029000200190029800688068C00770B386
:10036000FFE702980168886820F00100886000F0CB
:1003700061FF0190FFE7029800688068C007E8B15C
:10038000FFE700F057FF0199401A032815D3FFE754
:10039000029800688068C00770B1FFE70299886A18
:1003A00040F0100088620299C86A40F00100C862FB
:1003B00001208DF80F0006E0FFE7DCE7FFE70020F3
:1003C0008DF80F00FFE79DF80F0004B080BD00001E
:1003D00080B584B0029000200190009002980068DF
:1003E0008068C007002849D1FFE702980168886843
:1003F00040F00100886040F24000C2F20000006856
:100400004DF68361C4F21B31A0FB0110800C0090FB
:10041000FFE7009820B1FFE7009801380090F8E767
:1004200000F008FF0190FFE7029800688068C007AD
:1004300018BBFFE700F0FEFE0199401A03281BD30A
:10044000FFE7029800688068C007A0B9FFE702993B
:10045000886A40F0100088620299C86A40F0010082
:10046000C862FFE70299002081F82400FFE701201D
:100470008DF80F0006E0FFE7D6E7FFE700208DF8D4
:100480000F00FFE79DF80F0004B080BDFFE7FEE717
:100490007047000081B00090FFE7009828B1FFE7A7
:1004A000FFE7009801380090F7E701B070470000BF
:1004B00080B54FF4006000F007FD80BD81B0EFF320
:1004C000108072B60090FFE7FEE7000081B0009058
:1004D00001B0704785B00390029100208DF80700AD
:1004E0000090FFE7039890F82400012804D1FFE76B
:1004F00002208DF81300C3E00399012081F8240045
:10050000FFE7FFE702984068062812D8FFE7039844
:100510000068406B029A1168526802EB8202053A49
:100520001F23934098439140084303990968486307
:1005300029E0029840680C2812D8FFE70398006869
:10054000006B029A1168526802EB8202233A1F2361
:10055000934098439140084303990968086311E068
:1005600003980068C06A029A1168526802EB82021E
:10057000413A1F23934098439140084303990968E7
:10058000C862FFE7FFE7029800680A2812D3FFE776
:1005900003980068C06802990A68896802EB420201
:1005A0001E3A0723934098439140084303990968F2
:1005B000C86010E003980068006902990A688968B9
:1005C00002EB42020723934098439140084303996A
:1005D00009680861FFE702980068102805D0FFE766
:1005E00002980068112840D1FFE70398006842F2A2
:1005F0000041C4F2010188422DD1FFE70398006851
:1006000080680002002825D4FFE703980168886805
:1006100040F40000886002980068102819D1FFE7B4
:1006200040F24000C2F2000000684DF68361C4F25F
:100630001B31A0FB0110800C00EB800040000090FB
:10064000FFE7009820B1FFE7009801380090F8E735
:10065000FFE7FFE708E00399886A40F0200088621E
:1006600001208DF80700FFE7FFE7FFE7039900206F
:1006700081F82400FFE79DF807008DF81300FFE7DD
:100680009DF8130005B0704780B584B0039000203A
:10069000ADF80A00039800F06BF8ADF80A00BDF859
:1006A0000A0040F25451884207DCFFE71320ADF8FE
:1006B00008004EF65F20019015E0BDF80A0040F2F8
:1006C000C161884207DCFFE71F20ADF808004FF248
:1006D0002340019006E03F20ADF808004FF2234090
:1006E0000190FFE7FFE7BDF8080040F24801C2F2C1
:1006F00000010988884209D1FFE7019840F24401CE
:10070000C2F200010968884229D0FFE7BDF808104D
:1007100040F25020C2F20000009041600199C16097
:1007200001F012FE009801F0E9FC08B1FFE7FFE7D5
:1007300040F25020C2F2000001F06CFD08B1FFE76A
:10074000FFE7BDF8080040F24801C2F2000108804E
:10075000019840F24401C2F200010860FFE7BDF8D1
:100760000A0040F25801C2F20001088004B080BDC6
:1007700081B0009000980068C06C01B07047000024
:1007800080B584B0039003980068006802900398D5
:100790000068406801909DF804008006002841D55B
:1007A000FFE79DF80800800700283AD5FFE7039887
:1007B000806AC006002806D4FFE70399886A40F4DF
:1007C00000708862FFE703980068806800F460208A
:1007D000B0F5602F1CD1FFE70398007BC0B9FFE79D
:1007E00003980168486820F0200048600399886AEF
:1007F00020F4807088620398806AC004002806D4C0
:10080000FFE70399886A40F001008862FFE7FFE78D
:100810000398FFF739FF039801686FF01200086032
:10082000FFE7FFE79DF804000006002851D5FFE729
:100830009DF80800400700284AD5FFE70398806A22
:10084000C006002806D4FFE70399886A40F40050E8
:100850008862FFE703980068806800F4E040B0F524
:10086000E04F14D0FFE70398006840684005002877
:1008700025D4FFE703980068806800F46020B0F595
:10088000602F1CD1FFE70398007BC0B9FFE70398F6
:100890000168486820F0800048600399886A20F465
:1008A000805088620398806AC005002806D4FFE75C
:1008B0000399886A40F001008862FFE7FFE7039828
:1008C000FFF704FE039801686FF00C000860FFE773
:1008D000FFE79DF804004006002814D5FFE79DF8C7
:1008E0000800C00770B1FFE70399886A40F48030C0
:1008F0008862039800F014F9039801686FF0010012
:100900000860FFE7FFE704B080BD000080B588B055
:10091000069000208DF8170004900390029006982E
:1009200020B9FFE701208DF81F00F4E006988068E9
:1009300030B1FFE70698007D08B1FFE7FFE7FFE76A
:100940000698806A50B9FFE706990020C8620699A8
:1009500081F82400069800F0E7F8FFE70698FFF713
:10096000F5FC8DF817000698806AC006002800F193
:10097000C480FFE79DF81700002840F0BE80FFE725
:100980000698806A40F0020020F488500699886238
:1009900006994868CA691043097B40EA41010398F7
:1009A00008430390069881680120B1F5807F01908B
:1009B00008D0FFE7069880680138B0FA80F0400957
:1009C0000190FFE701990498CA0740F48071002A5A
:1009D00018BF084604900698007D01281ED1FFE745
:1009E0000698007B70B9FFE7069881694EF2000017
:1009F000CFF6FF7000EB41300499084340F40060EB
:100A000004900AE00699886A40F0200088620699FE
:100A1000C86A40F00100C862FFE7FFE70698006877
:100A2000406820F4694004990843069909684860C1
:100A30000698006880684FF2FD71CFF6E1710840BA
:100A4000039908430699096888600698816801201F
:100A5000B1F5807F009008D0FFE7069880680138E4
:100A6000B0FA80F040090090FFE7009800F0010024
:100A7000002818BF4FF48070B0F5807F09D1FFE7E0
:100A8000069801690020CFF6F07000EB015002904B
:100A9000FFE706980068C06A20F4700002990843D6
:100AA00006990968C86206980068806840F6FE6189
:100AB000CFF61F710840039988420CD1FFE70699D1
:100AC0000020C8620698806A40F0010020F0020011
:100AD0000699886210E00698806A40F0100020F0C5
:100AE0000200069988620699C86A40F00100C8624F
:100AF00001208DF81700FFE708E00699886A40F0AA
:100B00001000886201208DF81700FFE79DF817009C
:100B10008DF81F00FFE79DF81F0008B080BD0000A2
:100B200081B0009001B0704780B58CB00B90002070
:100B30000A900990089007900B98006842F20041D3
:100B4000C4F20101884233D1FFE7FFE741F2180008
:100B5000C4F20200016841F400710160006800F411
:100B6000007006900698FFE7FFE741F21800C4F214
:100B70000200016841F004010160006800F0040017
:100B800005900598FFE7102007900320089040F695
:100B90000000C4F2010007A900F0B2F9122002908F
:100BA0000022114600F0E2FB029800F0D5FB3CE089
:100BB0000B98006842F60001C4F20101884233D16B
:100BC000FFE7FFE741F21800C4F20200016841F4B8
:100BD00080610160006800F4806004900498FFE781
:100BE000FFE741F21800C4F20200016841F004017D
:100BF0000160006800F0040003900398FFE7012003
:100C000007900320089040F60000C4F2010007A9F5
:100C100000F076F9122001900022114600F0A6FBA8
:100C2000019800F099FBFFE7FFE70CB080BD0000E2
:100C300080B584B0029000208DF80700FFE702988D
:100C400090F82400012804D1FFE702208DF80F005E
:100C5000CBE00299012081F82400FFE7FFE702982A
:100C6000FFF7B6FB8DF807009DF80700002840F05D
:100C7000B080FFE70298806A40F4807040F601611E
:100C80008843029988620298006842F60001C4F223
:100C90000101884209D1FFE742F20440C4F2010099
:100CA000006810F4702F03D018E00020B0B9FFE7FF
:100CB0000299886A20F4801088620298006840686F
:100CC0004005002809D5FFE70298806A40F480506B
:100CD00020F4005002998862FFE72CE00299886AAC
:100CE00040F4801088620298006842F20041C4F229
:100CF0000101884209D0FFE70298006842F600012E
:100D0000C4F20101884209D1FFE742F20440C4F273
:100D1000010000684005002803D40BE0012048B919
:100D2000FFE70298806A40F4805020F40050029956
:100D30008862FFE7FFE70298806AC004002806D5B2
:100D4000FFE70299C86A20F00600C86203E0029932
:100D50000020C862FFE7FFE70299002081F8240025
:100D6000FFE7029801686FF00200086002980168CE
:100D7000486840F02000486002980068806800F4ED
:100D80006020B0F5602F1CD1FFE70298006842F6A2
:100D90000001C4F20101884209D1FFE742F2044098
:100DA000C4F20100006810F4702F03D009E00020A5
:100DB00038B9FFE702980168886840F4A0008860AD
:100DC00006E002980168886840F480108860FFE7B8
:100DD00006E0FFE70299002081F82400FFE7FFE723
:100DE0009DF807008DF80F00FFE79DF80F0004B095
:100DF00080BD000080B584B0039000F01BFA029023
:100E0000039801900198013048B1FFE740F25A0081
:100E1000C2F200000178019808440190FFE7FFE763
:100E200000F008FA0299401A0199884201D2FFE7BE
:100E3000F6E704B080BD000080B582B0ADF80600D2
:100E4000BDF80600B0F5006F39D1FFE740F254005D
:100E5000C2F200000068013098B1FFE740F2540090
:100E6000C2F20000016840F24A00C2F2000030F80D
:100E7000111040F60040C4F20100002200F0C2F957
:100E8000FFE7FFF799F9C11700EB917121F003011A
:100E9000401A0090009940F24A00C2F2000030F877
:100EA000111040F60040C4F20100012200F0AAF93E
:100EB000009840F25401C2F20001086001E000BF56
:100EC000FFE702B080BD000080B582B0ADF806003B
:100ED00040F21440C4F201000068BDF80610084258
:100EE0000CD0FFE7BDF8060040F21441C4F2010146
:100EF0000860BDF80600FFF79FFFFFE702B080BD66
:100F00008FB00E900D9100200C900890FFE70D9887
:100F100000680C99C840002800F07181FFE70C9927
:100F2000012088400B900D9800680B9908400A90AA
:100F30000A980B99884240F05E81FFE70D9840685F
:100F40000490002851D0FFE7049801283AD0FFE729
:100F5000049802283FD0FFE7049803285FD0FFE7FA
:100F60000498112832D0FFE70498122838D0FFE700
:100F700004980021C1F21101884236D0FFE704989D
:100F80000021C1F2120188422FD0FFE7049800210E
:100F9000C1F22101884228D0FFE704980021C1F264
:100FA0002201884221D0FFE704980021C1F23101DB
:100FB00088421AD0FFE704980021C1F2320188422A
:100FC00013D02FE00D98C06808902CE00D98C068F1
:100FD0000430089027E00D98C0680830089022E09F
:100FE0000D98C0680C3008901DE00D98806818B905
:100FF000FFE70420089011E00D988068012806D1D1
:10100000FFE7082008900B980E99086105E008207A
:1010100008900B980E994861FFE7FFE703E0002076
:10102000089000E0FFE70A98FF2803D8FFE70E9832
:10103000039003E00E9804300390FFE703980790B5
:101040000A98FF2804D8FFE70C988000029006E079
:101050000C996FF01F0000EB81000290FFE70298EF
:10106000069007980068069A0F21914088430899D6
:1010700091400843079908600D98C079C006002880
:1010800040F1B880FFE7FFE741F21800C4F2020028
:10109000016841F001010160006800F00100059065
:1010A0000598FFE70C9820F003000821C4F2010125
:1010B000405809900C9800F0030081000F2000FABE
:1010C00001F10998884309900E9840F60001C4F296
:1010D0000101884203D1FFE70020019018E00E983B
:1010E00040F60041C4F20101884203D1FFE701202C
:1010F00000900AE00E9941F20002C4F201020320BE
:10110000914208BF02200090FFE700980190FFE79E
:1011100001980C9901F00301890000FA01F1099886
:101120000843099009980C9921F003010822C4F2A0
:10113000010288500D988079C006002809D5FFE784
:101140000A9A40F20841C4F201010868104308609D
:1011500008E00A9A40F20841C4F20101086890438D
:101160000860FFE70D9880798006002809D5FFE721
:101170000A9A40F20C41C4F2010108681043086069
:1011800008E00A9A40F20C41C4F201010868904359
:101190000860FFE70D9880798007002809D5FFE7F0
:1011A0000A9A40F20441C4F2010108681043086041
:1011B00008E00A9A40F20441C4F201010868904331
:1011C0000860FFE70D988079C00748B1FFE70A9AE9
:1011D00040F20041C4F2010108681043086008E0D1
:1011E0000A9A40F20041C4F2010108689043086085
:1011F000FFE7FFE7FFE70C9801300C9087E60FB0A0
:101200007047000082B00190ADF802108DF8012007
:101210009DF8010028B1FFE7BDF8020001990861BF
:1012200005E0BDF80200000401990861FFE702B083
:101230007047000040F2E020C2F2000000687047F2
:1012400040F25A00C2F20000027840F2E021C2F2FD
:1012500000010868104408607047000080B542F241
:101260000001C4F20201086840F010000860032089
:1012700000F096F80F2000F005F800F03BF8002091
:1012800080BD000080B582B0009040F24000C2F204
:101290000000006840F25A01C2F200010A784FF4DF
:1012A0007A71B1FBF2F1B0FBF1F000F057FE20B122
:1012B000FFE701208DF8070018E000980F280DD8EF
:1012C000FFE700994FF0FF30002200F04FF8009840
:1012D00040F25C01C2F20001086003E001208DF8D9
:1012E000070003E000208DF80700FFE79DF80700E6
:1012F00002B080BD83B0FFE741F21800C4F20200E3
:10130000016841F001010160006800F001000290F5
:101310000298FFE7FFE741F21C00C4F202000168F7
:1013200041F080510160006800F080500190019808
:10133000FFE7FFE70421C4F201010868009000986C
:1013400020F0E0600090009840F00070009000985D
:101350000860FFE703B0704780B582B08DF80700E2
:101360009DF9070002F0D2F902B080BD80B586B0C9
:101370008DF81700049103920020029002F0DEF92C
:1013800002909DF91700019002980499039A01F0C8
:1013900019FE0146019802F0D9F906B080BD00009F
:1013A00080B582B00190019802F0F2F902B080BDE0
:1013B00080B586B0049000200390029004980078D5
:1013C000C007002800F0AC80FFE700208DF8070080
:1013D00041F21C00C4F202000068C000002813D4CF
:1013E000FFE7FFE741F21C00C4F20200016841F090
:1013F00080510160006800F0805000900098FFE785
:1014000001208DF80700FFE747F20000C4F200005A
:101410000068C005002822D4FFE747F20001C4F2AB
:101420000001086840F480700860FFF703FF039034
:10143000FFE747F20000C4F200000068C005002882
:101440000CD4FFE7FFF7F6FE0399401A652804D392
:10145000FFE703208DF817008AE0EAE7FFE741F293
:101460002000C4F20200006800F44070029002986C
:10147000E0B3FFE702980499496801F4407188429B
:1014800034D0FFE741F22001C4F20201086820F4E1
:101490004070029040F24042C4F2422201201060AB
:1014A00000201060029808609DF80800C007E0B1B5
:1014B000FFE7FFF7BFFE0390FFE741F22000C4F211
:1014C00002000068800700280ED4FFE7FFF7B2FE95
:1014D0000399401A41F28931884204D3FFE703207F
:1014E0008DF8170044E0E8E7FFE7FFE741F220014D
:1014F000C4F20201086820F44070049A5268104354
:1015000008609DF80700012809D1FFE741F21C019E
:10151000C4F20201086820F080500860FFE7FFE78E
:1015200004980078800700280CD5FFE741F20401F9
:10153000C4F20201086820F44040049A9268104303
:101540000860FFE704980078C00600280CD5FFE784
:1015500041F20401C4F20201086820F48000049AF8
:10156000D26810430860FFE700208DF81700FFE7FE
:101570009DF8170006B080BD80B584B0029001913F
:10158000029820B9FFE701208DF80F001BE10198B8
:1015900042F20001C4F20201096801F00701884229
:1015A00016D9FFE742F20000C4F20200016821F000
:1015B0000701019A11430160006800F007000199DA
:1015C000884204D0FFE701208DF80F00FBE0FFE721
:1015D00002980078800700282AD5FFE70298007853
:1015E0004007002809D5FFE741F20401C4F20201D7
:1015F000086840F4E0600860FFE7029800780007A0
:10160000002809D5FFE741F20401C4F2020108688D
:1016100040F460500860FFE741F20401C4F20201A7
:10162000086820F0F000029A926810430860FFE713
:1016300002980078C007002860D0FFE70298406851
:1016400001280ED1FFE741F20000C4F20200006859
:101650008003002804D4FFE701208DF80F00B2E0DA
:1016600021E00298406802280ED1FFE741F2000015
:10167000C4F2020000688001002804D4FFE70120C2
:101680008DF80F009FE00DE041F20000C4F202006F
:1016900000688007002804D4FFE701208DF80F00C0
:1016A00091E0FFE7FFE741F20401C4F2020108689C
:1016B00020F00300029A526810430860FFF7BAFD59
:1016C0000090FFE741F20400C4F20200006800F05D
:1016D0000C0002994968B0EB810F0ED0FFE7FFF7CD
:1016E000A9FD0099401A41F28931884204D3FFE7ED
:1016F00003208DF80F0066E0E4E7FFE7019842F26F
:101700000001C4F20201096801F00701884216D203
:10171000FFE742F20000C4F20200016821F0070175
:10172000019A11430160006800F0070001998842A6
:1017300004D0FFE701208DF80F0044E0FFE7029896
:101740000078400700280CD5FFE741F20401C4F2FD
:101750000201086820F4E060029AD2681043086031
:10176000FFE702980078000700280DD5FFE741F257
:101770000401C4F20201086820F46050029A126960
:1017800040EAC2000860FFE700F04CF841F20401B3
:10179000C4F202010968C9B20A0943F6A051C0F6B1
:1017A0000001895CC84040F24001C2F200010860BB
:1017B00040F25C00C2F200000068FFF763FD002009
:1017C0008DF80F00FFE79DF80F0004B080BD00000A
:1017D00040F24000C2F200000068704780B5FFF799
:1017E000F7FF41F20401C4F202010968C1F30222C9
:1017F00043F6B051C0F60001895CC84080BD0000CE
:1018000080B5FFF7E5FF41F20401C4F20201096867
:10181000C1F3C22243F6B051C0F60001895CC84052
:1018200080BD000086B000200590049003900290D7
:10183000019041F20400C4F202000068059005988E
:1018400000F00C000146009100283FD0FFE700980F
:10185000042804D0FFE70098082806D037E041F2BA
:101860000020C0F27A00019037E00598C0F3834170
:1018700043F6B850C0F60000405C02909DF8160098
:10188000C007C0B1FFE741F20400C4F202000068E3
:10189000C0F3404143F6C850C0F60000405C0490DD
:1018A000029841F20021C0F27A0148430499B0FB4A
:1018B000F1F0039007E0029840F60011C0F23D01FC
:1018C00048430390FFE70398019006E0FFE741F2E9
:1018D0000020C0F27A000190FFE7019806B070473F
:1018E00080B586B00490049820B9FFE701208DF8F8
:1018F00017002EE304980078C007002800F0AE809F
:10190000FFE741F20400C4F20200006800F00C009E
:10191000042813D0FFE741F20400C4F2020000687B
:1019200000F00C0008281BD1FFE741F20400C4F2CC
:1019300002000068C003002812D5FFE741F2000052
:10194000C4F2020000688003002808D5FFE704986D
:10195000406820B9FFE701208DF81700F9E27CE02C
:10196000FFE704984068B0F5803F09D1FFE741F2F6
:101970000001C4F20201086840F48030086032E0DF
:101980000498406868B9FFE741F20001C4F202011F
:10199000086820F480300860086820F4802008601F
:1019A00020E004984068B0F5A02F0DD1FFE741F288
:1019B0000001C4F20201086840F480200860086851
:1019C00040F4803008600CE041F20001C4F20201F2
:1019D000086820F480300860086820F480200860DF
:1019E000FFE7FFE7FFE7FFE704984068D0B1FFE7B4
:1019F000FFF720FC0390FFE741F20000C4F2020071
:101A00000068800300280CD4FFE7FFF713FC03995C
:101A1000401A652804D3FFE703208DF8170098E2E9
:101A2000EAE719E0FFF706FC0390FFE741F2000048
:101A3000C4F202000068800300280CD5FFE7FFF71E
:101A4000F9FB0399401A652804D3FFE703208DF8BA
:101A500017007EE2EAE7FFE7FFE7FFE70498007878
:101A60008007002840F18D80FFE741F20400C4F2B6
:101A70000200006810F00C0F13D0FFE741F20400E1
:101A8000C4F20200006800F00C00082829D1FFE72A
:101A900041F20400C4F202000068C003002820D410
:101AA000FFE741F20000C4F202000068800700284E
:101AB00009D5FFE704980069012804D0FFE7012059
:101AC0008DF8170045E241F20001C4F202010868F6
:101AD00020F0F800049A526940EAC2000860FFE76B
:101AE0004EE00498006958B3FFE70021C4F2422198
:101AF00001200860FFF79EFB0390FFE741F2000022
:101B0000C4F202000068800700280CD4FFE7FFF74A
:101B100091FB0399401A032804D3FFE703208DF8B3
:101B2000170016E2EAE741F20001C4F20201086878
:101B300020F0F800049A526940EAC20008601EE0F2
:101B40000021C4F2422100200860FFF773FB0390DC
:101B5000FFE741F20000C4F202000068800700289D
:101B60000CD5FFE7FFF766FB0399401A032804D35F
:101B7000FFE703208DF81700EBE1EAE7FFE7FFE757
:101B8000FFE7049800780007002848D5FFE704988D
:101B9000806918B3FFE740F28041C4F2422101207E
:101BA0000860FFF747FB0390FFE741F22400C4F20F
:101BB00002000068800700280CD4FFE7FFF73AFB1B
:101BC0000399401A032804D3FFE703208DF8170078
:101BD000BFE1EAE7012001F02DFA1FE040F2804169
:101BE000C4F2422100200860FFF724FB0390FFE7C6
:101BF00041F22400C4F202000068800700280CD5DE
:101C0000FFE7FFF717FB0399401A032804D3FFE708
:101C100003208DF817009CE1EAE7FFE7FFE704984F
:101C200000784007002840F1D880FFE700208DF8B9
:101C3000070041F21C00C4F202000068C000002846
:101C400013D4FFE7FFE741F21C00C4F20200016871
:101C500041F080510160006800F0805000900098D1
:101C6000FFE701208DF80700FFE747F20000C4F20C
:101C700000000068C005002822D4FFE747F20001F9
:101C8000C4F20001086840F480700860FFF7D2FADF
:101C90000390FFE747F20000C4F200000068C005AF
:101CA00000280CD4FFE7FFF7C5FA0399401A65280E
:101CB00004D3FFE703208DF817004AE1EAE7FFE7C6
:101CC000FFE70498C068012809D1FFE741F220012D
:101CD000C4F20201086840F00100086031E0049895
:101CE000C06868B9FFE741F22001C4F20201086848
:101CF00020F001000860086820F0040008601FE080
:101D00000498C06805280DD1FFE741F22001C4F214
:101D10000201086840F004000860086840F0010013
:101D200008600CE041F22001C4F20201086820F0D2
:101D300001000860086820F004000860FFE7FFE782
:101D4000FFE7FFE70498C068E0B1FFE7FFF772FA2A
:101D50000390FFE741F22000C4F202000068800710
:101D600000280ED4FFE7FFF765FA0399401A41F205
:101D70008931884204D3FFE703208DF81700E8E09B
:101D8000E8E71BE0FFF756FA0390FFE741F2200077
:101D9000C4F202000068800700280ED5FFE7FFF7B5
:101DA00049FA0399401A41F28931884204D3FFE786
:101DB00003208DF81700CCE0E8E7FFE79DF8070067
:101DC000012809D1FFE741F21C01C4F202010868B1
:101DD00020F080500860FFE7FFE70498C069002802
:101DE00000F0B380FFE741F20400C4F20200006893
:101DF00000F00C00082800F08280FFE70498C0691A
:101E000002285CD1FFE76021C4F242210020086073
:101E1000FFF710FA0390FFE741F20000C4F202005E
:101E20000068800100280CD5FFE7FFF703FA03994B
:101E3000401A032804D3FFE703208DF8170088E039
:101E4000EAE70498006AB0F5803F0CD1FFE741F261
:101E50000401C4F20201086820F40030049A926878
:101E600010430860FFE741F20401C4F20201086870
:101E700020F47410049B1A6A5B6A1A4310430860CA
:101E80006021C4F2422101200860FFF7D3F90390DA
:101E9000FFE741F20000C4F2020000688001002860
:101EA0000CD4FFE7FFF7C6F90399401A032804D3BF
:101EB000FFE703208DF817004BE0EAE71EE0602102
:101EC000C4F2422100200860FFF7B4F90390FFE755
:101ED00041F20000C4F202000068800100280CD525
:101EE000FFE7FFF7A7F90399401A032804D3FFE798
:101EF00003208DF817002CE0EAE7FFE724E00498C0
:101F0000C069012804D1FFE701208DF8170020E007
:101F100041F20400C4F2020000680290029800F44A
:101F200080300499096A884208D1FFE7029800F4DA
:101F300070100499496A884204D0FFE701208DF8A7
:101F4000170006E0FFE7FFE7FFE700208DF8170026
:101F5000FFE79DF8170006B080BD000080B582B095
:101F60000190019801F086F802B080BD81B0009028
:101F700001B0704781B0009001B0704784B002900A
:101F8000019100200090FFE7029890F83C000128A2
:101F900004D1FFE702208DF80F0044E002990120F0
:101FA00081F83C00FFE7FFE7009820F0FF0001996F
:101FB000C96808430090009820F44070019989682E
:101FC00008430090009820F4806001994968084314
:101FD0000090009820F4006001990968084300907F
:101FE000009820F4805001990969084300900098F6
:101FF00020F400500199496908430090009820F4AA
:1020000080400199C96908430090009802990968C5
:102010004864FFE70299002081F83C00FFE70020B8
:102020008DF80F00FFE79DF80F0004B07047000027
:1020300085B003900291FFE7039890F83C000128D7
:1020400004D1FFE702208DF8130052E0039901202C
:1020500081F83C00FFE7FFE70399022081F83D008B
:1020600003980068406801900398006880680090B9
:10207000019820F0700001900298016801980843CF
:10208000019001980399096848600398006842F636
:102090000041C4F2010188420FD0FFE703980068B5
:1020A000B0F1804F09D0FFE70398006840F200418B
:1020B000C4F2000188420ED1FFE7009820F08000B2
:1020C0000090029841680098084300900098039996
:1020D00009688860FFE70399012081F83D00FFE768
:1020E0000399002081F83C00FFE700208DF81300E1
:1020F000FFE79DF8130005B07047000080B582B07F
:102100000090009820B9FFE701208DF807003FE01C
:10211000009890F83D0040B9FFE70099002081F851
:102120003C00009800F038F8FFE70099022081F8A1
:102130003D00009951F8040B01F012F800990120BC
:1021400081F84600FFE70099012081F83E000099E0
:1021500081F83F00009981F84000009981F8410022
:10216000FFE7FFE70099012081F84200009981F81C
:102170004300009981F84400009981F84500FFE789
:102180000099012081F83D0000208DF80700FFE74D
:102190009DF8070002B080BD80B584B0039003981D
:1021A000006842F60041C4F20101884210D1FFE705
:1021B000FFE741F21800C4F20200016841F4006137
:1021C0000160006800F4006002900298FFE71FE0E1
:1021D00003980068B0F1804F19D1FFE7FFE741F2A3
:1021E0001C00C4F20200016841F0010101600068B6
:1021F00000F0010001900198FFE71C2000900022F0
:102200001146FFF7B3F80098FFF7A6F8FFE7FFE7DE
:1022100004B080BD83B00190019890F83D00012882
:1022200004D0FFE701208DF80B0038E0019902206F
:1022300081F83D000198006842F60041C4F20101B6
:1022400088420FD0FFE701980068B0F1804F09D0B5
:10225000FFE70198006840F20041C4F200018842A3
:1022600012D1FFE701980068806800F00700009035
:102270000098062807D0FFE701980168086840F039
:1022800001000860FFE706E001980168086840F077
:1022900001000860FFE700208DF80B00FFE79DF8C4
:1022A0000B0003B07047000083B00190019890F8D4
:1022B0003D00012804D0FFE701208DF80B003EE02F
:1022C0000199022081F83D0001980168C86840F03A
:1022D0000100C8600198006842F60041C4F20101A3
:1022E00088420FD0FFE701980068B0F1804F09D015
:1022F000FFE70198006840F20041C4F20001884203
:1023000012D1FFE701980068806800F00700009094
:102310000098062807D0FFE701980168086840F098
:1023200001000860FFE706E001980168086840F0D6
:1023300001000860FFE700208DF80B00FFE79DF823
:102340000B0003B07047000081B00090FFE70098D9
:102350000068006A41F21111084210D1FFE70098AD
:102360000068006A40F24441084207D1FFE7009844
:102370000168086820F001000860FFE7FFE7FFE759
:102380000099012081F83D00002001B07047000055
:1023900080B586B00490039100208DF80B00FFE714
:1023A000049890F83C00012804D1FFE702208DF842
:1023B0001700ABE00499012081F83C00FFE7FFE73C
:1023C0000499022081F83D0004980068806801901B
:1023D000019820F077000190019820F47F4001904F
:1023E00001980499096888600398006800900028A3
:1023F00072D0FFE7009810286ED0FFE700982028E1
:102400006AD0FFE70098302866D0FFE700984028A0
:1024100055D0FFE70098502837D0FFE70098602894
:1024200040D0FFE7009870280BD0FFE70098B0F588
:10243000805F05D0FFE70098B0F5005F16D052E04E
:1024400055E004980068039B5A689968DB6800F0BF
:10245000EFFE0498006880680190019840F07700D2
:102460000190019804990968886040E00498006828
:10247000039B5A689968DB6800F0DAFE04980168EB
:10248000886840F48040886031E004980068039ACE
:102490005168D26801F088F804980068502100F073
:1024A000E1FE24E004980068039A5168D26801F0C4
:1024B000A3F804980068602100F0D4FE17E00498A7
:1024C0000068039A5168D26801F06EF804980068B9
:1024D000402100F0C7FE0AE00498006803990968EB
:1024E00000F0C0FE03E001208DF80B00FFE7049927
:1024F000012081F83D00FFE70499002081F83C00AD
:10250000FFE79DF80B008DF81700FFE79DF8170017
:1025100006B080BD81B0009001B0704780B582B038
:10252000019001980068006900F002010020B0EB02
:10253000510F28D0FFE701980068C06800F0020141
:102540000020B0EB510F1DD0FFE7019801686FF03C
:1025500002000861019901200877019800688069EC
:10256000800720B1FFE70198FFF7D4FF06E001984C
:1025700000F042F9019800F037FAFFE701990020D6
:102580000877FFE7FFE701980068006900F00401A1
:102590000020B0EB910F29D0FFE701980068C068D8
:1025A00000F004010020B0EB910F1ED0FFE701986E
:1025B00001686FF004000861019902200877019812
:1025C0000068806910F4407F04D0FFE70198FFF7AE
:1025D000A1FF06E0019800F00FF9019800F004FA5D
:1025E000FFE7019900200877FFE7FFE701980068FF
:1025F000006900F008010020B0EBD10F28D0FFE700
:1026000001980068C06800F008010020B0EBD10F0D
:102610001DD0FFE7019801686FF00800086101997B
:102620000420087701980068C069800720B1FFE79F
:102630000198FFF76FFF06E0019800F0DDF80198C0
:1026400000F0D2F9FFE7019900200877FFE7FFE7E4
:1026500001980068006900F010010020B0EB111F24
:1026600029D0FFE701980068C06800F01001002041
:10267000B0EB111F1ED0FFE7019801686FF010004A
:10268000086101990820087701980068C06910F472
:10269000407F04D0FFE70198FFF73CFF06E0019878
:1026A00000F0AAF8019800F09FF9FFE701990020D7
:1026B0000877FFE7FFE7019800680069C00780B16D
:1026C000FFE701980068C068C00748B1FFE70198BC
:1026D00001686FF001000861019800F089F9FFE7D7
:1026E000FFE7019800680069C1B20020B0EBD11F7C
:1026F00013D0FFE701980068C068C1B20020B0EBBA
:10270000D11F09D0FFE7019801686FF080000861D0
:102710000198FFF72BFCFFE7FFE7019800680069CD
:1027200000F040010020B0EB911F14D0FFE70198AA
:102730000068C06800F040010020B0EB911F09D094
:10274000FFE7019801686FF040000861019800F010
:10275000B9F9FFE7FFE701980068006900F0200180
:102760000020B0EB511F14D0FFE701980068C0684B
:1027700000F020010020B0EB511F09D0FFE70198C5
:1027800001686FF0200008610198FFF7F3FBFFE795
:10279000FFE702B080BD000080B586B00590002044
:1027A00004900390029001900598006842F6004161
:1027B000C4F2010188421DD1FFE7FFE741F2180092
:1027C000C4F20200016841F004010160006800F0F9
:1027D000040000900098FFE74FF400600190022091
:1027E0000290049040F60000C4F2010001A9FEF737
:1027F00087FBFFE706B080BD81B0009001B0704755
:1028000080B586B004900391029200208DF80700F5
:10281000FFE7049890F83C00012804D1FFE702206C
:102820008DF8170089E00499012081F83C00FFE74A
:10283000FFE7029800900C2800F270800099DFE812
:1028400001F0076D6D6D206D6D6D3A6D6D6D53000E
:1028500004980068039900F01BFD049801688869DA
:1028600040F00800886104980168886920F004003D
:102870008861039802690498016888691043886137
:1028800050E004980068039900F06AFD049801681C
:10289000886940F40060886104980168886920F4C0
:1028A000806088610398026904980168886940EA39
:1028B0000220886136E004980068039900F0BCFDAE
:1028C00004980168C86940F00800C861049801686C
:1028D000C86920F00400C86103980269049801687F
:1028E000C8691043C8611DE004980068039900F0AE
:1028F0000FFE04980168C86940F40060C86104983C
:102900000168C86920F48060C8610398026904986E
:102910000168C86940EA0220C86103E001208DF81F
:102920000700FFE7FFE70499002081F83C00FFE77C
:102930009DF807008DF81700FFE79DF8170006B017
:1029400080BD000080B582B00090009820B9FFE7FC
:1029500001208DF807003FE0009890F83D0040B955
:10296000FFE70099002081F83C00009800F038F85B
:10297000FFE70099022081F83D00009951F8040B0F
:1029800000F0EEFB0099012081F84600FFE7009976
:10299000012081F83E00009981F83F00009981F8FC
:1029A0004000009981F84100FFE7FFE7009901200E
:1029B00081F84200009981F84300009981F84400B1
:1029C000009981F84500FFE70099012081F83D005A
:1029D00000208DF80700FFE79DF8070002B080BDDA
:1029E00081B0009001B0704781B0009001B0704795
:1029F00080B586B0059005980068B0F1804F5ED133
:102A0000FFE740F25400C2F200000068013098B1C4
:102A1000FFE740F25400C2F20000016840F24A00B1
:102A2000C2F2000030F8111040F60040C4F201007C
:102A30000022FEF7E7FBFFE7FDF7BEFBC11700EB47
:102A4000917121F00301401A0490FDF7B5FBC11705
:102A500000EB917121F00301401A0390049940F2B8
:102A60004A00C2F2000030F8111040F60040C4F2F3
:102A7000010001220292FEF7C5FB0299039840F281
:102A8000A412C2F200020192106043F6D252C0F6C4
:102A90000002084601F034F901980299026840F2F8
:102AA0000000C2F2000000EB0212022001F028F93F
:102AB000049840F25401C2F200010860FFE706B03A
:102AC00080BD000081B0009001B0704780B582B039
:102AD0000090009820B9FFE701208DF8070040E042
:102AE0000098806908B1FFE700E0FFE7009890F8E0
:102AF000410040B9FFE70099002081F840000098AC
:102B000000F034F8FFE70099242081F84100009894
:102B10000168C86820F40050C860009800F096FD75
:102B200000980168086920F49040086100980168E5
:102B3000486920F02A00486100980168C86840F49C
:102B40000050C860009900204864009A202182F853
:102B50004110009A82F84210009948638DF80700EE
:102B6000FFE79DF8070002B080BD000080B58AB085
:102B70000990002008900790069005900998006839
:102B800043F60001C4F20101884239D1FFE7FFE7B3
:102B900041F21800C4F20200016841F48041016072
:102BA000006800F4804004900498FFE7FFE741F2DA
:102BB0001800C4F20200016841F0040101600068DD
:102BC00000F0040003900398FFE74FF400700590B5
:102BD000022006900320089040F60000C4F2010095
:102BE000019005A90291FEF78BF9019802994FF423
:102BF00080620592002206920792FEF781F9FFE7B4
:102C00000AB080BDFFE7FEE780B584B000220392E2
:102C10000292019240F2A810C2F20000009042F22B
:102C20000041C4F20101016082600121017302755B
:102C30004FF46023C36142600161FDF767FE18B184
:102C4000FFE7FDF73BFCFFE7042001900120029025
:102C50000020039040F2A810C2F2000001A9FDF785
:102C600039FC18B1FFE7FDF729FCFFE704B080BD90
:102C700080B584B0002103910291019140F2D810F7
:102C8000C2F20000009042F60002C4F201020260AB
:102C90008160017301754FF46022C26141600121BE
:102CA0000161FDF733FE18B1FFE7FDF707FCFFE711
:102CB0000020019001210291039040F2D810C2F24D
:102CC000000001A9FDF706FC18B1FFE7FDF7F6FBD0
:102CD000FFE704B080BD000080B590B000200F90E9
:102CE0000E900D900C90FFE741F21800C4F2020024
:102CF000016841F020010160006800F020000B90A5
:102D00000B98FFE7FFE741F21800C4F202000168E8
:102D100041F004010160006800F004000A900A9884
:102D2000FFE7FFE741F21800C4F20200016841F03A
:102D300008010160006800F0080009900998FFE7A9
:102D400040F60000C4F201000190C621009100226B
:102D50000792FEF757FA079A40F60040C4F20100C6
:102D600005904FF203010491FEF74CFA009A019886
:102D700007990C92012202920D920E910221039169
:102D80000F910CA90691FEF7BBF8DDF808C0039A75
:102D900005980699079BDDF810E0CDF830E0CDF8F6
:102DA00034C00E930F92FEF7ABF805980699079A78
:102DB0004FF400630C930023C1F211030D930E92A4
:102DC000FEF79EF8079A282008901146FEF7CEFAE3
:102DD0000898FEF7C1FA10B080BD000080B598B029
:102DE000002101911791169115911491139112914F
:102DF000119110910F910E910D910C910B910A91DF
:102E0000099108910791069105910491039140F26F
:102E10000820C2F20000029042F60042C4F2010211
:102E20000260416081604FF6FF72C26001614161E2
:102E30008161FFF763F918B1FFE7FDF73FFBFFE79B
:102E40004FF48050149040F20820C2F2000014A900
:102E5000FFF79EFA18B1FFE7FDF730FBFFE740F2FE
:102E60000820C2F20000FFF76DFD18B1FFE7FDF783
:102E700025FBFFE700201290139040F20820C2F2D9
:102E8000000012A9FFF7D4F818B1FFE7FDF716FB11
:102E9000FFE760200B9000200C900D900F90109099
:102EA000119040F20820C2F200000BA90C22FFF79B
:102EB000A7FC18B1FFE7FDF701FBFFE70020039037
:102EC00004900590069007904FF4005108910A90E5
:102ED00040F20820C2F2000003A9FFF74FF818B132
:102EE000FFE7FDF7EBFAFFE740F20820C2F200002F
:102EF000FFF752FC18B080BD80B588B00021019169
:102F000007910691059104910391029140F250209E
:102F1000C2F200004FF0804202607C224260816079
:102F20004FF6FF12C260016180218161FFF7E6F870
:102F300018B1FFE7FDF7C2FAFFE74FF480500490A5
:102F400040F25020C2F2000004A9FFF721FA18B1A4
:102F5000FFE7FDF7B3FAFFE710200290002003908F
:102F600040F25020C2F2000002A9FFF761F818B148
:102F7000FFE7FDF7A3FAFFE708B080BD80B582B098
:102F800040F29820C2F20000019043F60001C4F222
:102F9000010101604FF4E131416000218160C160B5
:102FA00001610C2242618161C161FFF78FFD18B19F
:102FB000FFE7FDF783FAFFE702B080BDFFE7FEE71A
:102FC000FFE7FEE788B0079006910592079800F0AA
:102FD000070004900498C0F10700052803D3FFE719
:102FE0000420019004E00498C0F107000190FFE77D
:102FF0000198039004980430062803D8FFE70020C6
:10300000009003E0049803380090FFE700980290D6
:1030100006980399012202FA01F101390840029B46
:10302000984005999A40013A1140084308B070470A
:103030007047000082B00190019840F24001C2F256
:1030400000010968C90844F6D352C1F26202A1FB2B
:103050000221890948430090FFE700BFFFE700987D
:10306000411E00910028F8D1FFE702B07047000030
:103070007047000080B582B0009000980138B0F130
:10308000807F03D3FFE70120019019E00098013809
:103090004EF21401CEF2000108604FF0FF300F2114
:1030A00000F054FB4EF21801CEF20001002008603F
:1030B0004EF21002CEF20002072111600190FFE7EC
:1030C000019802B080BD000080B5FEF7B9F880BD60
:1030D00080B596B00CA801902821FDF7C5F801989D
:1030E000002102910B910A91099108910791069193
:1030F00005910491039102220C9201221092102258
:1031000011921391FEF7ECFB18B1FFE7FDF7D6F92A
:10311000FFE70F2007900021089109910A910B9178
:1031200007A8FEF729FA18B1FFE7FDF7C7F9FFE78F
:10313000022003900020059003A8FEF739F918B18A
:10314000FFE7FDF7BBF9FFE716B080BD7047000051
:1031500080B540F25020C2F20000FFF7DFF980BDD9
:1031600083B002900191029800680090029842F6A4
:103170000041C4F2010188420DD0FFE70298B0F18E
:10318000804F08D0FFE7029840F20041C4F20001EE
:1031900088420AD1FFE7009820F070000090019863
:1031A0004168009808430090FFE7029842F600410A
:1031B000C4F2010188420DD0FFE70298B0F1804FC0
:1031C00008D0FFE7029840F20041C4F200018842B3
:1031D0000AD1FFE7009820F4407000900198C16880
:1031E000009808430090FFE7009820F080000199C4
:1031F0004969084300900098029908600198806826
:103200000299C8620198006802998862029842F6A1
:103210000041C4F20101884205D1FFE7019800692D
:1032200002990863FFE702990120486103B07047E3
:1032300085B00490039102920193049880680090F5
:10324000009820F47F40009003980299019A41EA87
:103250000221014300980843009000980499886077
:1032600005B0704783B00290019102988068009089
:10327000009820F07000009001980099084340F0F9
:103280000700009000980299886003B07047000022
:1032900085B0049003910498006A01900499086A2B
:1032A00020F001000862049840680090049880694A
:1032B0000290029820F070000290029820F0030023
:1032C000029003980168029808430290019820F048
:1032D00002000190039881680198084301900498C6
:1032E00042F60041C4F2010188420ED1FFE7019885
:1032F00020F0080001900398C168019808430190EC
:10330000019820F004000190FFE7049842F6004184
:10331000C4F20101884213D1FFE7009820F48070C5
:103320000090009820F40070009003984169009884
:103330000843009003988169009808430090FFE7D4
:10334000009804994860029804998861039840683D
:103350000499486301980499086205B07047000019
:1033600085B0049003910498006A01900499086A5A
:1033700020F010000862049840680090049880696A
:103380000290029820F4E0400290029820F44070ED
:10339000029003980168029840EA01200290019887
:1033A00020F02000019003988168019840EA011004
:1033B0000190049842F60041C4F2010188420FD105
:1033C000FFE7019820F0800001900398C168019800
:1033D00040EA01100190019820F040000190FFE7C1
:1033E000049842F60041C4F20101884215D1FFE77A
:1033F000009820F480600090009820F40060009015
:1034000003984169009840EA81000090039881691F
:10341000009840EA81000090FFE700980499486016
:103420000298049988610398406804998863019818
:103430000499086205B0704785B004900391049820
:10344000006A01900499086A20F480700862049868
:10345000406800900498C0690290029820F07000C3
:103460000290029820F003000290039801680298ED
:1034700008430290019820F400700190039881683D
:10348000019840EA01200190049842F60041C4F2FC
:10349000010188420FD1FFE7019820F400600190FC
:1034A0000398C168019840EA01200190019820F436
:1034B00080600190FFE7049842F60041C4F20101E8
:1034C000884215D1FFE7009820F4805000900098C2
:1034D00020F40050009003984169009840EA0110E0
:1034E000009003988169009840EA01100090FFE77E
:1034F00000980499486002980499C861039840684C
:103500000499C86301980499086205B070470000E7
:1035100085B0049003910498006A01900499086AA8
:1035200020F4805008620498406800900498C069B4
:103530000290029820F4E0400290029820F440703B
:10354000029003980168029840EA012002900198D5
:1035500020F40050019003988168019840EA0130FE
:103560000190049842F60041C4F2010188420BD157
:10357000FFE7009820F4804000900398416900988C
:1035800040EA81100090FFE7009804994860029893
:103590000499C861039840680499086401980499E3
:1035A000086205B07047000085B004900391029254
:1035B0000498006A00900499086A20F001000862EB
:1035C000049880690190019820F0F0000190029920
:1035D000019840EA01100190009820F00A00009044
:1035E0000399009808430090019804998861009815
:1035F0000499086205B0704785B004900391029267
:103600000498006A00900499086A20F0100008628B
:10361000049880690190019820F47040019002990B
:10362000019840EA01300190009820F0A00000903D
:103630000399009840EA011000900198049988616C
:1036400000980499086205B07047000080B584B006
:10365000039003980068006920F44050039A1168B1
:10366000D26810430861039988680A694969104360
:103670000843029003980068C06841F20C618843D7
:103680000299084303990968C86003980068406973
:1036900020F44070039A11689269104348610398BE
:1036A000006843F60001C4F20101884204D1FFE73B
:1036B000FEF7A6F8019003E0FEF790F80190FFE70F
:1036C000019819214843039A116852689200B0FB8F
:1036D000F2FC48F21F52C5F2EB12ACFB0230430978
:1036E000642003FB10CC322000EB0C10A0FB020284
:1036F000F02000EA521000EB0310C2F34312104412
:10370000886004B080BD0000FFE7FEE781B08DF85F
:1037100003009DF9030000280ED4FFE79DF9031074
:1037200001F01F02012090404A094EF20011CEF232
:10373000000141F82200FFE701B070474EF60C503F
:10374000CEF200000068C0F30220704782B08DF80E
:10375000070000919DF9070000280AD4FFE70098B0
:1037600000019DF907104EF20042CEF2000288548B
:103770000BE0009800019DF8071001F00F014EF6D4
:103780001452CEF200028854FFE702B070470000E6
:1037900083B00290029800F0070000904EF60C51A2
:1037A000CEF200010868019001984FF6FF02104028
:1037B00001900198009A40EA02200022C0F2FA52D9
:1037C000104301900198086003B0704780B582B043
:1037D0008DF8070040F60C01C4F201010091086861
:1037E00040F00400086040F61402C4F20102022016
:1037F0001060402111608021116040F61441C4F234
:10380000010101220A60086000F000FA00990868CE
:1038100040F0020008609DF8070000F01001002051
:10382000B0EB111F07D0FFE740F61001C4F2010111
:103830004020086007E040F61001C4F201014FF497
:1038400080000860FFE79DF8070000F020010020DD
:10385000B0EB511F07D0FFE740F61001C4F20101A1
:103860008020086007E040F61001C4F201014FF427
:1038700000000860FFE79DF8070000F0400100200D
:10388000B0EB911F07D0FFE740F61041C4F20101F1
:103890000120086007E040F61041C4F201014FF436
:1038A00080300860FFE79DF807100020B0EBD11FC3
:1038B00007D0FFE740F61041C4F201010220086082
:1038C00007E040F61041C4F201014FF400300860F7
:1038D000FFE700F09BF940F61402C4F20102022057
:1038E0001060402111608021116040F61441C4F243
:1038F000010101220A60086000F088F940F60C011D
:10390000C4F20101086840F0020008609DF8070059
:10391000C00738B1FFE740F61001C4F201014020B2
:10392000086007E040F61001C4F201014FF4800086
:103930000860FFE79DF8070000F002010020B0EBEF
:10394000510F07D0FFE740F61001C4F201018020BB
:10395000086007E040F61001C4F201014FF40000D6
:103960000860FFE79DF8070000F004010020B0EBBD
:10397000910F07D0FFE740F61041C4F2010101208A
:10398000086007E040F61041C4F201014FF48030B6
:103990000860FFE79DF8070000F008010020B0EB89
:1039A000D10F07D0FFE740F61041C4F20101022019
:1039B000086007E040F61041C4F201014FF4003006
:1039C0000860FFE700F022F940F61402C4F2010299
:1039D00002201060402111608021116040F61441E6
:1039E000C4F2010101220A60086002B080BD00003B
:1039F00080B582B08DF8070040F61402C4F20102CF
:103A000004201060022010604021116080211160AC
:103A100040F61441C4F2010101220A60086000F07E
:103A2000F5F840F60C01C4F20101086840F002000C
:103A300008609DF8070000F010010020B0EB111F96
:103A400007D0FFE740F61001C4F2010140200860F2
:103A500007E040F61001C4F201014FF48000086055
:103A6000FFE79DF8070000F020010020B0EB511F98
:103A700007D0FFE740F61001C4F201018020086082
:103A800007E040F61001C4F201014FF400000860A5
:103A9000FFE79DF8070000F040010020B0EB911F08
:103AA00007D0FFE740F61041C4F201010120086091
:103AB00007E040F61041C4F201014FF48030086085
:103AC000FFE79DF807100020B0EBD11F07D0FFE7FC
:103AD00040F61041C4F201010220086007E040F600
:103AE0001041C4F201014FF400300860FFE700F01C
:103AF0008DF840F61402C4F2010202201060402149
:103B000011608021116040F61441C4F201010122CC
:103B10000A60086000F07AF840F60C01C4F2010176
:103B2000086840F0020008609DF80700C00738B13F
:103B3000FFE740F61001C4F201014020086007E0F1
:103B400040F61001C4F201014FF480000860FFE765
:103B50009DF8070000F002010020B0EB510F07D0E4
:103B6000FFE740F61001C4F201018020086007E081
:103B700040F61001C4F201014FF400000860FFE7B5
:103B80009DF8070000F004010020B0EB910F07D072
:103B9000FFE740F61041C4F201010120086007E090
:103BA00040F61041C4F201014FF480300860FFE795
:103BB0009DF8070000F008010020B0EBD10F07D0FE
:103BC000FFE740F61041C4F201010220086007E05F
:103BD00040F61041C4F201014FF400300860FFE7E5
:103BE00000F014F840F61402C4F201020220106042
:103BF000402111608021116040F61441C4F201019E
:103C000001220A60086002B080BD000080B54FF458
:103C10007A70FCF73FFC80BD80B582B08DF807005C
:103C20008DF806109DF80700012807D1FFE79DF8E1
:103C300006007F30C0B2FFF7DBFE0CE09DF8070006
:103C4000022807D1FFE79DF80600BF30C0B2FFF79A
:103C5000CFFEFFE7FFE702B080BD000080B582B075
:103C60008DF807008DF806108DF80520FA20FDF775
:103C7000C1F80220FFF7BCFE32200090FDF7BAF831
:103C80009DF807009DF8061008439DF805100843AD
:103C900040F02000FFF7ACFE0098FDF7ABF80620DF
:103CA000FFF7A6FE0098FDF7A5F80E20FFF7A0FE8F
:103CB0000098FDF79FF80C20FFF79AFE0098FDF79B
:103CC00099F80120FFF794FE6420FDF793F802B005
:103CD00080BD000080B582B00190FFE701980078B8
:103CE00048B1FFE7FFF792FF0198411C019100786E
:103CF000FFF76CFDF2E7FFF789FF02B080BD00001F
:103D000080B582B08DF807008DF8061000929DF8FE
:103D100007009DF80610FFF77FFF0098FFF7DAFF16
:103D200002B080BD80B582B0002000900190FDF708
:103D300095FAFFF7CDF9FEF7CFFFFFF7DDF8FEF7B5
:103D400063FFFEF795FFFFF749F8FFF717F940F219
:103D50005020C2F20000FEF7A7FAFEF755FF40F22E
:103D6000A810C2F20000FCF763FF00990822084681
:103D7000FFF774FF43F6CA52C0F60002022108465C
:103D8000FFF7BEFF4FF4FA70FDF734F8FFE743F694
:103D9000CA52C0F6000202210846FFF7B1FFF6E75B
:103DA00000000000000000000102030406070809EB
:103DB00000000000010203040203040506070809CD
:103DC0000A0B0C0D0E0F101001026D657268616216
:103DD000610074656D707261747572650000000039
:103DE000003E0008000000206000000050010008B4
:103DF000603E000860000020880800007001000894
:103E00003000000000000000000000000000000082
:103E10003100000000000000000000000000000071
:103E20003200000000000000000000000000000060
:103E3000330000000000000000000000000000004F
:103E40000024F400FFFFFFFFFFFF001000200040F0
:103E500000800000FFFFFFFFFFFF010010000000D7
:04000005080000ED02
:00000001FF
