:020000040800F2
:10000000480A002011020008553C00084D3C000839
:10001000513C0008990E0008453E00080000000011
:100020000000000000000000000000005D3C00082F
:10003000A90E000800000000593C0008613C0008BF
:100040002B0200082B0200082B0200082B020008DC
:100050002B0200082B0200082B0200082B020008CC
:100060002B0200082B0200082B0200082B020008BC
:100070002B0200082B0200089D0E00082B0200082E
:100080002B0200082B020008950D00082B02000827
:100090002B0200082B0200082B0200082B0200088C
:1000A0002B0200082B0200082B0200082B0200087C
:1000B000693C00082B020008000000002B02000829
:1000C0002B02000800000000000000002B020008C6
:1000D000000000002D3E0008393E0008000000002E
:1000E000AD0E00082B0200082B02000800F002F8F9
:1000F00000F065F814A696E8000CB244B344DA4563
:1001000001D100F05CF8BAE80F000FA696E83000C5
:10011000A5EB040504EB0607AAEB0704A7F101070A
:100120004FEA15154FEA3414A4F10104AC4201D38F
:1001300000F045F813F0010F18BFFB1A43F001035C
:1001400000F001F8DBE718477458000094580000ED
:10015000103A24BF78C878C1FAD8520724BF30C8F3
:1001600030C144BF04680C60704700007047000055
:100170000023002400250026103A28BF78C1FBD8B0
:10018000520728BF30C148BF0B607047662905F091
:100190004E83642900F0BA80732900F08084002027
:1001A00070471FB500F08BF900F07EFC04000020C2
:1001B000002104F043FFE0601FBD10B510BD00F04A
:1001C00073FD1146FFF7EDFF04F09EF800F091FD7E
:1001D00003B4FFF7F2FF03BC00F0D6FD0B49D1F8E2
:1001E00000C04A685CF8043B1068184442F8040BED
:1001F0008C4528BFA1F1DC0C8A4228BFA1F1DC02AA
:10020000C1F800C04A6020F000407047740100202F
:100210000948804709480047FEE7FEE7FEE7FEE79A
:10022000FEE7FEE7FEE7FEE7FEE7FEE704480549D6
:10023000054A064B70470000653C0008ED000008C9
:1002400048040020480A00204806002048060020F4
:100250000FB41CB5074B06AA7B446946009005986D
:1002600000F0EBFB0020694600F0FAFB1CBC5DF8D7
:1002700014FB0000050800000FB41CB50C0007AA11
:10028000009007D04142A14202D32044401E01E029
:100290004FF0FF30074B7B4469460190069800F011
:1002A000CCFB0020002C01D0009908701CBC5DF82C
:1002B00014FB0000D107000070B50C460546012A6A
:1002C00005D02878800600D5EA69002302E00123E2
:1002D00005E05B1C934202D2E05C0028F9D1A869DA
:1002E000E618C01AA861286A184428622846AFF3A5
:1002F000008004E0D5E9012114F8010B9047B442D5
:10030000F8D32846AFF3008070BD00002DE9F0411E
:100310000646002410687529314616A510D0AFF3A3
:100320000080002802DA404213A507E031688A07FE
:1003300001D512A502E0490704D511A5012401E069
:10034000AFF3008000210A2206F1240709E0B0FB88
:10035000F2FCB0FBF2F302FB1C003030785418467C
:10036000491C0028F3D123462A463046BDE8F04117
:1003700000F0F7B8000000002D0000002B00000086
:10038000200000002DE9F0474FF0000A894604469E
:10039000C0F820A02046E1688847002876D02528AC
:1003A00006D0D4E901219047206A401C2062F1E781
:1003B000E168204600258847C4F81CA006460027AF
:1003C000C4F818A02A2E09D0304604F02FFE38B306
:1003D00004EB8708303EC8F8186019E059F8041B90
:1003E000204604EB87029161E1688847012F0646A9
:1003F00018D1E069002820DA25F020051DE0D8F8A2
:10040000180000EB800006EB40003038C8F81800F8
:100410002046E1688847064604F008FE0028EED131
:10042000012F0AD02E2E08D12046E16888477F1C74
:100430000646022F45F02005C4DBA069002803DA38
:10044000404245F00105A061E80701D025F0100504
:10045000B6B1A6F14100192802D8203645F400654E
:100460004A463146204625604D46FFF78FFE58B17B
:10047000012806D0ED1D25F0070000F1080989E7E5
:1004800004E005F1040985E730468AE7206ABDE803
:10049000F08700000B4910B5A1F17C020A4CC2E9BB
:1004A0003712372106E000EB104342F82130074BAA
:1004B00000FB03400B1EA1F10101F4DC10BD012083
:1004C000E8E7000014010020E119D666CD0D010017
:1004D00010B5431C02E010F8011B71B18107FAD17D
:1004E0004FF0013202C88C1A8C4314EAC211F9D0C1
:1004F000C01A0A0603D0C01E10BDC01A10BD0A04DF
:1005000001D0801E10BD0902FCD0401E10BD4FF06E
:10051000000200B5134694469646203922BFA0E853
:100520000C50A0E80C50B1F12001BFF4F7AF09075F
:1005300028BFA0E80C5048BF0CC05DF804EB890050
:1005400028BF40F8042B08BF704748BF20F8022B93
:1005500011F0804F18BF00F8012B704770477047AB
:1005600070472DE9F0470D4699469246044600F142
:1005700024080168880604D5E06921F01001216093
:1005800000E00120A84201DD471B00E00027A1692F
:100590007A1902EB0900081AA0612078C00602D47B
:1005A0002046AFF30080002608E0D4E901211AF8C4
:1005B00006009047206A401C761C20624E45F4DB02
:1005C0002078C0060AD52046AFF3008006E0D4E9C3
:1005D000012130209047206A401C2062381EA7F17C
:1005E0000107F4DC07E0D4E9012118F80500904781
:1005F000206A401C2062281EA5F10105F3DC20467C
:10060000AFF300802078000602D50220BDE8F08715
:100610000120FBE72DE9FF4F0C461E464FF0FF3748
:100620008BB0D2E90001DDF860800A908A46C1F300
:100630000A5505B93D46002108464FF00000BAF1C1
:10064000000F00F4400005DA00EB80004FF4400199
:1006500001EA50004FEA9059B9F1010F00DDB946A7
:100660000A9850EA4A000ED044F61050A5F2FF3521
:1006700045432F14B8F1000F1ED07542291E1EDD10
:10068000C9F100021CE0B8F1010F4FF0000001D0E9
:10069000302103E0F24305E02154401CB042FBDB73
:1006A00030460022002121540B99C1F80880C1E98D
:1006B00000200FB0BDE8F08FBD1B6D1CDEE74A4681
:1006C00000DA694206A800F079FA06AB93E8070061
:1006D00003AB83E8070050460A9904F0CAF88DE896
:1006E0000700A0F500501F3800900398002D0ADD88
:1006F00042F21F014A460844002303A903906846BA
:1007000004F034FB09E0A0F500504A461F380023EE
:1007100003A90390684604F03EFB8DE8070000043F
:10072000000C03D04FF0FF30410800E01046B8F154
:10073000000F03D00022009215461EE0751E05D45E
:1007400000F0B6F9303262556D1EF9D5B34601227C
:10075000084302D000227F1C04E02078302801D119
:1007600000227F1E002A099784D01DE0112D07DA90
:1007700000F09EF9303262556D1C50EA0102F5D14D
:10078000084302D00098C8B10EE00021681E05E0C1
:10079000235C625C63542254401E491C8142F7DB97
:1007A000AB46A81B401E0990002004F80B000B98D4
:1007B000099AC0F80880C0E9002B7AE711264FF0AB
:1007C000000857E72DE9F04F88460446D21D22F075
:1007D000070191B0D1E90001CDE90A0104F012FC52
:1007E00002460B98C00F01D02D2007E0206881073A
:1007F00001D52B2002E0202101EAC000032A099044
:1008000001D0072A05DB03464146204600F096F951
:100810000BE12078800601D5E06900E00620B8F100
:10082000650F814606D0B8F1660F18D0B8F1670F92
:1008300070D131E00020B9F1110F009001DB1123DC
:1008400001E009F101030AAA01A90CA8FFF7E2FEE1
:10085000DDE90C70002609F10105834647E001201F
:100860004B4600904FF000470AAA01A90CA8FFF7D9
:10087000D1FEDDE90DB00C995D46002610B909F1F5
:1008800001000D18B9EB050003D4C0F1FF3609F1E2
:100890000105A5EB09002BE0B9F1010F01DA4FF0DA
:1008A00001090020B9F1110F0090484601DD112324
:1008B00000E003460AAA01A90CA8FFF7ABFEDDE998
:1008C0000C704D4600268346207800070AD4AB45BD
:1008D00000DA5D4601A8012D04DD411911F8011C63
:1008E000302907D04F4502DA17F1040F04DA01204E
:1008F00082460FE06D1EEEE7002F02DCED1B3E444A
:1009000003E0781CA84200DD7D1CB81B00F1010A41
:100910004FF000472078000703D4AA4501DB4FF0D1
:10092000FF3A0021B7F1004F0DF143088DF8431055
:1009300024D002202B23002F01DA7F422D230A210D
:10094000021EA0F1010000DC5FB197FBF1FC97FBF8
:10095000F1F201FB1C7C17460CF1300C08F801CDBC
:10096000EEE7A8F1010003702188090501D54521B2
:1009700000E06521A0F1010800F8011C09980FA909
:10098000A1EB0807FF1D00B10120411901EBEA703E
:10099000A1693844081A401EA0612078C00602D41C
:1009A0002046AFF30080099828B1D4E9012190478F
:1009B000206A401C20622078C00622D52046AFF372
:1009C00000801EE0002E04DBB34502DD01A8805D3F
:1009D00000E03020D4E901219047206A401C2062C9
:1009E000761CAAF101005FEA000A0AD100F05CF867
:1009F000C0680168405CD4E901219047206A401C2E
:100A00002062281EA5F10105DCDC07E0D4E9012104
:100A100018F8010B9047206A401C2062381EA7F18D
:100A20000107F3DC2046AFF30080032011B041E65C
:100A300001694A1C02610878704700B58FB0CDE9A2
:100A400001310021059105497944CDE90310114692
:100A50006846FFF797FC0FB000BD0000E5FFFFFF01
:100A60000A6802F8010B0A607047D1E900239A4234
:100A700002D2531C0B601070704710B5436913B15C
:100A8000AFF3008001E0FFF717FC012010BD1278E2
:100A900000F124010A7000224A700122EDE711687A
:100AA0004FF0FF32E9E70000004870479C0100204A
:100AB00030B5B0F10A0271F100034FEA900E4EEA30
:100AC000817EB0EB0E0061EB91014FEA101E4EEA01
:100AD000017E10EB0E0041EB11114FEA102E4EEA91
:100AE000016E10EB0E0041EB11214FEA104E4EEA61
:100AF000014E10EB0E0041EB1141401841F1000195
:100B00004FEAD00040EA41704FEAD1014FEA810438
:100B100044EA907410EB800544EB01046D1944EB3A
:100B20000404521BA3414FF0000348BF0A3200D512
:100B300030BD401C41F1000130BD00002DE9F04105
:100B40001F46044603260168072A01F4006004DBFF
:100B500008B116A505E016A503E008B115A500E04B
:100B600015A521F010002060A069C01EA0610FB182
:100B7000401EA0612046AFF300804FB1D4E90121AF
:100B800038469047206A401C2062C01C206206E064
:100B9000206AFAE7D4E9012115F8010B9047761E87
:100BA000F8D22046AFF30080BDE8F0814E414E0000
:100BB0006E616E00494E4600696E66002DE9F04791
:100BC000814616468AB0354878440DC88DE80D0038
:100BD00032487844801C03AC0DC884E80D0041F60F
:100BE0009B300844372190FBF1F290FBF1F5A5F121
:100BF000800501FB12041B3C02D56442012000E089
:100C00000020DFF898A080460027FA44AAF1BE0A27
:100C10000EE0E0070AD03246684607EB47010123A1
:100C20000AEB810104F0B7F88DE8070064107F1C1F
:100C3000002CEED1194F7F44AE3F19E0E80715D0E4
:100C400007EB04100DF1180A90E80E008AE80E0078
:100C5000C068F04201D1981908903246012306A9D4
:100C600003A804F098F803AB83E807006D10641C38
:100C7000002DE3D14FF0010332466946B8F1000F71
:100C800003A802D004F072F801E004F084F8C9E986
:100C90000001C9F808200AB0BDE8F087E44C000064
:100CA000004870477C0100207546FFF7F9FFAE460B
:100CB00005006946534620F00700854618B020B568
:100CC000FFF7B4FABDE820404FF000064FF00007F0
:100CD0004FF000084FF0000BAC46ACE8C009ACE8A0
:100CE000C009ACE8C009ACE8C00921F007018D4695
:100CF000704710B50446AFF300802046BDE81040B1
:100D0000FFF766BA4FF0013C50F8042B51F8043B52
:100D10009A4221D1A2EB0C03934313EACC1317D1CF
:100D200050F8042B51F8043B9A4215D1A2EB0C0366
:100D3000934313EACC130BD150F8042B51F8043B26
:100D40009A4209D1A2EB0C03934313EACC13DBD0F4
:100D50004FF00000704700BFD01A01BAB1FA81F11C
:100D600001F0180122FA01F0CB40DBB2C0B2C01A88
:100D7000C1F120012CFA01F3D11A914311EAC311F8
:100D8000E6D170477047000001491820ABBEFEE76E
:100D90002600020080B540F2FC10C2F2000000F014
:100DA00049FA40F22C20C2F20000BDE8804000F079
:100DB00041BA0000B0B5044600688168C90709D08F
:100DC000816821F00101816001F086F8216889685D
:100DD000C90701D10020B0BD054603E02068806846
:100DE000C007F7D001F078F8401B0328F6D320683D
:100DF0008068C007F2D0A06A40F01000A062E06AEC
:100E000040F00100E0620120B0BD0000B0B582B04A
:100E100004460020019021688A68D2073AD1886888
:100E200040F00100886040F20800C2F20000006853
:100E30004DF68361C4F21B31A0FB0101880C00BF99
:100E40000190019810B101980138F9E701F044F8D8
:100E500021688968C9071CD1054603E020688068BD
:100E6000C00716D101F038F8401B0328F6D32068DC
:100E70008068C007F2D1A06A40F01000A062E06A6A
:100E800040F00100E062002084F82400012002B05C
:100E9000B0BD002002B0B0BDFEE7000040F25C2013
:100EA000C2F2000000F080BC7047000080B54FF433
:100EB000806000F005FF4FF40060BDE8804000F066
:100EC000FFBE0000EFF3108072B600BFFEE7000027
:100ED00070B582B004460020019094F824000128E7
:100EE00001D1022566E0012084F824002046FFF7A6
:100EF00061FF2046FFF78AFF0546002857D1A06A08
:100F000041F2021188430230A06240F20800C2F2AE
:100F100000000668022001F09DF8B6FBF0F04000EA
:100F20000190019810B101980138F9E720688168B3
:100F300041F00801816000F0CFFF21688A68120744
:100F40000DD4886840F00400886000F0C5FF216877
:100F50008968490714D401206FF0030123E0064695
:100F600004E000BF216888680007EAD500F0B4FFFC
:100F7000801B0B28F6D3206880680007F2D50EE0AE
:100F8000064603E0206880684007E4D500F0A4FF2F
:100F9000801B0B28F6D3206880684007F2D5012516
:100FA00010206FF01201A26A11400843A0620020D5
:100FB00084F82400284602B070BD0000704700008D
:100FC000B0B581B00022009290F82420012A01D10E
:100FD000022179E04A680123062A02EB820C80F89C
:100FE000243005D8026802F1340E6FF004020AE0E2
:100FF00003680C2A87BF03F12C0E6FF0400203F147
:10100000300E6FF022026244DEF800C01F230C682D
:1010100093402CEA030304FA02F21A43CEF80020AC
:10102000D1F800E002680EEB4E041023BEF1090F68
:1010300088BF1E3C88BF0C2352F803C0072589686F
:10104000A5402CEA0505A1402943D1502EF001010D
:101050004FF0000C10294FF0000133D1016842F22B
:101060000042C4F20102914205D0816A41F02001A0
:101070008162012126E09268120222D48A68BEF1C0
:10108000100F42F400028A601BD140F20801C2F244
:10109000000109684DF68362C4F21B32A1FB021203
:1010A000910C01EB810149000091009949B100BF09
:1010B000009901390091009900294FF00001F7D102
:1010C00000E0002180F824C0084601B0B0BD000057
:1010D0002DE9F04383B0044600F0A8F880B240F256
:1010E000C2614FF4FA6288424FF0F90640F255535C
:1010F00038BF40F2DC5238BFBF2698423CBF40F2B6
:10110000E2429F26884240F2F810C2F200000260DC
:1011100040F2FC3040F25808C2F20000C2F200086F
:101120000260B8F800004FF6FF1740F2540938BFCC
:101130004FF223478642C2F2000903D1D9F80000DA
:10114000874212D040F2E825C2F2000528466E60C0
:10115000EF6001F07DFC284601F096FB284601F087
:1011600027FCA8F80060C9F80070206842F200412E
:10117000C4F2010188421CBF03B0BDE8F0832046E1
:1011800000F054F803F0A1FF46F26663C4F20A03CC
:101190004FF0663203F0ACFF0023C3F63073002239
:1011A00003F0A6FF03F060FF40F24041C2F20001ED
:1011B00008600021C4F2C82104F0F8F940F20041AF
:1011C000C2F20001086040F20441C2F2000108606E
:1011D00004F08CF840F27404C2F2000403460D4699
:1011E0000AA220462021CDE90035FFF745F8204628
:1011F000FFF76EF982B240F23030C2F200002146B1
:1012000003B0BDE8F04302F0DFBC00BF47756E20BD
:1012100074656D70657261747572652069733A20CA
:10122000252E326620430A0D000000000068C06CC5
:101230007047000070B50446006805684668B1064E
:1012400027D515F0020124D0A16AC90603D4A16AEA
:1012500041F40071A162816801F46021B1F5602F51
:1012600010D1217B71B9416821F020014160A06A51
:1012700020F48070A062A06AC00403D4A06A40F089
:101280000100A0622046FFF723FF20686FF01201E3
:101290000160300633D515F0040030D0A06AC006D6
:1012A00003D4A06A40F40050A0622068816801F471
:1012B000E041B1F5E04F0FD1416821F0800141607C
:1012C000A06A20F48050A062A06AC00510D4A06A71
:1012D00040F00100A0620BE04168490508D4816834
:1012E00001F46021B1F5602F02D1217B0029E3D008
:1012F0002046FFF763FE20686FF00C010160700666
:101300000ED515F0010008BF70BDA06A40F4803012
:10131000A062204600F0B6F820686FF0010101607D
:1013200070BD0000002804BF01207047B0B504461E
:10133000806A30B90020E06284F82400204600F082
:10134000A3F820688168C90709D0816821F00101EC
:10135000816000F0C1FD21688968C90730D1002093
:101360000121A36AA26A31B313F0100123D141F223
:10137000021122EA01010231A162E169D4E90132DC
:1013800041EA030C531EB3FA83F35D091346B2F529
:10139000807F18BF2B02217D257B01294CEA450E59
:1013A00031D13DB3A56A45F02005A562E56A45F057
:1013B0000105E56227E042F01000A0620120B0BD07
:1013C000054603E020688068C007C8D000F084FDAF
:1013D000401B0328F6D320688068C007F2D0A06ABB
:1013E000002140F01000A062E06A40F00100E062DD
:1013F0000120B6E7D4F818C04EF60005CFF6FF7509
:1014000005EB4C352B432568B2F5807F696821F4E4
:10141000694141EA03016960A9684FF2FD73CFF6A3
:10142000E17301EA030141EA0E01A96001D0012A3A
:1014300006D121690022CFF6F07202EB015200E0E2
:101440000022E96A21F470011143E962A96840F6BB
:10145000FE62CFF61F721140714507D10021E16293
:10146000A16A012262F30101A162B0BDA06A40F04D
:10147000100020F00200A062E06A40F00100E0628B
:101480000120B0BD7047000080B586B0006842F60C
:101490000001C4F2010188424FF00001CDE90411BE
:1014A000CDE902111DD042F20041C4F2010188428F
:1014B00040D141F21800C4F20200016841F4007109
:1014C0000160016801F4007101910199016841F026
:1014D00004010160006800F00400019001981020F0
:1014E00016E041F21800C4F20200016841F4806184
:1014F0000160016801F4806101910199016841F086
:1015000004010160006800F00400019001980120CE
:1015100002900320039040F60000C4F2010002A9EB
:1015200000F0DAFB12200021002200F057FD12200B
:1015300000F044FD06B080BDB0B5044690F824002C
:10154000012804BF0220B0BD012084F824002046F9
:10155000FFF75CFC18B1002184F82410B0BD42F202
:10156000044C2168A26AC4F2010C40F601739A434C
:101570000CF57F7502F58072A942A26207D0A26ABB
:1015800022F48012A2624A6852051AD41EE0DCF8E6
:10159000002012F4702FF2D0A26A42F4801E42F6AC
:1015A0000002C4F201029142C4F828E005D042F2E0
:1015B0000042C4F20102914208D1DCF80020520539
:1015C00004D5A26A012363F30D32A262A26A4FF02E
:1015D000000ED2044FF0000244BFE26A22F006027D
:1015E000E2626FF0020284F824E00A604A6842F086
:1015F00020024A608A6802F46022B2F5602F0BD1A3
:10160000A94204D08A6842F4A0028A60B0BDDCF826
:10161000002012F4702FF5D08A6842F480128A609C
:10162000B0BD0000B0B5044690F82400012804BF06
:101630000220B0BD0121206884F824108268D207FE
:1016400002D1002069B917E0816821F001018160B1
:1016500000F042FC21688968C90711D100200121EE
:1016600051B121684A6822F020024A60A16A41F221
:10167000011291430131A162002184F82410B0BD10
:10168000054603E020688068C007E7D000F024FC2E
:10169000401B0328F6D320688068C007F2D0A06AF8
:1016A000002140F01000A062E06A40F00100E0621A
:1016B00001200029D5D1DFE7014690F8210002285A
:1016C00013D10868D1E90FC3026822F00E0202604C
:1016D000026822F001020260012000FA03F2CCF855
:1016E000042081F82100002002E00420886301200A
:1016F000002281F82020704790F82110022923D180
:101700000268116821F00E0111602F211368C4F2E4
:1017100002018A4240F20401C4F2020123F00103F3
:10172000136015DD3023C4F202039A421CD0442317
:10173000C4F202039A421AD05823C4F202039A4216
:101740001AD14FF480331FE00421816301207047D8
:101750000823C4F202039A420CD01C23C4F20203F1
:101760009A4209D110230FE04FF480730CE04FF43C
:10177000805309E0012307E001F1680C4FF080730A
:10178000624508BF4FF480130B60012180F82110DF
:10179000426B002180F8201022B180B590470021D3
:1017A000BDE880400846704710B5D0E90FCE01680B
:1017B000DCF800300A6823FA0EF35C0724D512F037
:1017C000040421D00A68920603D40A6822F00402B5
:1017D0000A602F22C4F20202914240F20402C4F2D3
:1017E00002024FDD3023C4F20203994262D0442347
:1017F000C4F20203994260D05823C4F20203994212
:1018000060D14FF4802365E09C0727D512F00204D5
:1018100024D00A68920606D40A6822F00A020A60F6
:10182000012280F821202F22C4F20202914240F2CC
:101830000402C4F2020231DD3023C4F202039942F1
:101840004ED04423C4F2020399424CD05823C4F230
:10185000020399424CD14FF4003351E01B0756D597
:1018600012F0080208BF10BD0A6822F00E020A60DA
:10187000012101FA0EF2CCF80420816380F82110D6
:10188000016B3FE00823C4F20203994218D01C23E5
:10189000C4F20203994215D140231BE00823C4F28D
:1018A0000203994222D01C23C4F2020399421FD1A1
:1018B000202325E04FF480630CE04FF4804309E0DF
:1018C000042307E002F168044FF08063A14208BFDF
:1018D0004FF480031360C16AC9B1BDE810400847E6
:1018E0004FF400730CE04FF4005309E0022307E0CB
:1018F00002F168044FF00073A14208BF4FF40013D7
:101900001360816A0022002980F82020E5D110BDF3
:10191000014600284FF0010008BF70472DE9F0474D
:101920000A684FF6F873CBF6FD7302EB030C4CF626
:10193000CD43CCF6CC43ACFB033C6FF00307002651
:1019400007EA9C07C4F2020601F10C0AC1E90F671D
:101950000227D1E9013E9AE83004D1E9069881F8DE
:101960002170176843F6F076B7433B4343EA0E0312
:1019700023432B4343EA0A0343EA090343EA0803E8
:10198000136000228A6381F8210081F82020002062
:10199000BDE8F0477047000090F820C0BCF1010F8F
:1019A00004BF02207047F0B54FF0010E80F820E030
:1019B00090F821C0BCF1010F23D14FF0020C80F848
:1019C00021C04FF0000CC0F838C0D0E900C4C56A8F
:1019D000C66BDCF80070102C27F00107CCF8007003
:1019E000006C0EFA00F070600846CCF8043004BFBA
:1019F00010460A46CCF80800CCF80C2035B10E2071
:101A00000BE0002180F820100220F0BDDCF800007F
:101A100020F00400CCF800000A20DCF80010084395
:101A2000CCF80000DCF8000040F00100CCF8000029
:101A30000020F0BDB0B5044600F04EFA054640F275
:101A40006C00C2F200000078611C18BF044400BFA3
:101A500000F042FA401BA042FAD3B0BD2DE9F04796
:101A600082B040F2C03940F2F01A40F2F418044655
:101A7000B0F5006FC2F20009C2F2000AC2F200081B
:101A80006AD140F20046C2F2000635680021C4F275
:101A90004821284603F0CDFC00285DD1D9F800107C
:101AA000DAF80020D8F80000914208BF00281CD0C6
:101AB000914251D000284FD140F2C430C2F2000010
:101AC00001680139016040F2F430C2F200000021E7
:101AD00001600021C4F22011284603F033FC30607D
:101AE000012157A6C8F800101CE040F2C430C2F231
:101AF000000040F2F4370168C2F200073A68013191
:101B00000160501C012103283860C8F8001023D15F
:101B10000021CCF22011284603F014FC0021306093
:101B200039604FA603F0E2FB40F27407C2F20007EF
:101B300003460D46384620213246CDE90035FEF7F2
:101B40009BFB3846FEF7C4FC82B240F23030C2F252
:101B50000000394602F038F8B4F5806F6DD140F2DC
:101B60000445C2F200052C680021C4F24821204639
:101B700003F05FFC002860D1D9F80010DAF80020EB
:101B8000D8F80000914208BF00281CD0914254D0E0
:101B9000002852D140F2C830C2F200000168013979
:101BA000016040F2F830C2F2000000210160002123
:101BB000C4F22011204603F0C5FB012130A42860A7
:101BC000C8F800101CE040F2C830C2F20000016802
:101BD00040F2F8360131C2F200060160316801209E
:101BE000C8F80000481C0328306026D10021CCF240
:101BF0002011204603F0A6FB00212860316028A4B4
:101C000003F074FB40F27405C2F2000503460F4670
:101C1000284620212246CDE90037FEF72DFB284635
:101C2000FEF756FC82B240F23030C2F20000294684
:101C300002B0BDE8F04701F0C7BF02B0BDE8F087D1
:101C400047756E5F312074656D7020696E637265D3
:101C5000617365643A252E3266430D0A0000000068
:101C600047756E5F312074656D70206465637265C1
:101C7000617365643A252E3266430D0A0000000048
:101C800047756E5F322074656D7020696E63726592
:101C9000617365643A252E3266430D0A0000000028
:101CA00047756E5F322074656D7020646563726580
:101CB000617365643A252E3266430D0A0000000008
:101CC00040F21441C4F201010A68024214BF0860E4
:101CD0007047FFF7C3BE00002DE9F04F82B00E68D9
:101CE000002E00F0EF8041F20002C4F20102032353
:101CF00040F2004E904208BF02234FF6FF7CC4F230
:101D0000010E009300240123C1F2100C4FF0000BD0
:101D10004FF000094BE000BF40F60042C4F2010260
:101D2000009F904208BF012704F00C030F229A4045
:101D30002AEA020207FA03F34FEA9B051A4346F820
:101D400025204E6840F20C45F202DEF8082054BF10
:101D500022EA080242EA0802C4F20105CEF808208D
:101D60002A68B30254BF22EA080242EA08022A6043
:101D7000B303DEF8042054BF22EA080242EA080254
:101D8000F303CEF80420DEF800204FF0010354BF27
:101D900022EA080242EA0802CEF800200E680BF19F
:101DA000010B36FA0BF204F1040400F08B8003FA05
:101DB0000BFA16EA0A08F1D04E68664510DC122EBE
:101DC00050D8DFE806F0330A41454F4F4F4F4F4F91
:101DD0004F4F4F4F4F4F4F484C00D1F80C9041E0C0
:101DE0004FF6FF72C1F2210296420FDC0022C1F2CF
:101DF000110296421AD00022C1F21202964215D068
:101E00000022C1F22102964210D02BE00022C1F242
:101E1000220296420AD00022C1F23102964205D037
:101E20000022C1F2320296421CD100BF8A6842B140
:101E3000012A14BFC0F814A0C0F810A04FF0080980
:101E400010E04FF004090DE0CA6802F1080909E04A
:101E50004FF0000906E0CA6802F1040902E0CA680E
:101E600002F10C0922460646B8F5807F24BF203ACD
:101E7000043637680F25954027EA050509FA02F26E
:101E80002A433260CA79D2067FF588AF41F218033F
:101E9000C4F202031A68AEF57E7642F001021A60BF
:101EA0001A6802F001020192019A2BF0030256F81F
:101EB00002A040F60002C4F2010290427FF42CAF6F
:101EC000002731E702B0BDE8F08F0000002A08BF0C
:101ED000090401617047000040F23C40C2F200007A
:101EE0000068704740F26C0040F23C41C2F20000D2
:101EF000C2F2000100780A681044086070470000D0
:101F000080B542F20000C4F20200016841F0100105
:101F10000160032000F08EF80F2000F005F800F0BB
:101F20002BF8002080BD0000B0B540F26C02C2F278
:101F3000000240F208011278C2F200014FF47A73F5
:101F40000968B3FBF2F20446B1FBF2F1084600F077
:101F500025FC0F2C4FF001050CD858B94FF0FF307D
:101F600021460022002500F039F840F27000C2F24C
:101F7000000004602846B0BD82B041F21800C4F2EF
:101F800002000168022241F001010160016801F0D4
:101F9000010101910199416841F08051416040681F
:101FA00000F08050009000980420C4F20100016805
:101FB00062F31A61016002B070470000002848BF58
:101FC000704700F01F01012202FA01F14EF20012E7
:101FD0004009CEF2000242F82010704710B54EF6CC
:101FE0000C5CCEF2000CDCF80030C3F3022E8EF055
:101FF0000704042C28BF0424BEF103034FF0FF3E66
:102000000EFA04F438BF0023A14399400EFA03F3FB
:102010009A43114300F1604200F00F03090102F5F9
:102020006442043B6344002848BF03F10C02117072
:1020300010BD00004EF60C51CEF200010A684FF6BA
:10204000FF031A4060F30A2242F0806040F0FD7006
:102050000860704701280ED0022837D0102808D118
:1020600041F20401C4F202010A6851F8040CC001F3
:102070003ED40020704741F20400C4F20200C1695E
:1020800040F202320A40B2F5817F04BF4FF40040B3
:10209000704701F44071B1F5407F0FD0B1F5007F7A
:1020A0001CBF00207047026A920744BF49F64040B7
:1020B0007047B1F5407F1CBF0020704750F8040CFA
:1020C0004FF22441800301EAE070704780B500F0D0
:1020D000B1F941F20401C4F2020109680222C1F31C
:1020E000813102EB4101B0FBF1F0BDE88040704767
:1020F000C2F3834011A3185CD20305D440F600124A
:10210000C0F23D0250430BE00A6810A3C2F3404204
:102110009A5C41F20023C0F27A03B3FBF2F250431F
:102120000968490248BF70474AF6AB214000CAF629
:10213000AA21A0FB01014808704700BF0203040563
:10214000060708090A0B0C0D0E0F10100102000003
:102150002DE9F04182B00446007841F21C06C00728
:10216000C4F202064AD030685FEAC00808D430687A
:1021700040F080503060306800F08050019001984D
:1021800047F20007C4F200073868C00512D4386867
:1021900040F480703860FFF79FFE05463868C00540
:1021A00008D4FFF799FE401B6428F7D9032002B03A
:1021B000BDE8F081706810F4407012D0616801F4DD
:1021C000407188420DD0706840F24042C4F2422211
:1021D000012320F4407113600023C0071360716075
:1021E00025D17068616820F440700843B8F1000F91
:1021F000706003D4306820F0805030602068810720
:1022000007D556F8181CA26821F44041114346F83E
:10221000181CC00607D556F8180CE16820F4800099
:10222000084346F8180C002002B0BDE8F081FFF723
:1022300053FE054641F2883770688007D1D4FFF716
:102240004BFE401BB8424FF00300F5D9ECE700000D
:10225000002804BF012070472DE9F04381B042F20D
:102260000008C4F202080446D8F800000D4600F049
:10227000070088420CD2D8F8000020F0070028435D
:10228000C8F80000D8F8000000F00700A8426BD1A1
:10229000206841F204098107C4F2020917D54107F9
:1022A00005D5D9F8001041F4E061C9F80010010724
:1022B00005D5D9F8001041F46051C9F80010D9F8DB
:1022C0000010A26821F0F0011143C9F80010C00706
:1022D00041D1D8F8000000F00700A8420CD9D8F886
:1022E000000020F007002843C8F80000D8F80000DC
:1022F00000F00700A84237D12068410707D5D9F878
:102300000010E26821F4E0611143C9F800100007F1
:1023100008D5D9F80000216920F4605040EAC100D6
:10232000C9F80000D9F8002002F00C00082841F29A
:102330000020C0F27A004DD145F6E203C2F383419A
:10234000C0F60003595CD20338D440F60010C0F246
:102350003D0048433EE06068022809D0012828D1AA
:1023600059F8041C890307D4012001B0BDE8F083AB
:1023700059F8041C8901F7D5D9F8001021F00301A0
:102380000843C9F80000FFF7A7FD064641F2883769
:10239000D9F80000616800F00C00B0EB810F98D014
:1023A000FFF79AFD801BB842F2D9032001B0BDE8C7
:1023B000F08359F8041C8907D6D5DDE7D9F8002049
:1023C00045F6E003C2F34042C0F600039A5C48437E
:1023D000B0FBF2F0D9F8001045F6C802C1F30311C2
:1023E000C0F60002515C40F2080220FA01F140F20E
:1023F0007000C2F200000068C2F200021160FFF734
:1024000093FD002001B0BDE8F083000040F2080019
:1024100041F20401C2F20000C4F20201006809683E
:1024200045F6D802C1F30221C0F60002515CC84053
:102430007047000040F2080041F20401C2F20000BF
:10244000C4F202010068096845F6D802C1F3C2214E
:10245000C0F60002515CC84070470000002804BF6D
:10246000012070472DE9F04182B00446007841F226
:102470000006C007C4F2020649D0706800F00C00E4
:10248000042809D13068800341D5606800283ED116
:10249000012002B0BDE8F081706800F00C0008284F
:1024A00002D17068C003EDD465682DB1B5F5A02FD9
:1024B0000AD0B5F5803F0BD0306820F48030306012
:1024C000306820F4802006E0306840F480203060DE
:1024D000306840F480303060FFF7FEFC002D054688
:1024E00012D000BF3068800311D4FFF7F5FC401B09
:1024F0006428F7D918E100BFFFF7EEFC401B642801
:102500004FF0030000F2D88030688003F4D42078C4
:10251000800719D5706810F00C0F07D0706800F0B4
:102520000C00082827D17068C00324D430688007C5
:1025300003D52069012840F0A6803068616920F049
:10254000F80040EAC1003060207800074ED5A0694D
:1025500038B30020C4F242200121C0F88014FFF7F4
:10256000BBFC0546706A80072DD4FFF7B5FC401B05
:102570000228F7D9D8E02069002840F20000C4F210
:10258000422000F0A88001210160FFF7A5FC05466C
:1025900030688007D1D4FFF79FFC401B0228F7D991
:1025A000C2E00020C4F242200021C0F88014FFF7EE
:1025B00093FC0546706A800718D5FFF78DFC401B19
:1025C0000228F7D9B0E040F20800C2F2000000682B
:1025D00044F6D351C1F26201A0FB0101480A019007
:1025E00000BF0198411E00280191F9D120784007D1
:1025F00017D4E5698DB1706800F00C00082846D149
:10260000012D40D07068216A00F480328A423AD1AC
:10261000616A00F47010884235D1002002B0BDE834
:10262000F081F0695FEAC00808D4F06940F080509A
:10263000F061F06900F080500090009847F20007C8
:10264000C4F200073868C0050FD4386840F48070C1
:102650003860FFF741FC05463868C00505D4FFF730
:102660003BFC401B6428F7D95EE0E5681DB1052DF1
:1026700042D0012D44D0306A20F001003062306A2F
:1026800020F004003FE0012002B0BDE8F081002707
:10269000C4F2422700203866FFF71EFC022D0546D3
:1026A0000ED100BF3068800155D5FFF715FC401BE7
:1026B00002284FF00300F5D902B0BDE8F08100BF59
:1026C00030688001A9D5FFF707FC401B02284FF0B6
:1026D0000300F5D9F0E700210160FFF7FDFB054697
:1026E000306880077FF530AFFFF7F6FB401B02280C
:1026F0004FF00300F4D9DFE7306A40F004003062A5
:10270000306A40F001003062FFF7E6FB002D05461D
:1027100041F2883713D000BF306A800712D4FFF728
:10272000DBFB401BB842F7D9032002B0BDE8F081C3
:10273000FFF7D2FB401BB8424FF00300BCD8306A11
:102740008007F5D4B8F1000F3FF553AFF06920F0E2
:102750008050F0614DE7206AB0F5803F05D1716887
:10276000A26821F40031114371607168626A21F43A
:10277000741111430843706001203866FFF7ACFB09
:10278000044600BF306880013FF547AFFFF7A4FB68
:10279000001B02284FF00300F4D98DE7411E0020F2
:1027A000B0EB116F1CBF012070474EF21002CEF249
:1027B000000251604EF62351CEF20001F0230B705F
:1027C000072190601160704770470000704700005B
:1027D00090F83C20012A04BF02207047B0B501F1F7
:1027E00008053CCDD1E900CE23F47C5322F470528D
:1027F0001A432EF4F0431A432CF4E0431A4324F412
:10280000C0431A432A43C96922F480420368114332
:102810005964002180F83C10BDE8B040084670477C
:1028200090F83C20012A4FF002022BD010B5012372
:1028300080F83C3080F83D200268D2F804E0D2F8FD
:1028400008C00C682EF070032343B2F1804F536030
:102850000BD042F60043C4F201039A4205D040F285
:102860000043C4F200039A4204D149682CF080036B
:10287000194391600121002280F83D1080F83C202E
:10288000BDE8104010467047002804BF0120704783
:1028900010B5044690F83D0028B9002084F83C00AB
:1028A000204600F051F8022084F83D00206842F6EE
:1028B000004C0268B0F1804FC4F2010C18BF6045B3
:1028C00004D1A36822F070021A4305E040F20043ED
:1028D000C4F200039842F4D0B0F1804F18BF6045B5
:1028E00004D1236922F440721A4305E040F2004308
:1028F000C4F200039842F4D0A16922F08002D4F817
:1029000004E0E368114360450160C362C0F828E059
:1029100002D16169CCF8301001214161002084F8B6
:10292000461084F83E1084F83F1084F8401084F874
:10293000411084F8421084F8431084F8441084F85D
:10294000451084F83D1010BD80B582B00068B0F12C
:10295000804F14D042F60041C4F2010188420CD1EC
:1029600041F21800C4F20200016841F40061016004
:10297000006800F400600190019802B080BD41F24F
:102980001800C4F202004168002241F001014160D8
:102990004068002100F00100009000981C20FFF723
:1029A0001DFB1C2002B0BDE88040FFF707BB000004
:1029B00090F83D1001291CBF01207047022180F8CA
:1029C0003D100068B0F1804F0BD042F60041C4F2D8
:1029D0000101884205D040F20041C4F20001884262
:1029E00006D1816801F00701062904BF0020704765
:1029F000016841F0010101600020704790F83D102E
:102A000001291CBF01207047022180F83D10006899
:102A1000C168B0F1804F41F00101C1600BD042F6B6
:102A20000041C4F20101884205D040F20041C4F2E5
:102A30000001884206D1816801F00701062904BF20
:102A400000207047016841F00101016000207047DB
:102A50000146006841F21113026A1A4208D1026A63
:102A600040F244431A4203D1026822F0010202609C
:102A70000122002081F83D207047000001460068D7
:102A800041F21113C26822F00102C260026A1A42C6
:102A900008D1026A40F244431A4203D1026822F08C
:102AA000010202600122002081F83D2070470000F1
:102AB00090F83C20012A4FF0020200F0C68080B559
:102AC000012380F83C3080F83D20D0F800C04FF65C
:102AD0007772DCF8083023EA0202CCF808200B6891
:102AE0004F2B28DC1F2B44DD202B45D0302B43D02F
:102AF000402B40F0AC80D1F804E0C968DCF820300D
:102B0000DCF8202022F00102CCF82020DCF818208C
:102B100022F0F00242EA011123F00A0242EA0E0218
:102B2000CCF81810CCF82020DCF8081041F0470150
:102B300021F030017EE06F2B26DDB3F5005F47D03A
:102B4000B3F5805F78D0702B40F08180D1E901E34C
:102B5000C968DCF8082043EA0E0322F47F4243EA06
:102B600001211143CCF80810DCF8081041F077017E
:102B700060E00BB1102B6AD1DCF8081021F0700175
:102B8000194341F0070155E0502B34D0602B5ED142
:102B9000D1F804E0C968DCF82030DCF8202022F00D
:102BA0001002CCF82020DCF8182022F4704242EA0F
:102BB000013123F0A00242EA0E12CCF81810CCF832
:102BC0002020DCF8081041F0670121F0100131E00D
:102BD000D1E901E3C968DCF8082043EA0E0322F4D6
:102BE0007F4243EA01211143CCF80810DCF80810B9
:102BF00041F480411EE0D1F804E0C968DCF82030DF
:102C0000DCF8202022F00102CCF82020DCF818208B
:102C100022F0F00242EA011123F00A0242EA0E0217
:102C2000CCF81810CCF82020DCF8081041F057013F
:102C300021F02001CCF808100022012180F83D107D
:102C4000002180F83C10BDE880401046704701220A
:102C5000F3E700007047000010B504460068016902
:102C6000890744BFC1685FEA81713FD42068016968
:102C7000490744BFC1685FEA417143D420680169D4
:102C8000090744BFC1685FEA017148D4206801693F
:102C9000C90644BFC1685FEAC1614CD420680169BC
:102CA000C9071CBFC1685FEAC17151D120680169C1
:102CB000090644BFC1685FEA016150D42068016918
:102CC000490644BFC1685FEA41614FD42168086981
:102CD000800646BFC8685FEA806010BD6FF02002C2
:102CE00020460A61BDE81040FFF770BD6FF0020199
:102CF000016101212177806980073ED02046FFF7DE
:102D0000A9FF40E06FF00401016102212177806991
:102D100010F4407F3AD02046FFF79CFF3CE06FF074
:102D20000801016104212177C069800737D020465E
:102D3000FFF790FF39E06FF0100101610821217762
:102D4000C06910F4407F33D02046FFF783FF35E0A1
:102D50006FF001010161204600F020FAA6E76FF054
:102D6000800101612046FFF72FFDA7E76FF04001CA
:102D70000161204600F050FBA8E7204600F04EF825
:102D8000204600F0AFF9002020776FE7204600F0E2
:102D900045F8204600F0A6F9002020776EE720468F
:102DA00000F03CF8204600F09DF9002020776DE708
:102DB000204600F033F8204600F094F900202077F8
:102DC0006CE7000080B586B0014640F60000C4F212
:102DD0000100096800F5105291424FF00001CDE961
:102DE0000411CDE9021101D006B080BD41F21801F5
:102DF000C4F202010A6842F004020A60096801F0A4
:102E00000401019101994FF40061029102210391A3
:102E1000059102A9FEF760FF06B080BD7047000073
:102E200090F83C30012B04BF022070474FEAB202F9
:102E30000123032A80F83C3000F2EC802DE9F041B8
:102E4000DFE802F0023B77B2036842F600451C6AF5
:102E50001A6AC4F2010522F001021A621A46D3F876
:102E600004C052F818EF8E6824F00204AB4244EA22
:102E7000060405D1CE6824F00C0426F00406344381
:102E80000E68AB4206D1D1E905582CF440772F43A8
:102E900047EA080C2EF073073743C3F804C09F615C
:102EA0004F6809695F631C629F6947F008079F616B
:102EB0009F6927F004079F61A6E0036842F600457A
:102EC0001C6A1A6AC4F2010522F010021A621A463C
:102ED000D3F804C052F818EF8E6824F02004AB42F7
:102EE00044EA061407D1CE686FF0400724F0C0040E
:102EF00007EA061634430E68AB4206D1D1E90557FE
:102F00002CF4406C3D434CEA850C2EF4E64747EA2E
:102F10000627C3F804C09F614F6809699F631C625C
:102F20009F6947F400679F619F6927F480679F61ED
:102F300069E0036842F600451C6A1A6AC4F201059A
:102F400022F480721A621A46D3F804C052F81CEFB9
:102F50008E6824F40074AB4244EA062407D1CE689C
:102F600040F2FF47360224F44064BE4334430E6807
:102F7000AB4206D1D1E905572CF4405C3D434CEA05
:102F8000051C2EF073073743C3F804C0DF614F6898
:102F90000969DF631C62DF6947F00807DF61DF69E9
:102FA00027F00407DF612FE0036842F60047D3F8FB
:102FB00020C01A6AC4F2010722F480521A621A462B
:102FC0005C6852F81C5FD1F800E08E68BB4204D107
:102FD0004F6924F4804444EA87142CF4005747EAEC
:102FE000063725F4E64646EA0E265C60DE614E684A
:102FF00009691E641F62DF6947F40067DF61DF69EA
:1030000027F48067DF610902136819430023116008
:10301000BDE8F041002180F83C10184670470000E0
:10302000002804BF0120704710B5044690F83D0009
:1030300028B9002084F83C00204600F051F8022016
:1030400084F83D00206842F6004C0268B0F1804FE1
:10305000C4F2010C18BF604504D1A36822F07002CD
:103060001A4305E040F20043C4F200039842F4D052
:10307000B0F1804F18BF604504D1236922F440723B
:103080001A4305E040F20043C4F200039842F4D032
:10309000A16922F08002D4F804E0E368114360459E
:1030A0000160C362C0F828E002D16169CCF8301039
:1030B00001214161002084F8461084F83E1084F814
:1030C0003F1084F8401084F8411084F8421084F8CE
:1030D000431084F8441084F8451084F83D1010BD66
:1030E000704700007047000041B1082909D0042949
:1030F00014BF00F1410200F13F0204E000F13E0282
:1031000001E000F140021278012A1CBF0120704743
:10311000022241B1082909D0042914BF80F84120B6
:1031200080F83F2004E080F83E2001E080F8402055
:10313000006801F01F010122036A8A4023EA0201AC
:103140000162036A42F64441C4F201011A43A1F14B
:1031500044039842026203D0B0F1804F07D112E0DD
:103160000A6842F400420A60B0F1804F0BD042F688
:103170000041C4F20101884205D040F20041C4F28E
:103180000001884204D1816801F00701062903D0BB
:10319000016841F001010160002070472DE9F04F06
:1031A00081B00068B0F1804F02D001B0BDE8F08F6F
:1031B00040F2F41040F2680AC2F200000021C2F2AC
:1031C000000A0160DAF8000040F6004B40F25A07AE
:1031D000C4F2010B411CC2F2000705D037F81010F1
:1031E00058460022FEF772FEFCF7F8FFC11700EB0D
:1031F000917121F00301441AFCF7F0FFC11700EBB5
:10320000917121F0030237F81410851A58460122F3
:10321000FEF75CFE40F2F010C2F20000056040F2E2
:10322000C030C2F20000046040F21400C2F200009C
:1032300000EB051240F2CC35C2F200056FA1284622
:10324000FDF706F8012001212A4601F043F840F27B
:10325000C438C2F2000845F6B616D8F80020C0F609
:10326000000628463146FCF7F3FF022001212A46DA
:1032700001F030F840F2C839C2F2000940F2E035FE
:10328000D9F80020C2F2000528463146FCF7E0FFDD
:10329000022006212A4601F01DF840F2FC3040F2DF
:1032A000F811C2F20000C2F2000100680A68CAF810
:1032B000004010444EF660229042086019D040F25F
:1032C0000040C2F2000000680021C4F2482102F070
:1032D0009BF800283FF469AF40F20440C2F20000BE
:1032E00000680021C4F2482102F08EF800283FF463
:1032F0005CAF40F2E820C2F20000FFF7BFFB40F2F3
:10330000FC10C2F20000FEF78DF940F2A020C2F2DC
:103310000000FFF7B3FB398858460022FEF7D6FDC0
:10332000798858460022FEF7D1FDB9885846002218
:10333000FEF7CCFDF98858460022FEF7C7FD0120B4
:1033400000F0FAFD40F20000C2F200000268012025
:10335000012100F0BFFFD8F80030D9F80040A342A7
:1033600013DD40F24440C2F20000036040F2084026
:1033700045F68A1140F2DC12C2F20000C0F60001EC
:10338000C2F20002FCF764FF25E014DA40F2444088
:10339000C2F20000046040F2084045F68A1140F293
:1033A000E612C2F20000C0F60001C2F2000223469B
:1033B000FCF74EFF0FE0A3427FF4F7AE40F244402B
:1033C000C2F20000036040F20840C2F200000DA10A
:1033D0001A46FCF73DFF40F20844C2F200042046C2
:1033E000FDF776F882B240F23030C2F2000021469A
:1033F00001B0BDE8F04F00F0E7BB00BF202573200F
:103400000000000044726177212053636F7265737E
:103410003A2025640D0A0000704700007047000044
:1034200070470000B0B582B0044600680168C36808
:10343000426901F02F05202D03F0200506D12DB1A2
:10344000204602B0BDE8B04000F090BC5FEA017CCD
:103450001EBF02F0010E03F4907212EB0E0240D177
:10346000226BCD0618D5012A16D113F0100213D005
:103470000021019101680191416801910199406920
:10348000400636D4A08DE18DE28D002A18BF884217
:1034900040F00C8102B0B0BD0A0670D513F0800276
:1034A0006DD094F841102129F4D1A168B1F5805F65
:1034B00003D12169002900F02E81216A4A1C226271
:1034C00009784160E18C01390A04E184E2D1C168E4
:1034D00021F08001C160C16841F04001C16002B0CB
:1034E000B0BDC80718BF13F480705CD1480760D422
:1034F00066E0E06B016849688AB2002ACAD0A38DF1
:103500009A42C7D2E1858069202830D0206850E8EF
:10351000030F216820F4807041E80302002AF5D1EE
:10352000206850E8050F216820F0010041E80502FD
:10353000002AF5D1206850E8050F216820F04000EE
:1035400041E80502002AF5D1202084F8420000203D
:10355000206300BF206850E8030F216820F01000AE
:1035600041E80302002AF5D1E06BFEF7A5F802203E
:103570006063A08DE18D401A81B22046C0E049060B
:103580007FF588AF13F040013FF484AFC16821F0AC
:103590004001C1602021204684F8411002B0BDE8FE
:1035A000B04000F04FBB606C40F001006064480721
:1035B00006D5BEF1000F03D0606C40F002006064DD
:1035C000880706D5BEF1000F03D0606C40F0040000
:1035D0006064BCF1000F06D55EEA050003D0606CA4
:1035E00040F008006064606C00283FF453AF880628
:1035F00003D515B1204600F0B9FB20684069616C25
:1036000000F0400001F00801401848D0206850E860
:10361000030F216820F4907041E80302002AF5D1DD
:10362000206850E8050F216820F0010041E80502FC
:10363000002AF5D1206B01280AD100BF206850E88C
:10364000030F216820F0100041E80302002AF5D1A1
:10365000202084F842000020206320684069400652
:1036600053D500BF206850E8050F216820F04000C6
:1036700041E80502002AF5D1E06B002845D043F669
:103680007541C0F600014163FEF736F800283FF4AB
:1036900001AFE06B416B02B0BDE8B0400847204687
:1036A000FFF7BEFE0020606402B0B0BD401A00BF4C
:1036B000216851E8031F226821F4907142E8031346
:1036C000002BF5D1216851E8051F226821F0010186
:1036D00042E80513002BF5D1202184F84210002187
:1036E000216300BF216851E8031F226821F0100107
:1036F00042E80313002BF5D1022281B22046626317
:1037000002B0BDE8B040FFF789BE204602B0BDE878
:10371000B040FFF785BE216A31F8022B6FF35F22BC
:1037200042602162CEE60000002804BF01207047FD
:1037300010B5044690F8410028B9002084F84000F4
:10374000204600F061F8242084F841002068D4E984
:103750000212C36823F40053C360036923F4405387
:103760001A430261D4E904231143C268194341F2A8
:103770000C639A431143C1604169A26921F440710D
:10378000114343F60002C4F201029042416102D0AB
:10379000FEF73CFE01E0FEF74DFED4E900231921BF
:1037A00048439900B0FBF1F048F21F5CC5F2EB1CF6
:1037B000A0FB0C314FF69C734909C0F6FF7301FB67
:1037C0000300322303EB0010A0FB0C03F02000EAFF
:1037D000531000EB0110C3F34311084490601069CB
:1037E000202120F490401061506920F02A0050619F
:1037F000D06840F40050D0600020606484F841102C
:1038000084F84210606310BDF0B585B004460068CE
:1038100044F20041C4F20001002688420496CDE93A
:103820000266019651D043F60001C4F201018842BC
:1038300040F0818041F21800C4F20200016840F6B5
:10384000000541F4804101600168C4F2010501F402
:10385000804100910099016801AE41F004010160CE
:103860000068314600F00400009000984FF40070AA
:10387000019002200290032004902846FEF72CFAC3
:103880004FF480600190002728463146CDE9027749
:10389000FEF722FA40F25C254420C2F20005C4F291
:1038A00002001021802285E883002846C5E903270D
:1038B000C5E90577EF61FEF72BF8002818BFFDF783
:1038C00001FBA5636C6225242DE041F21800C4F2CF
:1038D0000200416840F6000441F400314160416853
:1038E000C4F2010401F4003100910099016801ADB6
:1038F00041F0040101600068294600F004000090D6
:103900000098042001900220029003200490204699
:10391000FEF7E2F90820CDE9010620462946039684
:10392000FEF7DAF92624204600210022FEF756FB96
:103930002046FEF743FB05B0F0BD00002DE9F04343
:1039400081B0044690F8420020281ED10D4600297F
:103950004FF0010000F080801746002A00F07C80C4
:10396000002022219846606484F842102063FEF70C
:10397000B3FAA785E785A1688146B1F5805F01D1DB
:10398000206930B12E46002504E0022001B0BDE8D8
:10399000F0830026E08D00285AD008F101070CE0E2
:1039A0002068002640686FF35F2025F8020BE08D49
:1039B0000138E085E08D00284AD020680068800644
:1039C00012D477B1B8F1000F05D121E00168890662
:1039D0000AD4002FFAD0FEF77FFAA0EB0900404589
:1039E00016D82068F2E700BF002ED9D0A068B0F545
:1039F000805F07D008B9206920B12068406800F0D6
:103A00007F0001E02068406806F8010BCFE700BFA7
:103A1000206850E8030F216820F4D07041E80302C9
:103A2000002AF5D1206850E8050F216820F0010038
:103A300041E80502002AF5D1202084F8410084F8ED
:103A40004200002084F84000032001B0BDE8F0836C
:103A5000202084F84200002001B0BDE8F08300007F
:103A6000704700002DE9F04381B0044690F8410012
:103A700020281DD10D4600294FF0010000F0A18043
:103A80001646002A00F09D800020606421209846A0
:103A900084F84100FEF720FAA684E684A1688146F6
:103AA000B1F5805F01D1206930B12F46002504E0D7
:103AB000022001B0BDE8F0830027E08C002842D04E
:103AC00008F101060AE000BF97B117F8010B216861
:103AD0004860E08C0138E084E08CA0B32068006886
:103AE0000006F1D4BEB1B8F1000F0ED116E000BF50
:103AF00035F8020B21686FF35F2048600027E8E784
:103B000001680906E0D4002EFAD0FEF7E5F9A0EB33
:103B10000900404502D82068F2E700BF206850E85D
:103B2000030F216820F4D07041E80302002AF5D188
:103B3000206850E8050F216820F0010041E80502E7
:103B4000002AF5D10AE020680068400635D4B8F1B3
:103B5000000F1DD018F101050CD012E0202084F8D0
:103B6000410084F84200002084F84000032001B0A6
:103B7000BDE8F083206800BF016849061DD4002D10
:103B8000FAD0FEF7A9F9A0EB09004045F2D900BF31
:103B9000206850E8030F216820F4D07041E8030248
:103BA000002AF5D1206850E8050F216820F00100B7
:103BB00041E80502002AF5D1D0E7202084F8410031
:103BC000002001B0BDE8F08370B5044690F84100D4
:103BD00020281CBF022070BD4FF0010089B3002ACD
:103BE000134608BF70BD4FF0000C21202162A38452
:103BF000E384C4F844C084F841002268A06B43F613
:103C0000255E43F6655543F68146C0F6000EC0F6C4
:103C10000005C0F600060432C0E90AE5C0E90C6CF4
:103C2000FDF7BAFE20686FF040010160206850E89F
:103C3000050F216840F0800041E80502002AF5D117
:103C4000002070BD7047000070470000FEE70000D4
:103C5000FEE70000FEE7000070470000704700002C
:103C6000FEF740B97047000040F2E820C2F20000C1
:103C7000FEF7F2BF406A0021C185C184FFF7D0BBC7
:103C8000406A0168496990F84120212A11D111F058
:103C900080010ED00021C184016851E8031F026831
:103CA00021F0C00142E80313002BF5D1202180F858
:103CB00041100168496990F84220222A2BD111F065
:103CC000400128D00021C185016851E8031F026826
:103CD00021F4907142E80313002BF5D1016851E8FB
:103CE000051F026821F0010142E80513002BF5D100
:103CF000016B01290AD100BF016851E8031F026866
:103D000021F0100142E80313002BF5D1202180F8A7
:103D1000421000210163416C41F010014164FFF742
:103D20007FBB00000168406A0968890648BFFFF749
:103D300089BF0021C18400BF016851E8051F0268E6
:103D400021F0800142E80513002BF5D1016851E80C
:103D5000031F026841F0400142E80313002BF5D134
:103D600070470000406AFFF76FBF000090F84210F4
:103D7000222918BF70478268B2F5805F01D10169BE
:103D800091B1816AB2F5805F07D00AB9026922B1A8
:103D90000268526802F07F0201E0026852680A700D
:103DA000816A0131816207E00168826A49686FF3C4
:103DB0005F2122F8021B8262C18D01390A04C1858C
:103DC00000D070470168CA6822F02002CA60CA6841
:103DD00022F48072CA604A6922F001024A612021FD
:103DE00080F8421000214163026B012A18BFFFF7DF
:103DF00037BE81B0016300BF016851E8031F02684C
:103E000021F0100142E80313002BF5D101680A6884
:103E1000D20606D5002200920A68009249680091F5
:103E20000099818D01B0FFF7F9BA000040F23030FF
:103E3000C2F20000FFF7F6BA40F27830C2F200009A
:103E4000FFF7F0BAFEE7000070B540F61401C4F2C7
:103E50000101D1F8F82340F6144342F00802C1F8FA
:103E6000F82302224FF0400C4FF0800EC4F2010301
:103E700001240A60C1F800C0C1F800E01C601A60AB
:103E800051F8085C46B245F0020541F8085CC506E9
:103E90004FF0400558BF4FF4800541F8045C85069B
:103EA0004FF0800558BF4FF4000541F8045C45060B
:103EB0004FF0010558BF4FF4803543F8045C0225EC
:103EC000B6F1FF3FC8BF4FF4003543F8045C0A6009
:103ED000C1F800C0C1F800E01C601A6051F8085C2D
:103EE00045F0020541F8085CC5074FF0400508BFE2
:103EF0004FF4800541F8045C85074FF0800558BFFA
:103F00004FF4000541F8045C45074FF0010558BF28
:103F10004FF4803500074FF0020043F8045C58BFAF
:103F20004FF4003043F8040C0A60C1F800C0C1F837
:103F300000E01C601A6070BD70B540F61441C4F218
:103F40000101082240F614030A60C4F201030222B0
:103F50004FF0400C4FF0800E01241A60C3F800C0EF
:103F6000C3F800E00C600A6053F8085C46B245F004
:103F7000020543F8085CC5064FF0400558BF4FF4F2
:103F8000800543F8045C85064FF0800558BF4FF468
:103F9000000543F8045C45064FF0010558BF4FF497
:103FA000803541F8045C0225B6F1FF3FC8BF4FF4ED
:103FB000003541F8045C1A60C3F800C0C3F800E0A3
:103FC0000C600A6053F8085C45F0020543F8085C91
:103FD000C5074FF0400508BF4FF4800543F8045C67
:103FE00085074FF0800558BF4FF4000543F8045C87
:103FF00045074FF0010558BF4FF4803500074FF0DB
:10400000020041F8045C58BF4FF4003041F8040C42
:104010001A60C3F800C0C3F800E00C600A6070BD0D
:104020002DE9F04F83B08246FA20CDE90112FDF769
:1040300001FD40F6144740F61405C4F201070820BC
:10404000C4F2010502244FF0400B80264FF0010816
:1040500038602C60C5F800B02E60C7F800803C6066
:1040600055F8080C4FF4800940F0020045F8080CA0
:104070004FF4000045F8049C45F8040C4FF48030E0
:1040800047F8040C4FF4003047F8040C2C60C5F8D6
:1040900000B02E60C7F800803C6055F8080C4FF463
:1040A000803240F002004FF4003145F8080C322015
:1040B00045F8049C45F8046C47F8042C47F8041CA8
:1040C0002C60C5F800B02E60C7F800803C60FDF79A
:1040D000B1FC0198029940EA0A00084340F0200030
:1040E000FFF72AFF3220FDF7A5FC4FF0080AC7F8BA
:1040F00000A02C60C5F800B02E60C7F800803C60BE
:1041000055F8080C4FF4003140F0020045F8080C57
:104110004FF4000045F8049C45F8040C4FF480303F
:1041200047F8040C47F8041C2C60C5F800B02E605A
:10413000C7F800803C6055F8080C40F0020045F8D4
:10414000080C322045F8049C45F8046C47F8048CB0
:1041500047F8041C2C60C5F800B02E60C7F800803A
:104160003C60FDF767FCC7F800A02C60C5F800B004
:104170002E60C7F800803C6055F8080C4FF4803A78
:1041800040F0020045F8080C4FF4000045F8049C8C
:1041900045F8040C4FF4803047F8040C4FF400301D
:1041A00047F8040C2C60C5F800B02E60C7F80080FA
:1041B0003C6055F8080C40F0020045F8080C32202D
:1041C00045F8049C45F8046C47F8048C47F8044C07
:1041D0002C60C5F800B02E60C7F800803C60FDF789
:1041E00029FC082038602C60C5F800B02E60C7F8A4
:1041F00000803C6055F8080C4FF4000140F00200CC
:1042000045F8080C4FF4003045F8049C45F8041CB0
:1042100047F804AC47F8040C2C60C5F800B02E60D9
:10422000C7F800803C6055F8080C4FF4000A40F0D5
:10423000020045F8080C322045F8049C45F8041C9F
:1042400047F8048C47F8044C2C60C5F800B02E6089
:10425000C7F800803C60FDF7EDFB082038602C605B
:10426000C5F800B02E60C7F800803C6055F8080C17
:104270004FF4803140F002004FF4003245F8080C52
:1042800045F8049C45F804AC47F8041C47F8042C96
:104290002C60C5F800B02E60C7F800803C6055F86F
:1042A000080C40F0020045F8080C45F804BC45F83D
:1042B00004AC47F8041C47F8042C2C60C5F800B087
:1042C0002E60C7F8008064203C6003B0BDE8F04F6A
:1042D000FDF7B0BB10B51446012803D0022806D163
:1042E000BF2000E07F200844C0B2FFF725FE207801
:1042F000002808BF10BD013CC0B2FFF7A5FDA078A3
:1043000001340028F8D110BD98B0FDF7F9FD6C46D6
:1043100020462821FCF7FBF80220009001200490A1
:1043200010200025059020460E95CDE90C55CDE9CD
:104330000A55CDE91655CDE914550795FEF78EF8C7
:1043400018B1EFF3108072B6FEE70F20CDE90A0531
:104350000AA80021CDE90C550E95FDF779FF20B193
:10436000EFF3108072B600BFFEE74FF0020900279E
:1043700014A8CDF850901697FDF7EAFE18B1EFF3A8
:10438000108072B6FEE741F21805CDE90277CDE95B
:104390000077C4F20205286840F6004840F020008B
:1043A00028602868C4F2010800F020000A900A98EA
:1043B0002868A8F5806440F0040028602868C221BD
:1043C00000F004000A900A982868002240F00800D3
:1043D00028602868C22600F008000A900A98204643
:1043E000FDF774FD40464FF20B0100224FF20B0A1D
:1043F000FDF76CFD00966E464FF0010B20463146EE
:10440000CDE901B7CDF80C90FDF766FC404631468A
:10441000CDE900ABCDE90279FDF75EFC4FF44060D9
:1044200000900020C1F21100CDE90107404631465D
:10443000FDF752FC282000210022FDF7CFFD2820A7
:10444000FDF7BCFD55F8040C002140F0010045F8D3
:10445000040C55F8040C002200F0010000900098B4
:104460000E20FDF7BBFD0E20FDF7A8FD40F2E82071
:10447000C2F200004FF080417C224FF6FF1380E82B
:1044800086008021CDE90277CDE90077CDE90A7772
:10449000C0E903378161FEF7F7F920B1EFF310802F
:1044A00072B600BFFEE74FF48050009040F2E82063
:1044B000C2F200006946FEF7FBFA20B1EFF310806C
:1044C00072B600BFFEE710200A9040F2E8200024F8
:1044D000C2F200000AA90B94FEF7A2F918B1EFF39B
:1044E000108072B6FEE740F2FC1008F5C057C2F229
:1044F00000000294CDE90044047304754FF4602178
:10450000C0E9007484600124C1610461FCF70AFF02
:1045100018B1EFF3108072B6FEE70420CDE9000475
:1045200040F2FC14C2F200040025694620460295C0
:10453000FCF746FD18B1EFF3108072B6FEE740F2CB
:104540002C2008F5E051C2F200004FF46022012651
:104550000295CDE9005505730575C261C0E90015E6
:1045600085600661FCF7DEFE18B1EFF3108072B6CD
:10457000FEE740F22C200025C2F200006946CDE99A
:1045800000560295FCF71CFD18B1EFF3108072B6CF
:10459000FEE740F2A02008F50051C2F200004FF6FD
:1045A000FF73CDE91655CDE91455CDE91255109597
:1045B000CDE90E55CDE90C55CDE90A55CDE90655A5
:1045C000CDE90455CDE90255CDE90055152280E825
:1045D0002600C0E90335C0E90555FEF755F918B1C5
:1045E000EFF3108072B6FEE74FF48050149040F263
:1045F000A020C2F2000014A9FEF75AFA18B1EFF396
:10460000108072B6FEE740F2A020C2F20000FEF772
:1046100007FD18B1EFF3108072B6FEE740F2A0205C
:104620000025C2F2000012A9CDE91255FEF7F8F8F4
:1046300018B1EFF3108072B6FEE760200A903220C6
:10464000CDE90B0540F2A020C2F200000AA90C221D
:10465000CDE90E551095FEF7E3FB18B1EFF310808E
:1046600072B6FEE74FF40050059040F2A0200025FE
:10467000C2F2000069460495CDE90255CDE9005526
:104680000795FEF7A5F818B1EFF3108072B6FEE7B4
:1046900040F2A020C2F20000FEF794FB40F230305E
:1046A00008F53051C2F200000C264FF4165280E893
:1046B0002600C0E90355C0E90565C561FFF734F878
:1046C00018B1EFF3108072B6FEE740F27830A8F52B
:1046D0004841C2F2000000234FF4E13280E80E00AE
:1046E000C0E90333C0E90563C361FFF71DF818B1E2
:1046F000EFF3108072B6FEE740F2DC18C2F2000859
:1047000098F80000E0B140F2E820C2F20000FEF7A5
:1047100075F94FF460200025E061012620460295DE
:10472000CDE9005525732575C4E90075A56026619E
:10473000FCF7F8FD00286FD0EFF3108072B6FEE7AB
:1047400040F2E61640F2303540F20C0A40F2640BBB
:1047500040F210090020C2F20006C2F20005C2F2C7
:10476000000AC2F2000BC2F20009014601300A2819
:1047700003D018F80020002AF7D00929C3D33078D5
:104780000028C0D100210846092905D031184978F0
:10479000002900F10101F6D00928B4D340F2040049
:1047A000C2F20000016828461E224FF4FA63FFF7A8
:1047B00059F9DAF800102846192241F28833FFF738
:1047C00051F928464146192241F28833FFF7B6F8DD
:1047D000DBF80010284602220123FFF743F9D9F83D
:1047E00000102846192241F28833FFF73BF928468A
:1047F0003146232241F28833FFF7A0F8DBF800109E
:10480000284602220123FFF72DF998F8000000281E
:104810004FF00000A9D076E70420CDE9000640F271
:10482000FC10C2F2000069460295FCF7C9FB18B102
:10483000EFF3108072B6FEE740F2FC10C2F2000007
:10484000FCF77AFE40F22C24C2F200042046FCF76A
:1048500073FE002004210822FFF7E2FB40F2A020B3
:10486000C2F200000C21FEF73FFC2046FCF730FBB3
:10487000FEE75FEA400C08BF91F0000F4FEA8C237F
:104880004FEAC12243EA51514FEA1C5018BF00F5CC
:10489000F0404FEA300018BF41F000415FEA6C5C25
:1048A00000F02980BCF1FF3F08BF40F08040704716
:1048B000130C06BF12044FF0100C4FF0000C130E37
:1048C00004BF12020CF1080C130F04BF12010CF10B
:1048D000040C930F04BF92000CF1020CD30F04BF21
:1048E00052000CF1010C11464FF00002A0F11F0024
:1048F000A0EB0C00704711F0004F08BF704731F07B
:1049000000413FF4D5AF0B0C06BF09044FF0100C6B
:104910004FF0000C0B0E04BF09020CF1080C0B0F3A
:1049200004BF09010CF1040C8B0F04BF89000CF1CA
:10493000020CCB0F04BF49000CF1010CCCF1200399
:1049400022FA03F341EA030102FA0CF2A0EB0C0095
:1049500000F101007047000023F07F4720F07F4CFA
:1049600080EA030000F00040ACEB070303F57C5342
:1049700003F1FF032DE9804909B44FEA144324EA07
:1049800003484FEA154B25EA0B4E0FF2042606EBBF
:1049900013273E7803FB0667C7F5000707FB06F6FB
:1049A0004FEAD64606F102064FEA543707FB066C7B
:1049B000CCF1005C4FEA1C472CEA074C0CFB06F5D7
:1049C00007FB06F404EB15464FEA961649085FEA22
:1049D000320234BF00204FF000404FEAD13706FBCF
:1049E00007FC4FEA1C4C0CFB0BF7D21B03FB0CF72C
:1049F00061EB07010CFB0EF7B0EB074072EB1742BF
:104A00000CFB08F734BFA2EB0742B2EB074261EBA5
:104A100017414FEA0C444FEA910706FB07FC4FEAA7
:104A20001C4C0CFB0BF7B0EBC74072EB573203FB8F
:104A30000CF734BFA2EBC742B2EBC74261EB573170
:104A40000CFB0EF7B0EBC70072EB57720CFB08F7CC
:104A500034BFA2EBC702B2EBC70261EB57714FEA5A
:104A6000816141EA92114FEA826242EA90124FEA72
:104A7000806004EBCC04039F4FEAD13706FB07FCB0
:104A80004FEA1C4C0CFB0BF7D21B03FB0CF761EB42
:104A900007010CFB0EF7B0EB074072EB17420CFB63
:104AA00008F734BFA2EB0742B2EB074261EB1741B4
:104AB0004FEA8C5504EB9C244FEA910706FB07FC58
:104AC0004FEA1C4C0CFB0BF7B0EBC74072EB5732B4
:104AD00003FB0CF734BFA2EBC742B2EBC74261EB5A
:104AE00057310CFB0EF7B0EBC70072EB57720CFBA3
:104AF00008F734BFA2EBC702B2EBC70261EB5771F4
:104B00004FEA816141EA92114FEA826242EA9012D1
:104B10004FEA806015EB4C2544F100044FEAD13791
:104B200006FB07FC4FEA1C4C0CFB0BF7D21B03FBEC
:104B30000CF761EB07010CFB0EF7B0EB074072EBD3
:104B400017420CFB08F734BFA2EB0742B2EB074257
:104B500061EB17414FEA813141EA92414FEA8232DB
:104B600042EA90424FEA80304FEA0C7615EB1C1572
:104B700044F1000448EA03434EEA0B484FF0000EAC
:104B8000B2EB080C71EB030724BF624639464EEBCB
:104B90000E0E4FF0000B0018524149414BEB0B0B2E
:104BA000B2EB080C71EB03077BF1000B24BF6246EC
:104BB00039464EEB0E0E4FF0000B001852414941A2
:104BC0004BEB0B0BB2EB080C71EB03077BF1000B0B
:104BD00024BF624639464EEB0E0E51EA020718BF5B
:104BE00046F0010616EB0E7655F1000254F1000175
:104BF00003D5BDE88901BDE80088BDE88901BDE8AD
:104C00000048B619524141EB0101A3F1010370477D
:104C100080807F7E7D7C7B7A7978777676757473F9
:104C2000727171706F6E6E6D6C6C6B6A6A696868B8
:104C3000676666656464636362616160605F5F5E4E
:104C40005E5D5D5C5C5B5B5A5A59595858575756C4
:104C50005655555554545353525252515150505029
:104C60004F4F4F4E4E4D4D4D4C4C4C4B4B4B4A4A7B
:104C70004A494949484848474747474646464545BF
:104C800045444444444343434342424242414141F8
:104C90009C46002B30D477002BD04FEA37071CB549
:104CA00003B44FF010004FF01001BAF1000F06D01E
:104CB000BCF1000FDCBF40F0080040F008014FF0ED
:104CC00000000FBCBDE810400BF1010BBBF1010F60
:104CD00008BF5FEA170722BF12F1010211F10101BB
:104CE0004FF0004143F1000300F0004043EA0000B0
:104CF0007047F9D35708D0E746EA06464FEA16460A
:104D000013F1400F1FDD13F1200FDFBF16430A46DA
:104D1000002120335B42BED0C3F1200746EA06469D
:104D20004FEA164602FA07F746EA070622FA03F2A6
:104D3000C3F1200701FA07F742EA070221FA03F15B
:104D40004FF00003A7E746EA020646EA06464FEAA6
:104D5000164646EA0106BCBF46EA0646360C4FF048
:104D600000034FF000024FF0000194E72DE9804C62
:104D700070B49A46934691E8380007C831EA400C6F
:104D800048BF34EA430C03D5FFF7E6FDFFF780FF89
:104D9000F0BCBDE8008C2DE9804C70B49A46934677
:104DA00091E8380007C810F0804F08BF13F0804F1B
:104DB00003D100F005F8FFF76BFFF0BCBDE8008CF5
:104DC00020F07F4723F07F4C80EA030000F0004092
:104DD00007EB0C03A3F57C53A3F1FE0392F0000F45
:104DE00000F0B38095F0000F00F077802DE90149C5
:104DF0004FEA114021EA00484FEA144624EA0647E8
:104E000000FB06FC08FB06F607FB08F818EB064853
:104E10004CEB164C00FB07F718EB07484CEB174020
:104E20004FEA124B22EA0B4E4FEA154625EA064797
:104E30000BFB06FC0EFB06F607FB0EFE1EEB064EFA
:104E40004CEB164C0BFB07F71EEB074E4CEB174BCE
:104E500018EB0B0840F1000018EB0E0B58EB0008A4
:104E600040F100008F1A4FF000014FF000063CBFE8
:104E7000C943661B14BFB5EB040C00213CBFC943FA
:104E8000F61B4FEA174427EA04454FEA1C472CEA71
:104E9000074C04FB076205FB07F70CFB05F616EB56
:104EA000074642EB174204FB0CFC16EB0C4642EBA8
:104EB0001C421BEB060658EB020241414EEA8E0EE5
:104EC00046EA9E0601D5BDE80189B619524141EB7B
:104ED0000101A3F10103BDE801894FEA144524EA69
:104EE00005464FEA114721EA074C05FB07F406FB8C
:104EF00007F70CFB06F111EB074144EB174405FBE8
:104F00000CFC11EB0C4144EB1C444FEA124722EA23
:104F1000074C05FB07F206FB07F70CFB06F616EB42
:104F2000074642EB174205FB0CFC16EB0C4642EB26
:104F30001C456A1854F1000148BF7047B619524128
:104F400041EB0101A3F10103704795F0000F37D049
:104F50004FEA114221EA02464FEA144724EA074C7D
:104F600002FB07F106FB07F70CFB06F414EB074402
:104F700041EB174102FB0CFC14EB0C4441EB1C41D0
:104F80004FEA154725EA074C02FB07F506FB07F732
:104F90000CFB06F616EB074645EB174502FB0CFC2F
:104FA00016EB0C4645EB1C42121951F1000148BFAB
:104FB0007047B619524141EB0101A3F1010370475B
:104FC0004FEA144524EA05464FEA114721EA074C07
:104FD00005FB07F106FB07F70CFB06F212EB074295
:104FE00041EB174105FB0CFC12EB0C4251EB1C4151
:104FF0004FF0000648BF7047921841EB0101A3F142
:1050000001037047490050EAC12018BF04204A0D2F
:1050100018BF40F0010040F2FF72B2EB515F08BFD1
:1050200040F00200012808BF0520704730380A28E8
:1050300001D20120704700207047000010B5002900
:105040000AD00878002807D005487844FBF75AFEB4
:10505000002801D0002010BD0248784410BD000097
:10506000920900008A09000021F0004201F000438B
:10507000A2F16052B2F5801F28BFD2F17F6C0BD92C
:105080005FEA001C43EAC20242EB507018BF70474F
:1050900028BF20F001007047B2F5801FBCBF184642
:1050A00070474FEA410C1CF5001F02D2084600F081
:1050B00044BB70B500F0C6F800000089FFF7F6BFEA
:1050C0004FF00040A0F580007047B0FA80F310FA6E
:1050D00003F10AD0C3F11D0303F580634FEA0352C5
:1050E0004FEA415002EBD12170474FF0000070476A
:1050F00070B5DFF848C11CEA111E1EBF1CEA13156B
:105100009EEA0C0F95EA0C0F00F06F8081EA030411
:105110004EEAD47EAE4421EA4C1123EA4C1341F40A
:10512000801143F48013AEF17F7EA1FB024CA0FB03
:105130000365361955EB0C05A1FB034C4CF100033C
:10514000A0FB021C16EB0C06654153F1000309425B
:1051500018BF46F0010613F4007F0BD14FEA03316C
:105160004FEA053041EA155140EA165034036FF01A
:1051700003020AE04FEAC3214FEAC52041EA555134
:1051800040EA5650F4026FF0020202EB2E4201EBAD
:10519000025585EACE710AD05FEA440C18BF24F0AC
:1051A000004450F1000041F1000120EAD47040F2C7
:1051B000FE7C624500D270BDA84214BF4FF080440F
:1051C0004FF04044002E08BF0024BEF1806FA8BFFE
:1051D000A1F1C041BDE8704080F2828001F1C04180
:1051E00001F000414FF0000070470CEA13159EEAF1
:1051F0000C0F18BF95EA0C0F06D081EA030E4FF092
:1052000000000EF0004170BD00F01CF88900013E66
:1052100000F007B800F009B84FEA430C5FEA5C5CA5
:1052200008D081EA030100F05BB84FEA410C5FEA65
:105230005C5CF6D102494FF0000070470000FF07A8
:105240000000F87F0EF1020E2EF0030E5EF8046BE4
:10525000364205D4012A43EB030515F5001F12D889
:10526000012841EB010C1CF5001F0CD80ED14FEAB0
:10527000D17C0CEB4C0C0CF1020C15F5001F08BF97
:105280004CEBD37C04E04FF0080C01E04FEAD37CF8
:105290000CEB4C0526FA05F606F00706B6F1040CF1
:1052A00006D20EEB860CBDE870404CF0010C604756
:1052B000DFE80CF0090B02024FF00041A1F50021DC
:1052C0004FF0000070BD19461046012851EB010453
:1052D00018BFD4F5001484BF002001F0004170BD58
:1052E0000808A0F500114FEA3101704743004FEA6A
:1052F000D30C4FEA3C0C43401FBF40070CF16051F8
:1053000013F0FE4F70471CF0006F03D10CF000410A
:10531000002070470CF0004343EA507040EACC0094
:1053200010B500F0C4F900BF000000924FEA000180
:10533000FFF7D6BF4FF00041A1F500214FF000006C
:105340007047000090EA010F48BF81F0004100F172
:105350000082421A3CBF801A89184FEAD052A2EB51
:10536000D1534FF07F4C1CEA410F18BF9CEA026FEB
:1053700000F03B804FF0004C4CEA00204CEA012149
:1053800021FA03FC10EB0C0C1ED202F1FF325FEA93
:105390001C2040EBC25038BF70471CF07F0F4FEA13
:1053A000400C18BFBCF17F4F38BF7047C3F12003DA
:1053B000994008BF20F00100BCF17F4F38BF704713
:1053C000A0F1C04000F0B9B94FEA3C00000A40EB40
:1053D000C25028BF1CF0FF0F4FEA400CE6D018BFA8
:1053E000BCF17F4F38BF7047EAE79CEA026F05D0F7
:1053F00010EA5C0F08BF00F00040704710B500F0E5
:1054000056F900BF64FBBE3E10B500F033F80CBF88
:105410000120002010BD10B500F02CF814BF0120B1
:10542000002010BD10B500F059F88CBF01200020FD
:1054300010BD10B500F052F82CBF0120002010BDA7
:1054400010B500F07FF894BF0120002010BD10B50A
:1054500000F078F834BF0120002010BD401058BF84
:10546000C0F14040491058BFC1F140418142EFF3C3
:105470000080704750EA010C00F113801CF5000F0A
:1054800058BFBCF5000F01D48842704707D710F50C
:10549000000F58BF11F5000F15D48842704789429C
:1054A00070471CF5000F04D5BCF5000FF7D58142FD
:1054B00070474FF0807C1CEB400F38BF1CEB410F56
:1054C00001D28142704710B500F0F1F892244900F2
:1054D0004FF000504FF08051FFF7C0BF50EA010C71
:1054E00000F113801CF5000F58BFBCF5000F01D46C
:1054F0008842704707D710F5000F58BF11F5000F0D
:1055000015D488427047894270471CF5000F04D5B6
:10551000BCF5000FF7D5814270474FF0807C1CEB43
:10552000400F38BF1CEB410F01D28142704710B5CC
:1055300000F0BDF8922449004FF080504FF0005128
:10554000FFF78CBF50EA010C00F113801CF5000F2F
:1055500058BFBCF5000F01D48842704707D710F53B
:10556000000F58BF11F5000F15D4884270478942CB
:1055700070471CF5000F04D5BCF5000FF7D581422C
:1055800070474FF0807C1CEB400F38BF1CEB410F85
:1055900001D28142704710B500F089F89224490089
:1055A0004FF000504FF08051FFF758BF4FF47F0C81
:1055B0001CEAD0121EBF1CEAD11392EA0C0F93EA28
:1055C0000C0F00F0478090EA010F48BF42F4807250
:1055D0004FF0004C4CEA00204CEA012102EB0302A0
:1055E000A0FB0113A2F50002002918BF43F001033C
:1055F0005B0028BF4FEA330342EB22425FEA132CE1
:105600004CEBC2502EBFBCEB436FB2F57C0F704722
:105610004FEA036CBCF1004F08BF20F00100B2F567
:105620007C0F38BF70470BD582F0FF0212F5803F28
:10563000C8BF704700F1C040D8BF00F000407047BD
:1056400000F5000C5FEA4C0C48BF7047B0F1C04059
:1056500000F073B80CEAD11390EA010F48BF42F48E
:105660008072624538BF634504D280EA010000F0D1
:105670000040704710B500F01AF800BF8900013EE5
:1056800000F007B800F009B85FEA410C5FEA1C6C53
:1056900008D080EA010000F050B85FEA400C5FEAF1
:1056A0001C6CF6D14FF00040A0F5800070470EF161
:1056B000020E2EF0030E5EF8044B244204D44FEA8F
:1056C0004102B2F17F4F11D84FEA4003B3F17F4F4F
:1056D0000CD80ED14FEAD07C0CEB4C0C0CF1020C28
:1056E000B2F17F4F08BF4CEBD17C04E04FF0080CC7
:1056F00001E04FEAD17C0CEB4C0324FA03F404F0F4
:105700000704B4F1040C06D20EEB840CBDE8104083
:105710004CF0010C6047DFE80CF0070802024FF084
:105720000040A0F5800010BD0846420018BFD2F12D
:10573000807288BF00F0004010BDFF2141EAD050C8
:10574000C005704790EA010F48BF81F000413FF566
:1057500000AE421A04D882F00042A0EB02001144CD
:105760004FEAD052A2EBD1534FF07F4C1CEA410FCD
:1057700018BF9CEA026F4AD04FF0004C4CEA002060
:105780004CEA012121FA03FCB0EB0C0C0FD412F00F
:10579000FE0F36D05FEA4C001DD5001240EBC25020
:1057A00038BF70471CF03F0F18BF70470BE05FEA2F
:1057B0001C20A2F1010240EBC25038BF70471CF020
:1057C0007F0F18BF7047C3F12003994014BF401EDC
:1057D00020F0010070474FEA1223800808BF70478D
:1057E000B0FA80FCA2EB0C02CCF1280C60FA0CF0B1
:1057F00093EA122F04BF00EBC25070474FEAC37008
:105800007047130A5FEADC1008BF7047F6E79CEAAE
:10581000026F04D010EA5C0F08BF0020704710B57B
:10582000FFF745FF40DFF63E81F000407047FAF792
:10583000C9BF000002400000000000A000000000FE
:1058400005400000000000C8000000000C400000FF
:105850000000409C00000000194000000020BCBE79
:105860000000000034400000BFC91B8E000000048F
:10587000B5400000504BCFD06607E2CF01000000DA
:105880006C4100003E8251AADFEEA7340100000007
:10589000D9420000DCB5A0E23A301F97FFFFFFFFBE
:1058A000B4450000FD25A0C8E9A3C14FFFFFFFFFDD
:1058B000FF3F00000000008000000000FF3F0000EC
:1058C0000000008000000000000000000000000058
:1058D0000102030406070809000000000102030496
:1058E000010202030405060708090A0B0C0D0E0F3E
:1058F000101020202047616D65206F766572212190
:10590000210D0A0053636F72657320617265206513
:105910007175616C21282564290D0A00506C61792C
:105920006572206E616D65732063616E6E6F7420A9
:105930006265206E756C6C212E0D0A0057726974B9
:1059400065206E616D65206F6620706C617965728F
:10595000312E0D0A005772697465206E616D6520E5
:105960006F6620706C61796572322E0D0A002050CE
:105970006C79723120776F6E3A0D0A0020506C7985
:10598000723220776F6E3A0D0A0057696E6E65723B
:1059900020697320257320616E642074686520730C
:1059A000636F72652069733A2025640D0A002044F4
:1059B0007261770D0A00202564200000F859000864
:1059C000000000209800000050010008905A0008D4
:1059D00098000020B0090000700100081C000000C1
:1059E00043000000F8FFFFFF0C0000000E00000065
:1059F0000F0000002E000000F25800081C5900089B
:105A00000024F4003C590008555900082020526534
:105A100064202020000000000000000020205075BD
:105A200072706C65000000000000000020204772CA
:105A300065656E2000000000000000002020426C20
:105A4000756520200000000000000000FFFFFFFF40
:105A5000FFFF00100020004000800000B359000844
:105A6000FFFFFFFF01000000100000002000000009
:105A70000000000000000000000000000000000026
:105A80000000000000000000000000000000000016
:04000005080000ED02
:00000001FF
