:020000040800F2
:10000000E8090020FD0100083D2F0008352F0008F9
:10001000392F0008650600082D3100080000000097
:10002000000000000000000000000000452F000854
:100030007506000800000000412F0008492F000845
:10004000170200081702000817020008170200082C
:10005000170200081702000817020008170200081C
:10006000170200081702000817020008170200080C
:1000700017020008170200086906000817020008A6
:100080001702000817020008B90500081702000847
:1000900017020008170200081702000817020008DC
:1000A00017020008170200081702000817020008CC
:1000B000512F000817020008000000001702000876
:1000C00017020008000000000000000017020008EE
:1000D0000000000015310008213100080000000078
:1000E00079060008170200081702000800F002F85D
:1000F00000F05AF814A696E8000CB244B344DA456E
:1001000001D100F051F8BAE80F000FA696E83000D0
:10011000A5EB040504EB0607AAEB0704A7F101070A
:100120004FEA15154FEA3414A4F10104AC4201D38F
:1001300000F03AF813F0010F18BFFB1A43F0010367
:1001400000F001F8DBE71847503A0000703A000071
:10015000103A24BF78C878C1FAD8520724BF30C8F3
:1001600030C144BF04680C60704700007047000055
:100170000023002400250026103A28BF78C1FBD8B0
:10018000520728BF30C148BF0B607047642900F098
:10019000C780732900F0D981002070471FB500F097
:1001A00010F91FBD10B510BD00F0DAF91146FFF7C8
:1001B000F5FF03F023FA00F00DF903B4FFF7F2FFA7
:1001C00003BC00F0C7F900000B49D1F800C04A6831
:1001D0005CF8043B1068184442F8040B8C4528BFB7
:1001E000A1F1DC0C8A4228BFA1F1DC02C1F800C0F9
:1001F0004A6020F0004070475401002009488047C1
:1002000009480047FEE7FEE7FEE7FEE7FEE7FEE7F8
:10021000FEE7FEE7FEE7FEE704480549054A064B10
:10022000704700004D2F0008ED000008E803002093
:10023000E8090020E8050020E80500200FB41CB5FF
:10024000074B06AA7B4469460090059800F053F9D5
:100250000020694600F062F91CBC5DF814FB000048
:10026000D50200002DE9F0410E4604460020206230
:100270002046E168884730B3252805D0D4E901211C
:100280009047206A401CF2E7E16820460027884733
:10029000050018D0A5F14100192802D820354FF4E7
:1002A00000673246294620462760FFF76FFF40B1BE
:1002B000012804D0F61D26F007060836D8E7361DBB
:1002C000D6E72846DAE7206ABDE8F08170B50C462B
:1002D0000546012A05D02878800600D5EA69002362
:1002E00002E0012305E05B1C934202D2E05C00289F
:1002F000F9D1A869E618C01AA861286A18442862CA
:100300002846AFF3008004E0D5E9012114F8010B81
:100310009047B442F8D32846AFF3008070BD000088
:100320002DE9F0410646002410687529314616A5CE
:1003300010D0AFF30080002802DA404213A507E096
:1003400031688A0701D512A502E0490704D511A535
:10035000012401E0AFF3008000210A2206F1240706
:1003600009E0B0FBF2FCB0FBF2F302FB1C00303002
:1003700078541846491C0028F3D123462A463046B3
:10038000BDE8F04100F059B8000000002D00000069
:100390002B000000200000000B4910B5A1F17C02E9
:1003A0000A4CC2E93712372106E000EB104342F84D
:1003B0002130074B00FB03400B1EA1F10101F4DCCF
:1003C00010BD0120E8E70000F4000020E119D66626
:1003D000CD0D010010B50446AFF300802046BDE806
:1003E0001040FFF7EABE4FF0000200B513469446F6
:1003F0009646203922BFA0E80C50A0E80C50B1F17D
:100400002001BFF4F7AF090728BFA0E80C5048BF90
:100410000CC05DF804EB890028BF40F8042B08BF2E
:10042000704748BF20F8022B11F0804F18BF00F82A
:10043000012B70477047704770472DE9F0470D4614
:1004400099469246044600F124080168880604D5BE
:10045000E06921F01001216000E00120A84201DDE7
:10046000471B00E00027A1697A1902EB0900081A6E
:10047000A0612078C00602D42046AFF30080002699
:1004800008E0D4E901211AF806009047206A401CD0
:10049000761C20624E45F4DB2078C0060AD5204643
:1004A000AFF3008006E0D4E9012130209047206AB4
:1004B000401C2062381EA7F10107F4DC07E0D4E9F4
:1004C000012118F805009047206A401C2062281E70
:1004D000A5F10105F3DC2046AFF30080207800068B
:1004E00002D50220BDE8F0870120FBE701694A1C24
:1004F00002610878704700B58FB0CDE90131002165
:10050000059105497944CDE9031011466846FFF786
:10051000A9FE0FB000BD0000E5FFFFFF0A6802F86A
:10052000010B0A60704710B5436913B1AFF3008047
:1005300001E0FFF7CBFE012010BD127800F124018D
:100540000A7000224A700122EDE711684FF0FF3275
:10055000E9E7000001491820ABBEFEE726000200D3
:10056000754600F023F8AE4605006946534620F074
:100570000700854618B020B5FFF74EFEBDE82040C5
:100580004FF000064FF000074FF000084FF0000B4F
:10059000AC46ACE8C009ACE8C009ACE8C009ACE8BE
:1005A000C00921F007018D467047000000487047E0
:1005B0005C0100207047000080B540F2E010C2F2FC
:1005C000000000F047F940F21020C2F20000BDE840
:1005D000804000F03FB90000B0B582B00446002072
:1005E000019021688A68D2073AD1886840F00100FA
:1005F000886040F20400C2F2000000684DF683619A
:10060000C4F21B31A0FB0101880C00BF01900198CE
:1006100010B101980138F9E700F090FE216889686F
:10062000C9071CD1054603E020688068C00716D1C1
:1006300000F084FE401B0328F6D320688068C007C2
:10064000F2D1A06A40F01000A062E06A40F0010020
:10065000E062002084F82400012002B0B0BD002038
:1006600002B0B0BDFEE7000040F24020C2F2000040
:1006700000F0AABB7047000080B54FF4806000F026
:1006800051FD4FF40060BDE8804000F04BBD00001C
:10069000EFF3108072B600BFFEE700007047000065
:1006A000B0B581B00022009290F82420012A01D137
:1006B000022179E04A680123062A02EB820C80F8C5
:1006C000243005D8026802F1340E6FF004020AE00B
:1006D00003680C2A87BF03F12C0E6FF0400203F170
:1006E000300E6FF022026244DEF800C01F230C6857
:1006F00093402CEA030304FA02F21A43CEF80020D6
:10070000D1F800E002680EEB4E041023BEF1090F91
:1007100088BF1E3C88BF0C2352F803C00725896898
:10072000A5402CEA0505A1402943D1502EF0010136
:100730004FF0000C10294FF0000133D1016842F254
:100740000042C4F20102914205D0816A41F02001C9
:100750008162012126E09268120222D48A68BEF1E9
:10076000100F42F400028A601BD140F20401C2F271
:10077000000109684DF68362C4F21B32A1FB02122C
:10078000910C01EB810149000091009949B100BF32
:10079000009901390091009900294FF00001F7D12B
:1007A00000E0002180F824C0084601B0B0BD000080
:1007B0002DE9F04100F04AF880B240F2C2614FF4F6
:1007C000FA6288424FF0F90540F2555338BF40F2C3
:1007D000DC5238BFBF2598423CBF40F2E2429F2521
:1007E000884240F2DC10C2F20000026040F2D830D1
:1007F00040F25C07C2F20000C2F2000702603888D3
:100800004FF6FF1640F2580838BF4FF22346854294
:10081000C2F2000805D1D8F80000864208BFBDE842
:10082000F08140F2CC24C2F2000420466560E6600C
:1008300001F0C2FA204601F0DBF9204601F06CFA23
:100840003D80C8F80060BDE8F08100000068C06C21
:100850007047000070B50446006805684668B10638
:1008600027D515F0020124D0A16AC90603D4A16AD4
:1008700041F40071A162816801F46021B1F5602F3B
:1008800010D1217B71B9416821F020014160A06A3B
:1008900020F48070A062A06AC00403D4A06A40F073
:1008A0000100A0622046FFF783FF20686FF012016D
:1008B0000160300633D515F0040030D0A06AC006C0
:1008C00003D4A06A40F40050A0622068816801F45B
:1008D000E041B1F5E04F0FD1416821F08001416066
:1008E000A06A20F48050A062A06AC00510D4A06A5B
:1008F00040F00100A0620BE04168490508D481681E
:1009000001F46021B1F5602F02D1217B0029E3D0F1
:100910002046FFF7C3FE20686FF00C0101607006EF
:100920000ED515F0010008BF70BDA06A40F48030FC
:10093000A062204600F0B6F820686FF00101016067
:1009400070BD0000002804BF01207047B0B5044608
:10095000806A30B90020E06284F82400204600F06C
:10096000A3F820688168C90709D0816821F00101D6
:10097000816000F0E3FC21688968C90730D100205C
:100980000121A36AA26A31B313F0100123D141F20D
:10099000021122EA01010231A162E169D4E90132C6
:1009A00041EA030C531EB3FA83F35D091346B2F513
:1009B000807F18BF2B02217D257B01294CEA450E43
:1009C00031D13DB3A56A45F02005A562E56A45F041
:1009D0000105E56227E042F01000A0620120B0BDF1
:1009E000054603E020688068C007C8D000F0A6FC78
:1009F000401B0328F6D320688068C007F2D0A06AA5
:100A0000002140F01000A062E06A40F00100E062C6
:100A10000120B6E7D4F818C04EF60005CFF6FF75F2
:100A200005EB4C352B432568B2F5807F696821F4CE
:100A3000694141EA03016960A9684FF2FD73CFF68D
:100A4000E17301EA030141EA0E01A96001D0012A24
:100A500006D121690022CFF6F07202EB015200E0CC
:100A60000022E96A21F470011143E962A96840F6A5
:100A7000FE62CFF61F721140714507D10021E1627D
:100A8000A16A012262F30101A162B0BDA06A40F037
:100A9000100020F00200A062E06A40F00100E06275
:100AA0000120B0BD7047000080B586B0006842F6F6
:100AB0000001C4F2010188424FF00001CDE90411A8
:100AC000CDE902111DD042F20041C4F20101884279
:100AD00040D141F21800C4F20200016841F40071F3
:100AE0000160016801F4007101910199016841F010
:100AF00004010160006800F00400019001981020DA
:100B000016E041F21800C4F20200016841F480616D
:100B10000160016801F4806101910199016841F06F
:100B200004010160006800F00400019001980120B8
:100B300002900320039040F60000C4F2010002A9D5
:100B400000F0FCFA12200021002200F079FC1220B3
:100B500000F066FC06B080BDB0B5044690F82400F5
:100B6000012804BF0220B0BD012084F824002046E3
:100B7000FFF732FD18B1002184F82410B0BD42F215
:100B8000044C2168A26AC4F2010C40F601739A4336
:100B90000CF57F7502F58072A942A26207D0A26AA5
:100BA00022F48012A2624A6852051AD41EE0DCF8D0
:100BB000002012F4702FF2D0A26A42F4801E42F696
:100BC0000002C4F201029142C4F828E005D042F2CA
:100BD0000042C4F20102914208D1DCF80020520523
:100BE00004D5A26A012363F30D32A262A26A4FF018
:100BF000000ED2044FF0000244BFE26A22F0060267
:100C0000E2626FF0020284F824E00A604A6842F06F
:100C100020024A608A6802F46022B2F5602F0BD18C
:100C2000A94204D08A6842F4A0028A60B0BDDCF810
:100C3000002012F4702FF5D08A6842F480128A6086
:100C4000B0BD0000B0B5044690F82400012804BFF0
:100C50000220B0BD0121206884F824108268D207E8
:100C600002D1002069B917E0816821F0010181609B
:100C700000F064FB21688968C90711D100200121B7
:100C800051B121684A6822F020024A60A16A41F20B
:100C9000011291430131A162002184F82410B0BDFA
:100CA000054603E020688068C007E7D000F046FBF7
:100CB000401B0328F6D320688068C007F2D0A06AE2
:100CC000002140F01000A062E06A40F00100E06204
:100CD00001200029D5D1DFE7014690F82100022844
:100CE00013D10868D1E90FC3026822F00E02026036
:100CF000026822F001020260012000FA03F2CCF83F
:100D0000042081F82100002002E0042088630120F3
:100D1000002281F82020704790F82110022923D169
:100D20000268116821F00E0111602F211368C4F2CE
:100D300002018A4240F20401C4F2020123F00103DD
:100D4000136015DD3023C4F202039A421CD0442301
:100D5000C4F202039A421AD05823C4F202039A4200
:100D60001AD14FF480331FE00421816301207047C2
:100D70000823C4F202039A420CD01C23C4F20203DB
:100D80009A4209D110230FE04FF480730CE04FF426
:100D9000805309E0012307E001F1680C4FF08073F4
:100DA000624508BF4FF480130B60012180F82110C9
:100DB000426B002180F8201022B180B590470021BD
:100DC000BDE880400846704710B5D0E90FCE0168F5
:100DD000DCF800300A6823FA0EF35C0724D512F021
:100DE000040421D00A68920603D40A6822F004029F
:100DF0000A602F22C4F20202914240F20402C4F2BD
:100E000002024FDD3023C4F20203994262D0442330
:100E1000C4F20203994260D05823C4F202039942FB
:100E200060D14FF4802365E09C0727D512F00204BF
:100E300024D00A68920606D40A6822F00A020A60E0
:100E4000012280F821202F22C4F20202914240F2B6
:100E50000402C4F2020231DD3023C4F202039942DB
:100E60004ED04423C4F2020399424CD05823C4F21A
:100E7000020399424CD14FF4003351E01B0756D581
:100E800012F0080208BF10BD0A6822F00E020A60C4
:100E9000012101FA0EF2CCF80420816380F82110C0
:100EA000016B3FE00823C4F20203994218D01C23CF
:100EB000C4F20203994215D140231BE00823C4F277
:100EC0000203994222D01C23C4F2020399421FD18B
:100ED000202325E04FF480630CE04FF4804309E0C9
:100EE000042307E002F168044FF08063A14208BFC9
:100EF0004FF480031360C16AC9B1BDE810400847D0
:100F00004FF400730CE04FF4005309E0022307E0B4
:100F100002F168044FF00073A14208BF4FF40013C0
:100F20001360816A0022002980F82020E5D110BDDD
:100F3000014600284FF0010008BF70472DE9F04737
:100F40000A684FF6F873CBF6FD7302EB030C4CF610
:100F5000CD43CCF6CC43ACFB033C6FF0030700263B
:100F600007EA9C07C4F2020601F10C0AC1E90F6707
:100F70000227D1E9013E9AE83004D1E9069881F8C8
:100F80002170176843F6F076B7433B4343EA0E03FC
:100F900023432B4343EA0A0343EA090343EA0803D2
:100FA000136000228A6381F8210081F8202000204C
:100FB000BDE8F0477047000090F820C0BCF1010F79
:100FC00004BF02207047F0B54FF0010E80F820E01A
:100FD00090F821C0BCF1010F23D14FF0020C80F832
:100FE00021C04FF0000CC0F838C0D0E900C4C56A79
:100FF000C66BDCF80070102C27F00107CCF80070ED
:10100000006C0EFA00F070600846CCF8043004BFA3
:1010100010460A46CCF80800CCF80C2035B10E205A
:101020000BE0002180F820100220F0BDDCF8000069
:1010300020F00400CCF800000A20DCF8001008437F
:10104000CCF80000DCF8000040F00100CCF8000013
:101050000020F0BDB0B5044600F070F9054640F23E
:101060007000C2F200000078611C18BF044400BF89
:1010700000F064F9401BA042FAD3B0BDB0F5806F18
:101080002AD0B0F5006F4CD140F2A431C2F2000179
:101090000A6840F2D411C2F2000140F2D81C09687B
:1010A000C2F2000CDCF800308A4208BF002B05D0E9
:1010B0008A420ED06BB94FF0FF3200E0012240F2BD
:1010C000A831C2F200010B681A440A600121CCF871
:1010D0000010B0F5806F24D140F2A430C2F20000BD
:1010E000016840F2D410C2F20000036840F2D81048
:1010F000C2F200000268994208BF002A07D0994254
:101100000FD0002A18BF70474FF0FF3100E00121D7
:1011100040F2AC32C2F2000213681944116001219E
:101120000160704740F21441C4F201010A680242B2
:1011300014BF08607047FFF7A1BF00002DE9F04F12
:1011400082B00E68002E00F0EF8041F20002C4F27F
:101150000102032340F2004E904208BF02234FF6E3
:10116000FF7CC4F2010E009300240123C1F2100C95
:101170004FF0000B4FF000094BE000BF40F600427B
:10118000C4F20102009F904208BF012704F00C0343
:101190000F229A402AEA020207FA03F34FEA9B055C
:1011A0001A4346F825204E6840F20C45F202DEF85C
:1011B000082054BF22EA080242EA0802C4F20105EC
:1011C000CEF808202A68B30254BF22EA080242EA95
:1011D00008022A60B303DEF8042054BF22EA0802A2
:1011E00042EA0802F303CEF80420DEF800204FF0B4
:1011F000010354BF22EA080242EA0802CEF80020A6
:101200000E680BF1010B36FA0BF204F1040400F046
:101210008B8003FA0BFA16EA0A08F1D04E6866458D
:1012200010DC122E50D8DFE806F0330A41454F4F4C
:101230004F4F4F4F4F4F4F4F4F4F4F484C00D1F8EC
:101240000C9041E04FF6FF72C1F2210296420FDC92
:101250000022C1F2110296421AD00022C1F21202FB
:10126000964215D00022C1F22102964210D02BE006
:101270000022C1F2220296420AD00022C1F23102BB
:10128000964205D00022C1F2320296421CD100BF24
:101290008A6842B1012A14BFC0F814A0C0F810A097
:1012A0004FF0080910E04FF004090DE0CA6802F1A0
:1012B000080909E04FF0000906E0CA6802F10409D4
:1012C00002E0CA6802F10C0922460646B8F5807FA2
:1012D00024BF203A043637680F25954027EA0505D4
:1012E00009FA02F22A433260CA79D2067FF588AF42
:1012F00041F21803C4F202031A68AEF57E7642F09A
:1013000001021A601A6802F001020192019A2BF0A0
:10131000030256F802A040F60002C4F20102904215
:101320007FF42CAF002731E702B0BDE8F08F00005A
:10133000002A08BF090401617047000040F2DC3058
:10134000C2F200000068704740F2700040F2DC31E9
:10135000C2F20000C2F2000100780A68104408607E
:101360007047000080B542F20000C4F2020001683C
:1013700041F010010160032000F08EF80F2000F012
:1013800005F800F02BF8002080BD0000B0B540F259
:101390007002C2F2000240F204011278C2F20001AF
:1013A0004FF47A730968B3FBF2F20446B1FBF2F131
:1013B000084600F0A7FB0F2C4FF001050CD858B9D8
:1013C0004FF0FF3021460022002500F039F840F2AE
:1013D0007400C2F2000004602846B0BD82B041F241
:1013E0001800C4F202000168022241F0010101600C
:1013F000016801F0010101910199416841F08051BA
:101400004160406800F08050009000980420C4F2D1
:101410000100016862F31A61016002B070470000C8
:10142000002848BF704700F01F01012202FA01F1B5
:101430004EF200124009CEF2000242F8201070472E
:1014400010B54EF60C5CCEF2000CDCF80030C3F3A5
:10145000022E8EF00704042C28BF0424BEF10303DF
:101460004FF0FF3E0EFA04F438BF0023A143994029
:101470000EFA03F39A43114300F1604200F00F03A8
:10148000090102F56442043B6344002848BF03F1AC
:101490000C02117010BD00004EF60C51CEF200018E
:1014A0000A684FF6FF031A4060F30A2242F0806098
:1014B00040F0FD70086070472DE9F04182B00446AD
:1014C000007841F21C06C007C4F202064AD0306818
:1014D0005FEAC00808D4306840F08050306030685F
:1014E00000F080500190019847F20007C4F2000715
:1014F0003868C00512D4386840F480703860FFF74F
:101500001DFF05463868C00508D4FFF717FF401BCC
:101510006428F7D9032002B0BDE8F081706810F4A8
:10152000407012D0616801F4407188420DD070683B
:1015300040F24042C4F24222012320F44071136081
:101540000023C0071360716025D17068616820F4C2
:1015500040700843B8F1000F706003D4306820F089
:10156000805030602068810707D556F8181CA268A3
:1015700021F44041114346F8181CC00607D556F81F
:10158000180CE16820F48000084346F8180C00208D
:1015900002B0BDE8F081FFF7D1FE054641F2883781
:1015A00070688007D1D4FFF7C9FE401BB8424FF0E6
:1015B0000300F5D9ECE70000002804BF01207047C4
:1015C0002DE9F04381B042F20008C4F2020804465B
:1015D000D8F800000D4600F0070088420CD2D8F879
:1015E000000020F007002843C8F80000D8F80000E9
:1015F00000F00700A8426BD1206841F2040981077E
:10160000C4F2020917D5410705D5D9F8001041F4F5
:10161000E061C9F80010010705D5D9F8001041F4C0
:101620006051C9F80010D9F80010A26821F0F0014B
:101630001143C9F80010C00741D1D8F8000000F0EC
:101640000700A8420CD9D8F8000020F00700284372
:10165000C8F80000D8F8000000F00700A84237D111
:101660002068410707D5D9F80010E26821F4E0614D
:101670001143C9F80010000708D5D9F80000216906
:1016800020F4605040EAC100C9F80000D9F80020F9
:1016900002F00C00082841F20020C0F27A004DD17F
:1016A00043F60E33C2F38341C0F60003595CD20304
:1016B00038D440F60010C0F23D0048433EE0606878
:1016C000022809D0012828D159F8041C890307D41D
:1016D000012001B0BDE8F08359F8041C8901F7D559
:1016E000D9F8001021F003010843C9F80000FFF702
:1016F00025FE064641F28837D9F80000616800F0FF
:101700000C00B0EB810F98D0FFF718FE801BB84299
:10171000F2D9032001B0BDE8F08359F8041C890711
:10172000D6D5DDE7D9F8002043F60C33C2F34042AA
:10173000C0F600039A5C4843B0FBF2F0D9F8001001
:1017400043F6F422C1F30311C0F60002515C40F2EB
:10175000040220FA01F140F27400C2F200000068B5
:10176000C2F200021160FFF711FE002001B0BDE8D7
:10177000F083000040F2040041F20401C2F20000D4
:10178000C4F202010068096843F60432C1F3022181
:10179000C0F60002515CC8407047000040F20400EF
:1017A00041F20401C2F20000C4F2020100680968BB
:1017B00043F60432C1F3C221C0F60002515CC840B6
:1017C00070470000002804BF012070472DE9F04158
:1017D00082B00446007841F20006C007C4F2020657
:1017E00049D0706800F00C00042809D130688003EB
:1017F00041D5606800283ED1012002B0BDE8F081EB
:10180000706800F00C00082802D17068C003EDD4A5
:1018100065682DB1B5F5A02F0AD0B5F5803F0BD086
:10182000306820F480303060306820F4802006E09A
:10183000306840F480203060306840F480303060A0
:10184000FFF77CFD002D054612D000BF30688003F5
:1018500011D4FFF773FD401B6428F7D918E100BFCE
:10186000FFF76CFD401B64284FF0030000F2D880A6
:1018700030688003F4D42078800719D5706810F0A0
:101880000C0F07D0706800F00C00082827D1706892
:10189000C00324D43068800703D52069012840F0B4
:1018A000A6803068616920F0F80040EAC10030602D
:1018B000207800074ED5A06938B30020C4F242203A
:1018C0000121C0F88014FFF739FD0546706A8007D2
:1018D0002DD4FFF733FD401B0228F7D9D8E020694B
:1018E000002840F20000C4F2422000F0A88001214C
:1018F0000160FFF723FD054630688007D1D4FFF76C
:101900001DFD401B0228F7D9C2E00020C4F242208E
:101910000021C0F88014FFF711FD0546706A8007AA
:1019200018D5FFF70BFD401B0228F7D9B0E040F2B5
:101930000400C2F20000006844F6D351C1F2620113
:10194000A0FB0101480A019000BF0198411E002838
:101950000191F9D12078400717D4E5698DB17068FD
:1019600000F00C00082846D1012D40D07068216A93
:1019700000F480328A423AD1616A00F470108842E1
:1019800035D1002002B0BDE8F081F0695FEAC008FF
:1019900008D4F06940F08050F061F06900F08050A8
:1019A0000090009847F20007C4F200073868C005AD
:1019B0000FD4386840F480703860FFF7BFFC0546EC
:1019C0003868C00505D4FFF7B9FC401B6428F7D977
:1019D0005EE0E5681DB1052D42D0012D44D0306A8E
:1019E00020F001003062306A20F004003FE0012066
:1019F00002B0BDE8F0810027C4F24227002038661B
:101A0000FFF79CFC022D05460ED100BF3068800117
:101A100055D5FFF793FC401B02284FF00300F5D982
:101A200002B0BDE8F08100BF30688001A9D5FFF7A2
:101A300085FC401B02284FF00300F5D9F0E7002198
:101A40000160FFF77BFC0546306880077FF530AF0B
:101A5000FFF774FC401B02284FF00300F4D9DFE7C6
:101A6000306A40F004003062306A40F001003062B9
:101A7000FFF764FC002D054641F2883713D000BF04
:101A8000306A800712D4FFF759FC401BB842F7D9DF
:101A9000032002B0BDE8F081FFF750FC401BB842C4
:101AA0004FF00300BCD8306A8007F5D4B8F1000FBE
:101AB0003FF553AFF06920F08050F0614DE7206AA8
:101AC000B0F5803F05D17168A26821F4003111435F
:101AD00071607168626A21F4741111430843706087
:101AE00001203866FFF72AFC044600BF30688001F9
:101AF0003FF547AFFFF722FC001B02284FF0030021
:101B0000F4D98DE7411E0020B0EB116F1CBF0120FE
:101B100070474EF21002CEF2000251604EF6235191
:101B2000CEF20001F0230B70072190601160704726
:101B3000704700007047000090F83C20012A04BF65
:101B400002207047B0B501F108053CCDD1E900CEC7
:101B500023F47C5322F470521A432EF4F0431A43B8
:101B60002CF4E0431A4324F4C0431A432A43C969BE
:101B700022F48042036811435964002180F83C102C
:101B8000BDE8B0400846704790F83C20012A4FF06D
:101B900002022BD010B5012380F83C3080F83D20A4
:101BA0000268D2F804E0D2F808C00C682EF0700386
:101BB0002343B2F1804F53600BD042F60043C4F28E
:101BC00001039A4205D040F20043C4F200039A4256
:101BD00004D149682CF0800319439160012100224F
:101BE00080F83D1080F83C20BDE81040104670475A
:101BF000002804BF0120704710B5044690F83D004E
:101C000028B9002084F83C00204600F051F802205A
:101C100084F83D00206842F6004C0268B0F1804F25
:101C2000C4F2010C18BF604504D1A36822F0700211
:101C30001A4305E040F20043C4F200039842F4D096
:101C4000B0F1804F18BF604504D1236922F440727F
:101C50001A4305E040F20043C4F200039842F4D076
:101C6000A16922F08002D4F804E0E36811436045E2
:101C70000160C362C0F828E002D16169CCF830107D
:101C800001214161002084F8461084F83E1084F858
:101C90003F1084F8401084F8411084F8421084F812
:101CA000431084F8441084F8451084F83D1010BDAA
:101CB00080B582B00068B0F1804F14D042F6004188
:101CC000C4F2010188420CD141F21800C4F20200B2
:101CD000016841F400610160006800F40060019057
:101CE000019802B080BD41F21800C4F202004168C0
:101CF000002241F0010141604068002100F0010034
:101D0000009000981C20FFF79BFB1C2002B0BDE850
:101D10008040FFF785BB000090F83D1001291CBFF3
:101D200001207047022180F83D100068B0F1804F1B
:101D30000BD042F60041C4F20101884205D040F2C6
:101D40000041C4F20001884206D1816801F0070118
:101D5000062904BF00207047016841F001010160BD
:101D60000020704790F83D1001291CBF01207047EA
:101D7000022180F83D100068C168B0F1804F41F049
:101D80000101C1600BD042F60041C4F2010188425A
:101D900005D040F20041C4F20001884206D18168BA
:101DA00001F00701062904BF00207047016841F0D7
:101DB00001010160002070470146006841F21113E3
:101DC000026A1A4208D1026A40F244431A4203D11D
:101DD000026822F0010202600122002081F83D2009
:101DE000704700000146006841F21113C26822F0FA
:101DF0000102C260026A1A4208D1026A40F24443F8
:101E00001A4203D1026822F001020260012200207E
:101E100081F83D207047000090F83C20012A4FF0E7
:101E2000020200F0C68080B5012380F83C3080F8C3
:101E30003D20D0F800C04FF67772DCF8083023EA76
:101E40000202CCF808200B684F2B28DC1F2B44DD46
:101E5000202B45D0302B43D0402B40F0AC80D1F824
:101E600004E0C968DCF82030DCF8202022F0010210
:101E7000CCF82020DCF8182022F0F00242EA011110
:101E800023F00A0242EA0E02CCF81810CCF8202007
:101E9000DCF8081041F0470121F030017EE06F2BA3
:101EA00026DDB3F5005F47D0B3F5805F78D0702BA7
:101EB00040F08180D1E901E3C968DCF8082043EAF9
:101EC0000E0322F47F4243EA01211143CCF80810AB
:101ED000DCF8081041F0770160E00BB1102B6AD1FB
:101EE000DCF8081021F07001194341F0070155E0BA
:101EF000502B34D0602B5ED1D1F804E0C968DCF8F7
:101F00002030DCF8202022F01002CCF82020DCF871
:101F1000182022F4704242EA013123F0A00242EA82
:101F20000E12CCF81810CCF82020DCF8081041F084
:101F3000670121F0100131E0D1E901E3C968DCF863
:101F4000082043EA0E0322F47F4243EA01211143B1
:101F5000CCF80810DCF8081041F480411EE0D1F8FC
:101F600004E0C968DCF82030DCF8202022F001020F
:101F7000CCF82020DCF8182022F0F00242EA01110F
:101F800023F00A0242EA0E02CCF81810CCF8202006
:101F9000DCF8081041F0570121F02001CCF80810BE
:101FA0000022012180F83D10002180F83C10BDE89E
:101FB0008040104670470122F3E7000070470000A0
:101FC00010B5044600680169890744BFC1685FEA2B
:101FD00081713FD420680169490744BFC1685FEA45
:101FE000417143D420680169090744BFC1685FEAB1
:101FF000017148D420680169C90644BFC1685FEA1D
:10200000C1614CD420680169C9071CBFC1685FEA7F
:10201000C17151D120680169090644BFC1685FEAF6
:10202000016150D420680169490644BFC1685FEA74
:1020300041614FD421680869800646BFC8685FEADD
:10204000806010BD6FF0200220460A61BDE810409C
:10205000FFF770BD6FF002010161012121778069F6
:1020600080073ED02046FFF7A9FF40E06FF0040153
:10207000016102212177806910F4407F3AD0204627
:10208000FFF79CFF3CE06FF008010161042121771C
:10209000C069800737D02046FFF790FF39E06FF026
:1020A0001001016108212177C06910F4407F33D00D
:1020B0002046FFF783FF35E06FF001010161204604
:1020C00000F0C6F9A6E76FF0800101612046FFF736
:1020D0002FFDA7E76FF040010161204600F0C2FA32
:1020E000A8E7204600F04EF8204600F0AFF90020A7
:1020F00020776FE7204600F045F8204600F0A6F96B
:10210000002020776EE7204600F03CF8204600F0E3
:102110009DF9002020776DE7204600F033F8204637
:1021200000F094F9002020776CE7000080B586B0BD
:10213000014640F60000C4F20100096800F51052A3
:1021400091424FF00001CDE90411CDE9021101D017
:1021500006B080BD41F21801C4F202010A6842F0E3
:1021600004020A60096801F00401019101994FF429
:102170000061029102210391059102A9FEF7DEFFA1
:1021800006B080BD7047000090F83C30012B04BFC2
:10219000022070474FEAB2020123032A80F83C3044
:1021A00000F2EC802DE9F041DFE802F0023B77B26B
:1021B000036842F600451C6A1A6AC4F2010522F05F
:1021C00001021A621A46D3F804C052F818EF8E685A
:1021D00024F00204AB4244EA060405D1CE6824F0A0
:1021E0000C0426F0040634430E68AB4206D1D1E954
:1021F00005582CF440772F4347EA080C2EF073075C
:102200003743C3F804C09F614F6809695F631C626C
:102210009F6947F008079F619F6927F004079F6146
:10222000A6E0036842F600451C6A1A6AC4F201057A
:1022300022F010021A621A46D3F804C052F818EFBE
:102240008E6824F02004AB4244EA061407D1CE681D
:102250006FF0400724F0C00407EA061634430E6806
:10226000AB4206D1D1E905572CF4406C3D434CEA12
:10227000850C2EF4E64747EA0627C3F804C09F61A1
:102280004F6809699F631C629F6947F400679F61FB
:102290009F6927F480679F6169E0036842F6004503
:1022A0001C6A1A6AC4F2010522F480721A621A4684
:1022B000D3F804C052F81CEF8E6824F40074AB42CB
:1022C00044EA062407D1CE6840F2FF47360224F4E0
:1022D0004064BE4334430E68AB4206D1D1E9055792
:1022E0002CF4405C3D434CEA051C2EF07307374349
:1022F000C3F804C0DF614F680969DF631C62DF69EE
:1023000047F00807DF61DF6927F00407DF612FE08E
:10231000036842F60047D3F820C01A6AC4F20107E6
:1023200022F480521A621A465C6852F81C5FD1F897
:1023300000E08E68BB4204D14F6924F4804444EA33
:1023400087142CF4005747EA063725F4E64646EA98
:102350000E265C60DE614E6809691E641F62DF69DB
:1023600047F40067DF61DF6927F48067DF610902F6
:102370001368194300231160BDE8F041002180F883
:102380003C10184670470000002804BF0120704729
:1023900010B5044690F83D0028B9002084F83C00B0
:1023A000204600F051F8022084F83D00206842F6F3
:1023B000004C0268B0F1804FC4F2010C18BF6045B8
:1023C00004D1A36822F070021A4305E040F20043F2
:1023D000C4F200039842F4D0B0F1804F18BF6045BA
:1023E00004D1236922F440721A4305E040F200430D
:1023F000C4F200039842F4D0A16922F08002D4F81C
:1024000004E0E368114360450160C362C0F828E05E
:1024100002D16169CCF8301001214161002084F8BB
:10242000461084F83E1084F83F1084F8401084F879
:10243000411084F8421084F8431084F8441084F862
:10244000451084F83D1010BD704700007047000033
:102450002DE9F04F81B00068B0F1804F40F0C880A6
:1024600040F2D81040F26C09C2F200000021C2F222
:1024700000090160D9F8000040F6004B40F25E0709
:10248000C4F2010B411CC2F2000705D037F810104E
:1024900058460022FEF74CFFFDF796FEC11700EBF1
:1024A000917121F00301441AFDF78EFEC11700EB74
:1024B000917121F0030237F81410851A5846012251
:1024C000FEF736FF40F2D410C2F20000056040F281
:1024D000A430C2F20000046040F21800C2F2000012
:1024E00000EB051240F2B035C2F200055BA12846B0
:1024F000FDF7A4FE012001212A4601F065F840F213
:10250000A838C2F2000843F67E36D8F80020C0F69C
:10251000000628463146FDF791FE022001212A4699
:1025200001F052F840F2AC3AC2F2000A40F2C4356F
:10253000DAF80020C2F2000528463146FDF77EFE9B
:10254000022006212A4601F03FF840F2D83040F23E
:10255000DC11C2F20000C2F2000100680A68C9F88A
:10256000004010444EF660229042086040D140F294
:10257000CC20C2F20000FFF735FC40F2E010C2F2BE
:102580000000FEF75FFB40F28420C2F20000FFF77C
:1025900029FC398858460022FEF7CAFE7988584639
:1025A0000022FEF7C5FEB98858460022FEF7C0FE9D
:1025B000F98858460022FEF7BBFE012000F030FEED
:1025C00040F20000C2F2000002680720012100F082
:1025D000FBFFD8F80000DAF8002090420BDD40F253
:1025E000100440F2BC11C2F20004C2F200010DE07E
:1025F00001B0BDE8F08F90422DDA40F2140440F2B1
:10260000C611C2F20004C2F20001104640F2E035E9
:10261000C2F20005286040F21430C2F200000A2223
:1026200000F046FC22680220012100F0CDFF40F2BC
:10263000B0342A68C2F2000443F67E31C0F60001CD
:102640002046FDF7FBFD02200C21224601B0BDE82B
:10265000F04F00F0B9BF0120FDF7BCFE202573202C
:102660000000000070470000704700007047000045
:10267000B0B582B0044600680168C368426901F0E1
:102680002F05202D03F0200506D12DB1204602B0E4
:10269000BDE8B04000F0DEBC5FEA017C1EBF02F086
:1026A000010E03F4907212EB0E0240D1226BCD06A4
:1026B00018D5012A16D113F0100213D00021019170
:1026C000016801914168019101994069400636D441
:1026D000A08DE18DE28D002A18BF884240F00C8168
:1026E00002B0B0BD0A0670D513F080026DD094F828
:1026F00041102129F4D1A168B1F5805F03D121698E
:10270000002900F02E81216A4A1C2262097841606A
:10271000E18C01390A04E184E2D1C16821F0800131
:10272000C160C16841F04001C16002B0B0BDC807DE
:1027300018BF13F480705CD1480760D466E0E06B8A
:10274000016849688AB2002ACAD0A38D9A42C7D2CA
:10275000E1858069202830D0206850E8030F216887
:1027600020F4807041E80302002AF5D1206850E887
:10277000050F216820F0010041E80502002AF5D18B
:10278000206850E8050F216820F0400041E805026C
:10279000002AF5D1202084F842000020206300BFE9
:1027A000206850E8030F216820F0100041E8030280
:1027B000002AF5D1E06BFEF78FFA02206063A08D4E
:1027C000E18D401A81B22046C0E049067FF588AF0E
:1027D00013F040013FF484AFC16821F04001C160B3
:1027E0002021204684F8411002B0BDE8B04000F03E
:1027F0009DBB606C40F001006064480706D5BEF1E7
:10280000000F03D0606C40F002006064880706D5BA
:10281000BEF1000F03D0606C40F004006064BCF1B6
:10282000000F06D55EEA050003D0606C40F008009A
:102830006064606C00283FF453AF880603D515B17F
:10284000204600F007FC20684069616C00F0400001
:1028500001F00801401848D0206850E8030F2168B3
:1028600020F4907041E80302002AF5D1206850E876
:10287000050F216820F0010041E80502002AF5D18A
:10288000206B01280AD100BF206850E8030F21689F
:1028900020F0100041E80302002AF5D1202084F83E
:1028A00042000020206320684069400653D500BFE5
:1028B000206850E8050F216820F0400041E805023B
:1028C000002AF5D1E06B002845D042F65D71C0F6D4
:1028D00000014163FEF720FA00283FF401AFE06BEE
:1028E000416B02B0BDE8B04008472046FFF7BEFE8E
:1028F0000020606402B0B0BD401A00BF216851E8FA
:10290000031F226821F4907142E80313002BF5D1D4
:10291000216851E8051F226821F0010142E80513F2
:10292000002BF5D1202184F842100021216300BF43
:10293000216851E8031F226821F0100142E80313C7
:10294000002BF5D1022281B22046626302B0BDE8BD
:10295000B040FFF789BE204602B0BDE8B040FFF7A7
:1029600085BE216A31F8022B6FF35F22426021623B
:10297000CEE60000002804BF0120704710B50446D1
:1029800090F8410028B9002084F84000204600F06B
:1029900061F8242084F841002068D4E90212C36859
:1029A00023F40053C360036923F440531A430261C4
:1029B000D4E904231143C268194341F20C639A43DA
:1029C0001143C1604169A26921F44071114343F68A
:1029D0000002C4F201029042416102D0FEF7CAFE39
:1029E00001E0FEF7DBFED4E90023192148439900FA
:1029F000B0FBF1F048F21F5CC5F2EB1CA0FB0C3100
:102A00004FF69C734909C0F6FF7301FB03003223A4
:102A100003EB0010A0FB0C03F02000EA531000EBC6
:102A20000110C3F34311084490601069202120F481
:102A300090401061506920F02A005061D06840F445
:102A40000050D0600020606484F8411084F8421087
:102A5000606310BDF0B585B00446006844F20041E3
:102A6000C4F20001002688420496CDE90266019670
:102A700051D043F60001C4F20101884240F0818048
:102A800041F21800C4F20200016840F6000541F46A
:102A9000804101600168C4F2010501F480410091A8
:102AA0000099016801AE41F00401016000683146FF
:102AB00000F00400009000984FF400700190022094
:102AC0000290032004902846FEF738FB4FF4806004
:102AD0000190002728463146CDE90277FEF72EFB0C
:102AE00040F240254420C2F20005C4F20200102149
:102AF000802285E883002846C5E90327C5E90577D4
:102B0000EF61FEF715FA002818BFFDF7C1FDA563B8
:102B10006C6225242DE041F21800C4F202004168E5
:102B200040F6000441F4003141604168C4F2010400
:102B300001F4003100910099016801AD41F00401F8
:102B400001600068294600F004000090009804200D
:102B5000019002200290032004902046FEF7EEFA36
:102B60000820CDE90106204629460396FEF7E6FA3D
:102B70002624204600210022FEF762FC2046FEF7B4
:102B80004FFC05B0F0BD00002DE9F04381B00446D4
:102B900090F8420020281ED10D4600294FF0010078
:102BA00000F080801746002A00F07C80002022215F
:102BB0009846606484F842102063FEF7BFFBA78547
:102BC000E785A1688146B1F5805F01D1206930B108
:102BD0002E46002504E0022001B0BDE8F083002667
:102BE000E08D00285AD008F101070CE0206800268B
:102BF00040686FF35F2025F8020BE08D0138E08517
:102C0000E08D00284AD020680068800612D477B191
:102C1000B8F1000F05D121E0016889060AD4002F20
:102C2000FAD0FEF78BFBA0EB0900404516D82068D0
:102C3000F2E700BF002ED9D0A068B0F5805F07D0C2
:102C400008B9206920B12068406800F07F0001E0E9
:102C50002068406806F8010BCFE700BF206850E805
:102C6000030F216820F4D07041E80302002AF5D157
:102C7000206850E8050F216820F0010041E80502B6
:102C8000002AF5D1202084F8410084F84200002079
:102C900084F84000032001B0BDE8F083202084F8D0
:102CA0004200002001B0BDE8F083000090F84230FF
:102CB000202B07D100294FF0010318BF002A04D1AF
:102CC0001846704702231846704700230363816249
:102CD00022218285C285436480F84210016921B1B6
:102CE0000168CA6842F48072CA600068416941F0B4
:102CF00001014161C16841F02001C160184670477F
:102D000010B50446016844F20040C4F2000081425C
:102D100018BF10BD40F2D011C2F20001097831296C
:102D200003D0302908D1002200E0012200F54840FC
:102D30004FF40061FEF7FCFA40F2D011C2F200013C
:102D400020460122BDE81040FFF7B0BF2DE9F04357
:102D500081B0044690F8410020281DD10D4600297D
:102D60004FF0010000F0A1801646002A00F09D807F
:102D7000002060642120984684F84100FEF7DEFAC6
:102D8000A684E684A1688146B1F5805F01D12069FF
:102D900030B12F46002504E0022001B0BDE8F083E9
:102DA0000027E08C002842D008F101060AE000BFAD
:102DB00097B117F8010B21684860E08C0138E08476
:102DC000E08CA0B3206800680006F1D4BEB1B8F171
:102DD000000F0ED116E000BF35F8020B21686FF32B
:102DE0005F2048600027E8E701680906E0D4002E6C
:102DF000FAD0FEF7A3FAA0EB0900404502D82068FC
:102E0000F2E700BF206850E8030F216820F4D0707B
:102E100041E80302002AF5D1206850E8050F216837
:102E200020F0010041E80502002AF5D10AE02068FF
:102E30000068400635D4B8F1000F1DD018F1010527
:102E40000CD012E0202084F8410084F842000020D9
:102E500084F84000032001B0BDE8F083206800BF83
:102E6000016849061DD4002DFAD0FEF767FAA0EBE1
:102E700009004045F2D900BF206850E8030F2168DF
:102E800020F4D07041E80302002AF5D1206850E810
:102E9000050F216820F0010041E80502002AF5D164
:102EA000D0E7202084F84100002001B0BDE8F08385
:102EB00070B5044690F8410020281CBF022070BD68
:102EC0004FF0010089B3002A134608BF70BD4FF0D0
:102ED000000C21202162A384E384C4F844C084F858
:102EE00041002268A06B43F20D0E43F24D0542F6FD
:102EF0006976C0F6000EC0F60005C0F60006043282
:102F0000C0E90AE5C0E90C6CFEF756F820686FF0DE
:102F100040010160206850E8050F216840F0800002
:102F200041E80502002AF5D1002070BD704700007D
:102F300070470000FEE70000FEE70000FEE700002B
:102F40007047000070470000FEF7FEB970470000B0
:102F500040F2CC20C2F20000FFF732B8406A0021F4
:102F6000C185C184FFF782BB406A0168496990F856
:102F70004120212A11D111F080010ED00021C184FD
:102F8000016851E8031F026821F0C00142E8031301
:102F9000002BF5D1202180F841100168496990F893
:102FA0004220222A2BD111F0400128D00021C185D6
:102FB000016851E8031F026821F4907142E803138D
:102FC000002BF5D1016851E8051F026821F00101CD
:102FD00042E80513002BF5D1016B01290AD100BF8E
:102FE000016851E8031F026821F0100142E8031351
:102FF000002BF5D1202180F8421000210163416CA3
:1030000041F010014164FFF731BB00000168406AE4
:103010000968890648BFFFF789BF0021C18400BF46
:10302000016851E8051F026821F0800142E805139C
:10303000002BF5D1016851E8031F026841F04001FF
:1030400042E80313002BF5D170470000406AFFF7F8
:103050006FBF000090F84210222918BF70478268A5
:10306000B2F5805F01D1016991B1816AB2F5805FEB
:1030700007D00AB9026922B10268526802F07F02E1
:1030800001E0026852680A70816A0131816207E0DA
:103090000168826A49686FF35F2122F8021B82622D
:1030A000C18D01390A04C18500D070470168CA6822
:1030B00022F02002CA60CA6822F48072CA604A699B
:1030C00022F001024A61202180F842100021416370
:1030D000026B012A18BFFFF713BE81B0016300BF66
:1030E000016851E8031F026821F0100142E8031350
:1030F000002BF5D101680A68D20606D5002200929D
:103100000A680092496800910099818D01B0FFF72B
:10311000ABBA000040F21430C2F20000FFF7A8BAC8
:1031200040F25C30C2F20000FFF7A2BAFEE70000F6
:1031300070B540F61401C4F2010151F8082C40F6B4
:10314000144342F4004241F8082C02224FF0400C94
:103150004FF0800EC4F2010301240A60C1F800C0E0
:10316000C1F800E01C601A6051F8085C46B245F0F6
:10317000020541F8085CC5064FF0400558BF4FF402
:10318000800541F8045C85064FF0800558BF4FF478
:10319000000541F8045C45064FF0010558BF4FF4A7
:1031A000803543F8045C0225B6F1FF3FC8BF4FF4F9
:1031B000003543F8045C0A60C1F800C0C1F800E0C3
:1031C0001C601A6051F8085C45F0020541F8085C83
:1031D000C5074FF0400508BF4FF4800541F8045C77
:1031E00085074FF0800558BF4FF4000541F8045C97
:1031F00045074FF0010558BF4FF4803500074FF0E9
:10320000020043F8045C58BF4FF4003043F8040C4C
:103210000A60C1F800C0C1F800E01C601A6070BD0F
:1032200070B540F61401C4F201014FF4004240F6BB
:1032300014430A6002224FF0400C4FF0800EC4F29B
:10324000010301240A60C1F800C0C1F800E01C605D
:103250001A6051F8085C46B245F0020541F8085C76
:10326000C5064FF0400558BF4FF4800541F8045C97
:1032700085064FF0800558BF4FF4000541F8045C07
:1032800045064FF0010558BF4FF4803543F8045C04
:103290000225B6F1FF3FC8BF4FF4003543F8045C88
:1032A0000A60C1F800C0C1F800E01C601A6051F863
:1032B000085C45F0020541F8085CC5074FF0400581
:1032C00008BF4FF4800541F8045C85074FF0800586
:1032D00058BF4FF4000541F8045C45074FF0010565
:1032E00058BF4FF4803500074FF0020043F8045CEC
:1032F00058BF4FF4003043F8040C0A60C1F800C016
:10330000C1F800E01C601A6070BD00002DE9F04FAC
:1033100083B08246FA20CDE90112FDF79BFE40F60C
:10332000140440F61445C4F201044FF4004002278F
:103330004FF0400B8026C4F201054FF001082060D9
:103340002760C4F800B02660C5F800802F6054F8EC
:10335000080C4FF4800940F0020044F8080C4FF4C8
:10336000000044F8049C44F8040C4FF4803045F805
:10337000040C4FF4003045F8040C2760C4F800B08A
:103380002660C5F800802F6054F8080C4FF4803296
:1033900040F002004FF4003144F8080C322044F8A9
:1033A000049C44F8046C45F8042C45F8041C276080
:1033B000C4F800B02660C5F800802F60FDF74AFE13
:1033C0000198029940EA0A00084340F02000FFF704
:1033D00027FF3220FDF73EFE4FF4004AC4F800A05C
:1033E0002760C4F800B02660C5F800802F6054F84C
:1033F000080C4FF4003140F0020044F8080C4FF480
:10340000000044F8049C44F8040C4FF4803045F864
:10341000040C45F8041C2760C4F800B02660C5F809
:1034200000802F6054F8080C40F0020044F8080CAB
:10343000322044F8049C44F8046C45F8048C45F8A8
:10344000041C2760C4F800B02660C5F800802F6017
:10345000FDF700FEC4F800A02760C4F800B02660A5
:10346000C5F800802F6054F8080C4FF4803A40F003
:10347000020044F8080C4FF4000044F8049C44F89F
:10348000040C4FF4803045F8040C4FF4003045F83C
:10349000040C2760C4F800B02660C5F800802F60D7
:1034A00054F8080C40F0020044F8080C322044F8AC
:1034B000049C44F8046C45F8048C45F8047C2760AF
:1034C000C4F800B02660C5F800802F60FDF7C2FD8B
:1034D0004FF4004020602760C4F800B02660C5F8B3
:1034E00000802F6054F8080C4FF4000140F00200F7
:1034F00044F8080C4FF4003044F8049C44F8041CD1
:1035000045F804AC45F8040C2760C4F800B0266008
:10351000C5F800802F6054F8080C4FF4000A40F002
:10352000020044F8080C322044F8049C44F8041CBF
:1035300045F8048C45F8047C2760C4F800B0266088
:10354000C5F800802F60FDF785FD4FF40040206036
:103550002760C4F800B02660C5F800802F6054F8DA
:10356000080C4FF4803140F002004FF4003244F870
:10357000080C44F8049C44F804AC45F8041C45F8D5
:10358000042C2760C4F800B02660C5F800802F60C6
:1035900054F8080C40F0020044F8080C44F804BC4D
:1035A00044F804AC45F8041C45F8042C2760C4F822
:1035B00000B02660C5F8008064202F6003B0BDE82D
:1035C000F04FFDF747BD000010B51446012803D0A9
:1035D000022806D1BF2000E07F200844C0B2FFF7D8
:1035E0001FFE2078002808BF10BD013CC0B2FFF7C5
:1035F0009FFDA07801340028F8D110BD98B0FDF7E8
:10360000B1FE6C4620462821FCF7EDFE022000901A
:103610000120049010200025059020460E95CDE94C
:103620000C55CDE90A55CDE91655CDE91455079548
:10363000FEF7C8F818B1EFF3108072B6FEE70F205E
:10364000CDE90A050AA80021CDE90C550E95FDF734
:10365000B3FF20B1EFF3108072B600BFFEE74FF06A
:103660000209002714A8CDF850901697FDF724FF03
:1036700018B1EFF3108072B6FEE741F21804CDE9FD
:103680000277CDE90077C4F20204206840F60048D2
:1036900040F0200020602068C4F2010800F0200003
:1036A0000A900A982068A8F5806540F00400206020
:1036B000206848F2C20100F004000A900A982068CD
:1036C000002240F008002060206848F2C20600F0A6
:1036D00008000A900A982846FDF72AFE40464FF255
:1036E000030100224FF2030AFDF722FE00966E4608
:1036F0004FF0010B28463146CDE901B7CDF80C90CB
:10370000FDF71CFD40463146CDE900ABCDE902791D
:10371000FDF714FD4FF4406000900020C1F211004D
:10372000CDE9010740463146FDF708FD282000217C
:103730000022FDF785FE2820FDF772FE54F8040CE8
:10374000002140F0010044F8040C54F8040C00225D
:1037500000F00100009000980E20FDF771FE0E2091
:10376000FDF75EFE40F2CC20C2F200004FF0804137
:103770007C224FF6FF1380E886008021CDE9027796
:10378000CDE90077CDE90A77C0E903378161FEF71B
:103790002FFA20B1EFF3108072B600BFFEE74FF4AE
:1037A0008050009040F2CC20C2F200006946FEF743
:1037B00033FB20B1EFF3108072B600BFFEE710209C
:1037C0000A9040F2CC200024C2F200000AA90B9417
:1037D000FEF7DAF918B1EFF3108072B6FEE740F2A7
:1037E000E01008F5C056C2F200000294CDE9004492
:1037F000047304754FF46021C0E9006484600124FF
:10380000C1610461FDF79EF818B1EFF3108072B644
:10381000FEE740F2E0150420C2F20005CDE9000405
:103820000024694628460294FCF73AFF18B1EFF3EA
:10383000108072B6FEE740F2102008F5E051C2F2A7
:1038400000004FF4602201270294CDE90044047384
:103850000475C261C0E9001484600761FDF772F865
:1038600018B1EFF3108072B6FEE740F2102000248A
:10387000C2F200006946CDE900470294FCF710FF50
:1038800018B1EFF3108072B6FEE740F2842008F51D
:103890000051C2F200004FF6FF73CDE91644CDE9A6
:1038A0001444CDE912441094CDE90E44CDE90C4402
:1038B000CDE90A44CDE90644CDE90444CDE902440A
:1038C000CDE90044152280E81600C0E90334C0E9C0
:1038D0000544FEF78DF918B1EFF3108072B6FEE7DC
:1038E0004FF48050149040F28420C2F2000014A9DA
:1038F000FEF792FA18B1EFF3108072B6FEE740F2CD
:103900008420C2F20000FEF73FFD18B1EFF31080F3
:1039100072B6FEE740F284200024C2F2000012A931
:10392000CDE91244FEF730F918B1EFF3108072B60A
:10393000FEE760200A903220CDE90B0440F284209B
:10394000C2F200000AA90C22CDE90E441094FEF741
:103950001BFC18B1EFF3108072B6FEE74FF4005075
:10396000059040F284200024C2F2000069460494CD
:10397000CDE90244CDE900440794FEF7DDF818B123
:10398000EFF3108072B6FEE740F28420C2F200002E
:10399000FEF7CCFB40F2143008F53051C2F20000C3
:1039A0004FF416574FF00C09C0E90017C0E9024464
:1039B000C0E90449C0E90644FEF7DCFF18B1EFF3A3
:1039C000108072B6FEE740F25C30A8F54841C2F2C2
:1039D00000000024C0E90017C0E90244C0E904491E
:1039E000C0E90644FEF7C6FF18B1EFF3108072B6C7
:1039F000FEE740F2CC20C2F20000FEF7B3F94FF42C
:103A000060200294CDE900442C732C75E861C5E96F
:103A10000064AC60012428462C61FCF793FF18B1C8
:103A2000EFF3108072B6FEE70420CDE90004002019
:103A3000029040F2E010C2F200006946FCF730FE4E
:103A400018B1EFF3108072B6FEE740F2E010C2F258
:103A50000000FDF781F8002004210822FFF756FC42
:103A600040F20800C2F2000040F214340168C2F2D1
:103A700000042046192241F28833FFF767F940F22B
:103A8000BC11C2F200012046192241F28833FFF72F
:103A90007BF840F26805C2F2000529682046022240
:103AA0000123FFF753F940F20C00C2F20000016855
:103AB0002046192241F28833FFF748F940F2C61137
:103AC000C2F200012046192241F28833FFF75CF868
:103AD0002968204602220123FFF738F940F25C30C2
:103AE00040F2D011C2F20000C2F200010122FFF741
:103AF000DDF8FEE700000000000000000102030402
:103B00000607080900000000010203040102020385
:103B10000405060708090A0B0C0D0E0F10102020D3
:103B20002047616D65206F7665722121210D0A00A5
:103B30005772697465206E616D65206F6620706CC8
:103B400061796572312E0D0A005772697465206EB5
:103B5000616D65206F6620706C61796572322E0D23
:103B60000A0020506C79723120776F6E3A0D0A008E
:103B700020506C79723220776F6E3A0D0A00202542
:103B80006420005468657265206973206E6F207729
:103B9000696E6E6572210000B83B000800000020CD
:103BA0007800000050010008303C00087800002038
:103BB00070090000700100081E3B00080024F4009A
:103BC000303B0008493B0008623B0008703B00089E
:103BD000202052656420202000000000000000002A
:103BE0002020507572706C6500000000000000001D
:103BF0002020477265656E20000000000000000074
:103C00002020426C756520200000000000000000AC
:103C1000FFFFFFFFFFFF00100020004000800000BA
:103C20007B3B0008FFFFFFFF0100000010000000C9
:04000005080000ED02
:00000001FF
